Component: ARM Compiler 5.06 update 6 (build 750) Tool: armlink [4d35ed]

==============================================================================

Section Cross References

    startup_stm32f407xx.o(RESET) refers to startup_stm32f407xx.o(STACK) for __initial_sp
    startup_stm32f407xx.o(RESET) refers to startup_stm32f407xx.o(.text) for Reset_Handler
    startup_stm32f407xx.o(RESET) refers to stm32f4xx_it.o(i.NMI_Handler) for NMI_Handler
    startup_stm32f407xx.o(RESET) refers to stm32f4xx_it.o(i.HardFault_Handler) for HardFault_Handler
    startup_stm32f407xx.o(RESET) refers to stm32f4xx_it.o(i.MemManage_Handler) for MemManage_Handler
    startup_stm32f407xx.o(RESET) refers to stm32f4xx_it.o(i.BusFault_Handler) for BusFault_Handler
    startup_stm32f407xx.o(RESET) refers to stm32f4xx_it.o(i.UsageFault_Handler) for UsageFault_Handler
    startup_stm32f407xx.o(RESET) refers to stm32f4xx_it.o(i.SVC_Handler) for SVC_Handler
    startup_stm32f407xx.o(RESET) refers to stm32f4xx_it.o(i.DebugMon_Handler) for DebugMon_Handler
    startup_stm32f407xx.o(RESET) refers to stm32f4xx_it.o(i.PendSV_Handler) for PendSV_Handler
    startup_stm32f407xx.o(RESET) refers to stm32f4xx_it.o(i.SysTick_Handler) for SysTick_Handler
    startup_stm32f407xx.o(RESET) refers to stm32f4xx_it.o(i.TIM3_IRQHandler) for TIM3_IRQHandler
    startup_stm32f407xx.o(RESET) refers to stm32f4xx_it.o(i.TIM4_IRQHandler) for TIM4_IRQHandler
    startup_stm32f407xx.o(RESET) refers to stm32f4xx_it.o(i.TIM8_BRK_TIM12_IRQHandler) for TIM8_BRK_TIM12_IRQHandler
    startup_stm32f407xx.o(RESET) refers to stm32f4xx_it.o(i.TIM5_IRQHandler) for TIM5_IRQHandler
    startup_stm32f407xx.o(RESET) refers to stm32f4xx_it.o(i.DMA2_Stream0_IRQHandler) for DMA2_Stream0_IRQHandler
    startup_stm32f407xx.o(.text) refers to system_stm32f4xx.o(i.SystemInit) for SystemInit
    startup_stm32f407xx.o(.text) refers to entry.o(.ARM.Collect$$$$00000000) for __main
==============================================================================

Removing Unused input sections from the image.

    Removing startup_stm32f407xx.o(HEAP), (512 bytes).
    Removing main.o(.rev16_text), (4 bytes).
    Removing main.o(.revsh_text), (4 bytes).
    Removing main.o(.rrx_text), (6 bytes).
    Removing main.o(.data), (1 bytes).
    Removing gpio.o(.rev16_text), (4 bytes).
    Removing gpio.o(.revsh_text), (4 bytes).
    Removing gpio.o(.rrx_text), (6 bytes).
    Removing adc.o(.rev16_text), (4 bytes).
    Removing adc.o(.revsh_text), (4 bytes).
    Removing adc.o(.rrx_text), (6 bytes).
    Removing adc.o(i.HAL_ADC_MspDeInit), (56 bytes).
    Removing dma.o(.rev16_text), (4 bytes).
    Removing dma.o(.revsh_text), (4 bytes).
    Removing dma.o(.rrx_text), (6 bytes).
    Removing fsmc.o(.rev16_text), (4 bytes).
    Removing fsmc.o(.revsh_text), (4 bytes).
    Removing fsmc.o(.rrx_text), (6 bytes).
==============================================================================

Image Symbol Table

    Local Symbols

    Symbol Name                              Value     Ov Type        Size  Object(Section)

    ../Core/Src/adc.c                        0x00000000   Number         0  adc.o ABSOLUTE
    ../Core/Src/dma.c                        0x00000000   Number         0  dma.o ABSOLUTE
    ../Core/Src/fsmc.c                       0x00000000   Number         0  fsmc.o ABSOLUTE
    ../Core/Src/gpio.c                       0x00000000   Number         0  gpio.o ABSOLUTE
    ../Core/Src/main.c                       0x00000000   Number         0  main.o ABSOLUTE
    ../Core/Src/stm32f4xx_hal_msp.c          0x00000000   Number         0  stm32f4xx_hal_msp.o ABSOLUTE
    ../Core/Src/stm32f4xx_it.c               0x00000000   Number         0  stm32f4xx_it.o ABSOLUTE
    ../Core/Src/system_stm32f4xx.c           0x00000000   Number         0  system_stm32f4xx.o ABSOLUTE
    ../Core/Src/tim.c                        0x00000000   Number         0  tim.o ABSOLUTE
    ../Core/Src/usart.c                      0x00000000   Number         0  usart.o ABSOLUTE
    ../Drivers/STM32F4xx_HAL_Driver/Src/stm32f4xx_hal.c 0x00000000   Number         0  stm32f4xx_hal.o ABSOLUTE
    ../Drivers/STM32F4xx_HAL_Driver/Src/stm32f4xx_hal_adc.c 0x00000000   Number         0  stm32f4xx_hal_adc.o ABSOLUTE
    ../Drivers/STM32F4xx_HAL_Driver/Src/stm32f4xx_hal_adc_ex.c 0x00000000   Number         0  stm32f4xx_hal_adc_ex.o ABSOLUTE
    ../Drivers/STM32F4xx_HAL_Driver/Src/stm32f4xx_hal_cortex.c 0x00000000   Number         0  stm32f4xx_hal_cortex.o ABSOLUTE
    ../Drivers/STM32F4xx_HAL_Driver/Src/stm32f4xx_hal_dma.c 0x00000000   Number         0  stm32f4xx_hal_dma.o ABSOLUTE
    ../Drivers/STM32F4xx_HAL_Driver/Src/stm32f4xx_hal_dma_ex.c 0x00000000   Number         0  stm32f4xx_hal_dma_ex.o ABSOLUTE
    ../Drivers/STM32F4xx_HAL_Driver/Src/stm32f4xx_hal_exti.c 0x00000000   Number         0  stm32f4xx_hal_exti.o ABSOLUTE
    ../Drivers/STM32F4xx_HAL_Driver/Src/stm32f4xx_hal_flash.c 0x00000000   Number         0  stm32f4xx_hal_flash.o ABSOLUTE
    ../Drivers/STM32F4xx_HAL_Driver/Src/stm32f4xx_hal_flash_ex.c 0x00000000   Number         0  stm32f4xx_hal_flash_ex.o ABSOLUTE
    ../Drivers/STM32F4xx_HAL_Driver/Src/stm32f4xx_hal_flash_ramfunc.c 0x00000000   Number         0  stm32f4xx_hal_flash_ramfunc.o ABSOLUTE
    ../Drivers/STM32F4xx_HAL_Driver/Src/stm32f4xx_hal_gpio.c 0x00000000   Number         0  stm32f4xx_hal_gpio.o ABSOLUTE
    ../Drivers/STM32F4xx_HAL_Driver/Src/stm32f4xx_hal_pwr.c 0x00000000   Number         0  stm32f4xx_hal_pwr.o ABSOLUTE
    ../Drivers/STM32F4xx_HAL_Driver/Src/stm32f4xx_hal_pwr_ex.c 0x00000000   Number         0  stm32f4xx_hal_pwr_ex.o ABSOLUTE
    ../Drivers/STM32F4xx_HAL_Driver/Src/stm32f4xx_hal_rcc.c 0x00000000   Number         0  stm32f4xx_hal_rcc.o ABSOLUTE
    ../Drivers/STM32F4xx_HAL_Driver/Src/stm32f4xx_hal_rcc_ex.c 0x00000000   Number         0  stm32f4xx_hal_rcc_ex.o ABSOLUTE
    ../Drivers/STM32F4xx_HAL_Driver/Src/stm32f4xx_hal_sram.c 0x00000000   Number         0  stm32f4xx_hal_sram.o ABSOLUTE
    ../Drivers/STM32F4xx_HAL_Driver/Src/stm32f4xx_hal_tim.c 0x00000000   Number         0  stm32f4xx_hal_tim.o ABSOLUTE
    ../Drivers/STM32F4xx_HAL_Driver/Src/stm32f4xx_hal_tim_ex.c 0x00000000   Number         0  stm32f4xx_hal_tim_ex.o ABSOLUTE
    ../Drivers/STM32F4xx_HAL_Driver/Src/stm32f4xx_hal_uart.c 0x00000000   Number         0  stm32f4xx_hal_uart.o ABSOLUTE
    ../Drivers/STM32F4xx_HAL_Driver/Src/stm32f4xx_ll_adc.c 0x00000000   Number         0  stm32f4xx_ll_adc.o ABSOLUTE
    ../Drivers/STM32F4xx_HAL_Driver/Src/stm32f4xx_ll_fsmc.c 0x00000000   Number         0  stm32f4xx_ll_fsmc.o ABSOLUTE
    ../clib/microlib/division.c              0x00000000   Number         0  uidiv.o ABSOLUTE
    ../clib/microlib/division.c              0x00000000   Number         0  uldiv.o ABSOLUTE
    ../clib/microlib/errno.c                 0x00000000   Number         0  errno.o ABSOLUTE
    ../clib/microlib/init/entry.s            0x00000000   Number         0  entry.o ABSOLUTE
    ../clib/microlib/init/entry.s            0x00000000   Number         0  entry8b.o ABSOLUTE
    ../clib/microlib/init/entry.s            0x00000000   Number         0  entry8a.o ABSOLUTE
    ../clib/microlib/init/entry.s            0x00000000   Number         0  entry9b.o ABSOLUTE
    ../clib/microlib/init/entry.s            0x00000000   Number         0  entry9a.o ABSOLUTE
    ../clib/microlib/init/entry.s            0x00000000   Number         0  entry11b.o ABSOLUTE
    ../clib/microlib/init/entry.s            0x00000000   Number         0  entry7b.o ABSOLUTE
    ../clib/microlib/init/entry.s            0x00000000   Number         0  entry10a.o ABSOLUTE
    ../clib/microlib/init/entry.s            0x00000000   Number         0  entry7a.o ABSOLUTE
    ../clib/microlib/init/entry.s            0x00000000   Number         0  entry5.o ABSOLUTE
    ../clib/microlib/init/entry.s            0x00000000   Number         0  entry2.o ABSOLUTE
    ../clib/microlib/init/entry.s            0x00000000   Number         0  entry11a.o ABSOLUTE
    ../clib/microlib/init/entry.s            0x00000000   Number         0  entry10b.o ABSOLUTE
    ../clib/microlib/longlong.c              0x00000000   Number         0  llshl.o ABSOLUTE
    ../clib/microlib/longlong.c              0x00000000   Number         0  llsshr.o ABSOLUTE
    ../clib/microlib/longlong.c              0x00000000   Number         0  llushr.o ABSOLUTE
    ../clib/microlib/printf/printf.c         0x00000000   Number         0  printfb.o ABSOLUTE
    ../clib/microlib/printf/printf.c         0x00000000   Number         0  printf0.o ABSOLUTE
    ../clib/microlib/printf/printf.c         0x00000000   Number         0  printf1.o ABSOLUTE
    ../clib/microlib/printf/printf.c         0x00000000   Number         0  printf3.o ABSOLUTE
    ../clib/microlib/printf/printf.c         0x00000000   Number         0  printf6.o ABSOLUTE
    ../clib/microlib/printf/printf.c         0x00000000   Number         0  printf4.o ABSOLUTE
    ../clib/microlib/printf/printf.c         0x00000000   Number         0  printf8.o ABSOLUTE
    ../clib/microlib/printf/printf.c         0x00000000   Number         0  printfa.o ABSOLUTE
    ../clib/microlib/printf/printf.c         0x00000000   Number         0  printf2.o ABSOLUTE
    ../clib/microlib/printf/printf.c         0x00000000   Number         0  printf5.o ABSOLUTE
    ../clib/microlib/printf/printf.c         0x00000000   Number         0  printf7.o ABSOLUTE
    ../clib/microlib/printf/stubs.s          0x00000000   Number         0  stubs.o ABSOLUTE
    ../clib/microlib/stdio/streams.c         0x00000000   Number         0  stdout.o ABSOLUTE
    ../clib/microlib/string/memset.c         0x00000000   Number         0  memseta.o ABSOLUTE
    ../clib/microlib/stubs.s                 0x00000000   Number         0  iusefp.o ABSOLUTE
    ../fplib/microlib/d2f.c                  0x00000000   Number         0  d2f.o ABSOLUTE
    ../fplib/microlib/f2d.c                  0x00000000   Number         0  f2d.o ABSOLUTE
    ../fplib/microlib/fpadd.c                0x00000000   Number         0  dadd.o ABSOLUTE
    ../fplib/microlib/fpdiv.c                0x00000000   Number         0  ddiv.o ABSOLUTE
    ../fplib/microlib/fpepilogue.c           0x00000000   Number         0  depilogue.o ABSOLUTE
    ../fplib/microlib/fpepilogue.c           0x00000000   Number         0  fepilogue.o ABSOLUTE
    ../fplib/microlib/fpfix.c                0x00000000   Number         0  dfixi.o ABSOLUTE
    ../fplib/microlib/fpfix.c                0x00000000   Number         0  dfixui.o ABSOLUTE
    ../fplib/microlib/fpfix.c                0x00000000   Number         0  dfixul.o ABSOLUTE
    ../fplib/microlib/fpflt.c                0x00000000   Number         0  dflti.o ABSOLUTE
    ../fplib/microlib/fpflt.c                0x00000000   Number         0  dfltui.o ABSOLUTE
    ../fplib/microlib/fpmul.c                0x00000000   Number         0  dmul.o ABSOLUTE
    ../fplib/microlib/fpneg.c                0x00000000   Number         0  dneg.o ABSOLUTE
    ../fplib/microlib/fpsqrt.c               0x00000000   Number         0  dsqrt.o ABSOLUTE
    ../mathlib/cos_i.c                       0x00000000   Number         0  cos_i.o ABSOLUTE
    ../mathlib/dunder.c                      0x00000000   Number         0  dunder.o ABSOLUTE
    ../mathlib/fabs.c                        0x00000000   Number         0  fabs.o ABSOLUTE
    ../mathlib/fpclassify.c                  0x00000000   Number         0  fpclassify.o ABSOLUTE
    ../mathlib/poly.c                        0x00000000   Number         0  poly.o ABSOLUTE
    ../mathlib/rred.c                        0x00000000   Number         0  rred.o ABSOLUTE
    ../mathlib/sin.c                         0x00000000   Number         0  sin_x.o ABSOLUTE
    ../mathlib/sin.c                         0x00000000   Number         0  sin.o ABSOLUTE
    ../mathlib/sin_i.c                       0x00000000   Number         0  sin_i_x.o ABSOLUTE
    ../mathlib/sin_i.c                       0x00000000   Number         0  sin_i.o ABSOLUTE
    ../mathlib/sqrt.c                        0x00000000   Number         0  sqrt.o ABSOLUTE
    ../mathlib/sqrt.c                        0x00000000   Number         0  sqrt_x.o ABSOLUTE
    ..\Core\Src\adc.c                        0x00000000   Number         0  adc.o ABSOLUTE
    ..\Core\Src\dma.c                        0x00000000   Number         0  dma.o ABSOLUTE
    ..\Core\Src\fsmc.c                       0x00000000   Number         0  fsmc.o ABSOLUTE
    ..\Core\Src\gpio.c                       0x00000000   Number         0  gpio.o ABSOLUTE
    ..\Core\Src\main.c                       0x00000000   Number         0  main.o ABSOLUTE
    ..\Core\Src\stm32f4xx_hal_msp.c          0x00000000   Number         0  stm32f4xx_hal_msp.o ABSOLUTE
    ..\Core\Src\stm32f4xx_it.c               0x00000000   Number         0  stm32f4xx_it.o ABSOLUTE
    ..\Core\Src\system_stm32f4xx.c           0x00000000   Number         0  system_stm32f4xx.o ABSOLUTE
    ..\Core\Src\tim.c                        0x00000000   Number         0  tim.o ABSOLUTE
    ..\Core\Src\usart.c                      0x00000000   Number         0  usart.o ABSOLUTE
    ..\Drivers\STM32F4xx_HAL_Driver\Src\stm32f4xx_hal.c 0x00000000   Number         0  stm32f4xx_hal.o ABSOLUTE
    ..\Drivers\STM32F4xx_HAL_Driver\Src\stm32f4xx_hal_adc.c 0x00000000   Number         0  stm32f4xx_hal_adc.o ABSOLUTE
    ..\Drivers\STM32F4xx_HAL_Driver\Src\stm32f4xx_hal_adc_ex.c 0x00000000   Number         0  stm32f4xx_hal_adc_ex.o ABSOLUTE
    ..\Drivers\STM32F4xx_HAL_Driver\Src\stm32f4xx_hal_cortex.c 0x00000000   Number         0  stm32f4xx_hal_cortex.o ABSOLUTE
    ..\Drivers\STM32F4xx_HAL_Driver\Src\stm32f4xx_hal_dma.c 0x00000000   Number         0  stm32f4xx_hal_dma.o ABSOLUTE
    ..\Drivers\STM32F4xx_HAL_Driver\Src\stm32f4xx_hal_dma_ex.c 0x00000000   Number         0  stm32f4xx_hal_dma_ex.o ABSOLUTE
    ..\Drivers\STM32F4xx_HAL_Driver\Src\stm32f4xx_hal_exti.c 0x00000000   Number         0  stm32f4xx_hal_exti.o ABSOLUTE
    ..\Drivers\STM32F4xx_HAL_Driver\Src\stm32f4xx_hal_flash.c 0x00000000   Number         0  stm32f4xx_hal_flash.o ABSOLUTE
    ..\Drivers\STM32F4xx_HAL_Driver\Src\stm32f4xx_hal_flash_ex.c 0x00000000   Number         0  stm32f4xx_hal_flash_ex.o ABSOLUTE
    ..\Drivers\STM32F4xx_HAL_Driver\Src\stm32f4xx_hal_flash_ramfunc.c 0x00000000   Number         0  stm32f4xx_hal_flash_ramfunc.o ABSOLUTE
    ..\Drivers\STM32F4xx_HAL_Driver\Src\stm32f4xx_hal_gpio.c 0x00000000   Number         0  stm32f4xx_hal_gpio.o ABSOLUTE
    ..\Drivers\STM32F4xx_HAL_Driver\Src\stm32f4xx_hal_pwr.c 0x00000000   Number         0  stm32f4xx_hal_pwr.o ABSOLUTE
    ..\Drivers\STM32F4xx_HAL_Driver\Src\stm32f4xx_hal_pwr_ex.c 0x00000000   Number         0  stm32f4xx_hal_pwr_ex.o ABSOLUTE
    ..\Drivers\STM32F4xx_HAL_Driver\Src\stm32f4xx_hal_rcc.c 0x00000000   Number         0  stm32f4xx_hal_rcc.o ABSOLUTE
    ..\Drivers\STM32F4xx_HAL_Driver\Src\stm32f4xx_hal_rcc_ex.c 0x00000000   Number         0  stm32f4xx_hal_rcc_ex.o ABSOLUTE
    ..\Drivers\STM32F4xx_HAL_Driver\Src\stm32f4xx_hal_sram.c 0x00000000   Number         0  stm32f4xx_hal_sram.o ABSOLUTE
    ..\Drivers\STM32F4xx_HAL_Driver\Src\stm32f4xx_hal_tim.c 0x00000000   Number         0  stm32f4xx_hal_tim.o ABSOLUTE
    ..\Drivers\STM32F4xx_HAL_Driver\Src\stm32f4xx_hal_tim_ex.c 0x00000000   Number         0  stm32f4xx_hal_tim_ex.o ABSOLUTE
    ..\Drivers\STM32F4xx_HAL_Driver\Src\stm32f4xx_hal_uart.c 0x00000000   Number         0  stm32f4xx_hal_uart.o ABSOLUTE
    ..\Drivers\STM32F4xx_HAL_Driver\Src\stm32f4xx_ll_fsmc.c 0x00000000   Number         0  stm32f4xx_ll_fsmc.o ABSOLUTE
    ..\USER\KEY\key.c                        0x00000000   Number         0  key.o ABSOLUTE
    ..\USER\LCD\lcd.c                        0x00000000   Number         0  lcd.o ABSOLUTE
    ..\USER\STMFLASH\stmflash.c              0x00000000   Number         0  stmflash.o ABSOLUTE
    ..\USER\delay\delay.c                    0x00000000   Number         0  delay.o ABSOLUTE
    ..\USER\my_fft\cr4_fft_1024_stm32.s      0x00000000   Number         0  cr4_fft_1024_stm32.o ABSOLUTE
    ..\USER\my_fft\cr4_fft_256_stm32.s       0x00000000   Number         0  cr4_fft_256_stm32.o ABSOLUTE
    ..\USER\my_fft\fft256.c                  0x00000000   Number         0  fft256.o ABSOLUTE
    ..\USER\sys\sys.c                        0x00000000   Number         0  sys.o ABSOLUTE
    ..\\USER\\KEY\\key.c                     0x00000000   Number         0  key.o ABSOLUTE
    ..\\USER\\LCD\\lcd.c                     0x00000000   Number         0  lcd.o ABSOLUTE
    ..\\USER\\STMFLASH\\stmflash.c           0x00000000   Number         0  stmflash.o ABSOLUTE
    ..\\USER\\delay\\delay.c                 0x00000000   Number         0  delay.o ABSOLUTE
    ..\\USER\\my_fft\\fft256.c               0x00000000   Number         0  fft256.o ABSOLUTE
    ..\\USER\\sys\\sys.c                     0x00000000   Number         0  sys.o ABSOLUTE
    cdcmple.s                                0x00000000   Number         0  cdcmple.o ABSOLUTE
    cdrcmple.s                               0x00000000   Number         0  cdrcmple.o ABSOLUTE
    dc.s                                     0x00000000   Number         0  dc.o ABSOLUTE
    handlers.s                               0x00000000   Number         0  handlers.o ABSOLUTE
    init.s                                   0x00000000   Number         0  init.o ABSOLUTE
    startup_stm32f407xx.s                    0x00000000   Number         0  startup_stm32f407xx.o ABSOLUTE
    RESET                                    0x08000000   Section      392  startup_stm32f407xx.o(RESET)
    .ARM.Collect$$$$00000000                 0x08000188   Section        0  entry.o(.ARM.Collect$$$$00000000)
    .ARM.Collect$$$$00000001                 0x08000188   Section        4  entry2.o(.ARM.Collect$$$$00000001)
    .ARM.Collect$$$$00000004                 0x0800018c   Section        4  entry5.o(.ARM.Collect$$$$00000004)
    .ARM.Collect$$$$00000008                 0x08000190   Section        0  entry7b.o(.ARM.Collect$$$$00000008)
    .ARM.Collect$$$$0000000A                 0x08000190   Section        0  entry8b.o(.ARM.Collect$$$$0000000A)
    .ARM.Collect$$$$0000000B                 0x08000190   Section        8  entry9a.o(.ARM.Collect$$$$0000000B)
    .ARM.Collect$$$$0000000D                 0x08000198   Section        0  entry10a.o(.ARM.Collect$$$$0000000D)
    .ARM.Collect$$$$0000000F                 0x08000198   Section        0  entry11a.o(.ARM.Collect$$$$0000000F)
    .ARM.Collect$$$$00002712                 0x08000198   Section        4  entry2.o(.ARM.Collect$$$$00002712)
    __lit__00000000                          0x08000198   Data           4  entry2.o(.ARM.Collect$$$$00002712)
    .text                                    0x0800019c   Section       36  startup_stm32f407xx.o(.text)
    $v0                                      0x0800019c   Number         0  startup_stm32f407xx.o(.text)
    .text                                    0x080001c0   Section     4576  cr4_fft_1024_stm32.o(.text)
    $v0                                      0x080001c0   Number         0  cr4_fft_1024_stm32.o(.text)
    .text                                    0x080013a0   Section        0  uldiv.o(.text)
    .text                                    0x08001402   Section        0  memseta.o(.text)
    .text                                    0x08001426   Section        0  dadd.o(.text)
    .text                                    0x08001574   Section        0  dmul.o(.text)
    .text                                    0x08001658   Section        0  ddiv.o(.text)
    .text                                    0x08001736   Section        0  dfltui.o(.text)
    .text                                    0x08001750   Section        0  dfixi.o(.text)
    .text                                    0x0800178e   Section        0  f2d.o(.text)
    .text                                    0x080017b4   Section       48  cdcmple.o(.text)
    .text                                    0x080017e4   Section        0  d2f.o(.text)
    .text                                    0x0800181c   Section        0  uidiv.o(.text)
    .text                                    0x08001848   Section        0  llshl.o(.text)
    .text                                    0x08001866   Section        0  llushr.o(.text)
    .text                                    0x08001886   Section        0  llsshr.o(.text)
    .text                                    0x080018aa   Section        0  fepilogue.o(.text)
    .text                                    0x080018aa   Section        0  iusefp.o(.text)
    .text                                    0x08001918   Section        0  depilogue.o(.text)
    .text                                    0x080019d2   Section        0  dsqrt.o(.text)
    .text                                    0x08001a74   Section        0  dfixul.o(.text)
    .text                                    0x08001aa4   Section       48  cdrcmple.o(.text)
    .text                                    0x08001ad4   Section       36  init.o(.text)
    .text                                    0x08001af8   Section        0  dflti.o(.text)
    i.ADC_DMAConvCplt                        0x08001b1a   Section        0  stm32f4xx_hal_adc.o(i.ADC_DMAConvCplt)
    ADC_DMAConvCplt                          0x08001b1b   Thumb Code   110  stm32f4xx_hal_adc.o(i.ADC_DMAConvCplt)
    i.ADC_DMAError                           0x08001b88   Section        0  stm32f4xx_hal_adc.o(i.ADC_DMAError)
    ADC_DMAError                             0x08001b89   Thumb Code    22  stm32f4xx_hal_adc.o(i.ADC_DMAError)
    i.ADC_DMAHalfConvCplt                    0x08001b9e   Section        0  stm32f4xx_hal_adc.o(i.ADC_DMAHalfConvCplt)
    ADC_DMAHalfConvCplt                      0x08001b9f   Thumb Code    10  stm32f4xx_hal_adc.o(i.ADC_DMAHalfConvCplt)
    i.ADC_Init                               0x08001ba8   Section        0  stm32f4xx_hal_adc.o(i.ADC_Init)
    ADC_Init                                 0x08001ba9   Thumb Code   284  stm32f4xx_hal_adc.o(i.ADC_Init)
    i.BusFault_Handler                       0x08001cd0   Section        0  stm32f4xx_it.o(i.BusFault_Handler)
    i.DMA2_Stream0_IRQHandler                0x08001cd4   Section        0  stm32f4xx_it.o(i.DMA2_Stream0_IRQHandler)
    i.DMA_CalcBaseAndBitshift                0x08001e30   Section        0  stm32f4xx_hal_dma.o(i.DMA_CalcBaseAndBitshift)
    DMA_CalcBaseAndBitshift                  0x08001e31   Thumb Code    34  stm32f4xx_hal_dma.o(i.DMA_CalcBaseAndBitshift)
    i.DMA_CheckFifoParam                     0x08001e58   Section        0  stm32f4xx_hal_dma.o(i.DMA_CheckFifoParam)
    DMA_CheckFifoParam                       0x08001e59   Thumb Code    84  stm32f4xx_hal_dma.o(i.DMA_CheckFifoParam)
    i.DMA_SetConfig                          0x08001eac   Section        0  stm32f4xx_hal_dma.o(i.DMA_SetConfig)
    DMA_SetConfig                            0x08001ead   Thumb Code    40  stm32f4xx_hal_dma.o(i.DMA_SetConfig)
    i.DebugMon_Handler                       0x08001ed4   Section        0  stm32f4xx_it.o(i.DebugMon_Handler)
    i.DrawWave                               0x08001ed8   Section        0  lcd.o(i.DrawWave)
    i.DrawWaveZone                           0x08001fb4   Section        0  lcd.o(i.DrawWaveZone)
    i.Error_Handler                          0x080024a8   Section        0  main.o(i.Error_Handler)
    i.FFT_TEXT                               0x080024ac   Section        0  fft256.o(i.FFT_TEXT)
    i.FLASH_Erase_Sector                     0x0800264c   Section        0  stm32f4xx_hal_flash_ex.o(i.FLASH_Erase_Sector)
    i.FLASH_FlushCaches                      0x0800269c   Section        0  stm32f4xx_hal_flash_ex.o(i.FLASH_FlushCaches)
    i.FLASH_MassErase                        0x080026f0   Section        0  stm32f4xx_hal_flash_ex.o(i.FLASH_MassErase)
    FLASH_MassErase                          0x080026f1   Thumb Code    34  stm32f4xx_hal_flash_ex.o(i.FLASH_MassErase)
    i.FLASH_Program_Byte                     0x08002718   Section        0  stm32f4xx_hal_flash.o(i.FLASH_Program_Byte)
    FLASH_Program_Byte                       0x08002719   Thumb Code    26  stm32f4xx_hal_flash.o(i.FLASH_Program_Byte)
    i.FLASH_Program_DoubleWord               0x08002738   Section        0  stm32f4xx_hal_flash.o(i.FLASH_Program_DoubleWord)
    FLASH_Program_DoubleWord                 0x08002739   Thumb Code    38  stm32f4xx_hal_flash.o(i.FLASH_Program_DoubleWord)
    i.FLASH_Program_HalfWord                 0x08002764   Section        0  stm32f4xx_hal_flash.o(i.FLASH_Program_HalfWord)
    FLASH_Program_HalfWord                   0x08002765   Thumb Code    30  stm32f4xx_hal_flash.o(i.FLASH_Program_HalfWord)
    i.FLASH_Program_Word                     0x08002788   Section        0  stm32f4xx_hal_flash.o(i.FLASH_Program_Word)
    FLASH_Program_Word                       0x08002789   Thumb Code    30  stm32f4xx_hal_flash.o(i.FLASH_Program_Word)
    i.FLASH_SetErrorCode                     0x080027ac   Section        0  stm32f4xx_hal_flash.o(i.FLASH_SetErrorCode)
    FLASH_SetErrorCode                       0x080027ad   Thumb Code    96  stm32f4xx_hal_flash.o(i.FLASH_SetErrorCode)
    i.FLASH_WaitForLastOperation             0x08002814   Section        0  stm32f4xx_hal_flash.o(i.FLASH_WaitForLastOperation)
    i.FSMC_NORSRAM_Extended_Timing_Init      0x08002864   Section        0  stm32f4xx_ll_fsmc.o(i.FSMC_NORSRAM_Extended_Timing_Init)
    i.FSMC_NORSRAM_Init                      0x080028a4   Section        0  stm32f4xx_ll_fsmc.o(i.FSMC_NORSRAM_Init)
    i.FSMC_NORSRAM_Timing_Init               0x080028f8   Section        0  stm32f4xx_ll_fsmc.o(i.FSMC_NORSRAM_Timing_Init)
    i.HAL_ADC_ConfigChannel                  0x0800293c   Section        0  stm32f4xx_hal_adc.o(i.HAL_ADC_ConfigChannel)
    i.HAL_ADC_ConvCpltCallback               0x08002a88   Section        0  stm32f4xx_hal_adc.o(i.HAL_ADC_ConvCpltCallback)
    i.HAL_ADC_ConvHalfCpltCallback           0x08002a8a   Section        0  stm32f4xx_hal_adc.o(i.HAL_ADC_ConvHalfCpltCallback)
    i.HAL_ADC_ErrorCallback                  0x08002a8c   Section        0  stm32f4xx_hal_adc.o(i.HAL_ADC_ErrorCallback)
    i.HAL_ADC_Init                           0x08002a8e   Section        0  stm32f4xx_hal_adc.o(i.HAL_ADC_Init)
    i.HAL_ADC_MspInit                        0x08002ae4   Section        0  adc.o(i.HAL_ADC_MspInit)
    i.HAL_ADC_Start_DMA                      0x08002b7c   Section        0  stm32f4xx_hal_adc.o(i.HAL_ADC_Start_DMA)
    i.HAL_ADC_Stop_DMA                       0x08002cd0   Section        0  stm32f4xx_hal_adc.o(i.HAL_ADC_Stop_DMA)
    i.HAL_DMA_Abort                          0x08002d3c   Section        0  stm32f4xx_hal_dma.o(i.HAL_DMA_Abort)
    i.HAL_DMA_IRQHandler                     0x08002dcc   Section        0  stm32f4xx_hal_dma.o(i.HAL_DMA_IRQHandler)
    i.HAL_DMA_Init                           0x08002f6c   Section        0  stm32f4xx_hal_dma.o(i.HAL_DMA_Init)
    i.HAL_DMA_Start_IT                       0x08003040   Section        0  stm32f4xx_hal_dma.o(i.HAL_DMA_Start_IT)
    i.HAL_Delay                              0x080030b0   Section        0  stm32f4xx_hal.o(i.HAL_Delay)
    i.HAL_FLASHEx_Erase                      0x080030d4   Section        0  stm32f4xx_hal_flash_ex.o(i.HAL_FLASHEx_Erase)
    i.HAL_FLASH_Lock                         0x0800316c   Section        0  stm32f4xx_hal_flash.o(i.HAL_FLASH_Lock)
    i.HAL_FLASH_Program                      0x08003180   Section        0  stm32f4xx_hal_flash.o(i.HAL_FLASH_Program)
    i.HAL_FLASH_Unlock                       0x080031fc   Section        0  stm32f4xx_hal_flash.o(i.HAL_FLASH_Unlock)
    i.HAL_FSMC_MspInit                       0x08003228   Section        0  fsmc.o(i.HAL_FSMC_MspInit)
    HAL_FSMC_MspInit                         0x08003229   Thumb Code   142  fsmc.o(i.HAL_FSMC_MspInit)
    i.HAL_GPIO_Init                          0x080032d0   Section        0  stm32f4xx_hal_gpio.o(i.HAL_GPIO_Init)
    i.HAL_GPIO_ReadPin                       0x080034bc   Section        0  stm32f4xx_hal_gpio.o(i.HAL_GPIO_ReadPin)
    i.HAL_GPIO_TogglePin                     0x080034c6   Section        0  stm32f4xx_hal_gpio.o(i.HAL_GPIO_TogglePin)
    i.HAL_GPIO_WritePin                      0x080034d6   Section        0  stm32f4xx_hal_gpio.o(i.HAL_GPIO_WritePin)
    i.HAL_GetTick                            0x080034e0   Section        0  stm32f4xx_hal.o(i.HAL_GetTick)
    i.HAL_IncTick                            0x080034ec   Section        0  stm32f4xx_hal.o(i.HAL_IncTick)
    i.HAL_Init                               0x080034fc   Section        0  stm32f4xx_hal.o(i.HAL_Init)
    i.HAL_InitTick                           0x08003530   Section        0  stm32f4xx_hal.o(i.HAL_InitTick)
    i.HAL_MspInit                            0x08003570   Section        0  stm32f4xx_hal_msp.o(i.HAL_MspInit)
    i.HAL_NVIC_EnableIRQ                     0x080035a0   Section        0  stm32f4xx_hal_cortex.o(i.HAL_NVIC_EnableIRQ)
    i.HAL_NVIC_SetPriority                   0x080035bc   Section        0  stm32f4xx_hal_cortex.o(i.HAL_NVIC_SetPriority)
    i.HAL_NVIC_SetPriorityGrouping           0x080035fc   Section        0  stm32f4xx_hal_cortex.o(i.HAL_NVIC_SetPriorityGrouping)
    i.HAL_RCC_ClockConfig                    0x08003620   Section        0  stm32f4xx_hal_rcc.o(i.HAL_RCC_ClockConfig)
    i.HAL_RCC_GetPCLK1Freq                   0x08003754   Section        0  stm32f4xx_hal_rcc.o(i.HAL_RCC_GetPCLK1Freq)
    i.HAL_RCC_GetPCLK2Freq                   0x08003774   Section        0  stm32f4xx_hal_rcc.o(i.HAL_RCC_GetPCLK2Freq)
    i.HAL_RCC_GetSysClockFreq                0x08003794   Section        0  stm32f4xx_hal_rcc.o(i.HAL_RCC_GetSysClockFreq)
    i.HAL_RCC_OscConfig                      0x080037f8   Section        0  stm32f4xx_hal_rcc.o(i.HAL_RCC_OscConfig)
    i.HAL_SRAM_Init                          0x08003b64   Section        0  stm32f4xx_hal_sram.o(i.HAL_SRAM_Init)
    i.HAL_SRAM_MspInit                       0x08003bba   Section        0  fsmc.o(i.HAL_SRAM_MspInit)
    i.HAL_SYSTICK_Config                     0x08003bbe   Section        0  stm32f4xx_hal_cortex.o(i.HAL_SYSTICK_Config)
    i.HAL_TIMEx_BreakCallback                0x08003be6   Section        0  stm32f4xx_hal_tim_ex.o(i.HAL_TIMEx_BreakCallback)
    i.HAL_TIMEx_CommutCallback               0x08003be8   Section        0  stm32f4xx_hal_tim_ex.o(i.HAL_TIMEx_CommutCallback)
    i.HAL_TIMEx_MasterConfigSynchronization  0x08003bec   Section        0  stm32f4xx_hal_tim_ex.o(i.HAL_TIMEx_MasterConfigSynchronization)
    i.HAL_TIM_Base_Init                      0x08003c7c   Section        0  stm32f4xx_hal_tim.o(i.HAL_TIM_Base_Init)
    i.HAL_TIM_Base_MspInit                   0x08003cd8   Section        0  tim.o(i.HAL_TIM_Base_MspInit)
    i.HAL_TIM_Base_Start                     0x08003df8   Section        0  stm32f4xx_hal_tim.o(i.HAL_TIM_Base_Start)
    i.HAL_TIM_Base_Start_IT                  0x08003e70   Section        0  stm32f4xx_hal_tim.o(i.HAL_TIM_Base_Start_IT)
    i.HAL_TIM_ConfigClockSource              0x08003ef0   Section        0  stm32f4xx_hal_tim.o(i.HAL_TIM_ConfigClockSource)
    i.HAL_TIM_IC_CaptureCallback             0x08003fc6   Section        0  tim.o(i.HAL_TIM_IC_CaptureCallback)
    i.HAL_TIM_IC_ConfigChannel               0x08003fc8   Section        0  stm32f4xx_hal_tim.o(i.HAL_TIM_IC_ConfigChannel)
    i.HAL_TIM_IC_Init                        0x080040d6   Section        0  stm32f4xx_hal_tim.o(i.HAL_TIM_IC_Init)
    i.HAL_TIM_IC_MspInit                     0x08004130   Section        0  stm32f4xx_hal_tim.o(i.HAL_TIM_IC_MspInit)
    i.HAL_TIM_IC_Start_IT                    0x08004134   Section        0  stm32f4xx_hal_tim.o(i.HAL_TIM_IC_Start_IT)
    i.HAL_TIM_IRQHandler                     0x0800423c   Section        0  stm32f4xx_hal_tim.o(i.HAL_TIM_IRQHandler)
    i.HAL_TIM_MspPostInit                    0x080043a4   Section        0  tim.o(i.HAL_TIM_MspPostInit)
    i.HAL_TIM_OC_DelayElapsedCallback        0x080043f4   Section        0  stm32f4xx_hal_tim.o(i.HAL_TIM_OC_DelayElapsedCallback)
    i.HAL_TIM_PWM_ConfigChannel              0x080043f6   Section        0  stm32f4xx_hal_tim.o(i.HAL_TIM_PWM_ConfigChannel)
    i.HAL_TIM_PWM_Init                       0x080044bc   Section        0  stm32f4xx_hal_tim.o(i.HAL_TIM_PWM_Init)
    i.HAL_TIM_PWM_MspInit                    0x08004516   Section        0  stm32f4xx_hal_tim.o(i.HAL_TIM_PWM_MspInit)
    i.HAL_TIM_PWM_PulseFinishedCallback      0x08004518   Section        0  stm32f4xx_hal_tim.o(i.HAL_TIM_PWM_PulseFinishedCallback)
    i.HAL_TIM_PWM_Start                      0x0800451c   Section        0  stm32f4xx_hal_tim.o(i.HAL_TIM_PWM_Start)
    i.HAL_TIM_PeriodElapsedCallback          0x080045e4   Section        0  tim.o(i.HAL_TIM_PeriodElapsedCallback)
    i.HAL_TIM_TriggerCallback                0x080045e6   Section        0  stm32f4xx_hal_tim.o(i.HAL_TIM_TriggerCallback)
    i.HAL_UART_Init                          0x080045e8   Section        0  stm32f4xx_hal_uart.o(i.HAL_UART_Init)
    i.HAL_UART_MspInit                       0x0800464c   Section        0  usart.o(i.HAL_UART_MspInit)
    i.HAL_UART_Transmit                      0x080046b8   Section        0  stm32f4xx_hal_uart.o(i.HAL_UART_Transmit)
    i.HardFault_Handler                      0x0800476a   Section        0  stm32f4xx_it.o(i.HardFault_Handler)
    i.KEY_Scan                               0x0800476c   Section        0  key.o(i.KEY_Scan)
    i.LCD_Clear                              0x08004818   Section        0  lcd.o(i.LCD_Clear)
    i.LCD_Display_Dir                        0x0800484c   Section        0  lcd.o(i.LCD_Display_Dir)
    i.LCD_DrawLine                           0x080048c0   Section        0  lcd.o(i.LCD_DrawLine)
    i.LCD_DrawPoint                          0x0800495c   Section        0  lcd.o(i.LCD_DrawPoint)
    i.LCD_Fast_DrawPoint                     0x08004978   Section        0  lcd.o(i.LCD_Fast_DrawPoint)
    i.LCD_Init                               0x080049c8   Section        0  lcd.o(i.LCD_Init)
    i.LCD_RD_DATA                            0x08004d48   Section        0  lcd.o(i.LCD_RD_DATA)
    i.LCD_Scan_Dir                           0x08004d5c   Section        0  lcd.o(i.LCD_Scan_Dir)
    i.LCD_SetCursor                          0x08004f14   Section        0  lcd.o(i.LCD_SetCursor)
    i.LCD_ShowChar                           0x08005018   Section        0  lcd.o(i.LCD_ShowChar)
    i.LCD_ShowString                         0x080050fc   Section        0  lcd.o(i.LCD_ShowString)
    i.LCD_WR_DATA                            0x08005150   Section        0  lcd.o(i.LCD_WR_DATA)
    i.LCD_WR_REG                             0x08005168   Section        0  lcd.o(i.LCD_WR_REG)
    i.LCD_WriteRAM_Prepare                   0x08005180   Section        0  lcd.o(i.LCD_WriteRAM_Prepare)
    i.LCD_WriteReg                           0x08005194   Section        0  lcd.o(i.LCD_WriteReg)
    i.MX_ADC1_Init                           0x080051a0   Section        0  adc.o(i.MX_ADC1_Init)
    i.MX_DMA_Init                            0x08005200   Section        0  dma.o(i.MX_DMA_Init)
    i.MX_FSMC_Init                           0x0800522c   Section        0  fsmc.o(i.MX_FSMC_Init)
    i.MX_GPIO_Init                           0x080052b4   Section        0  gpio.o(i.MX_GPIO_Init)
    i.MX_TIM12_Init                          0x080053b4   Section        0  tim.o(i.MX_TIM12_Init)
    i.MX_TIM2_Init                           0x08005400   Section        0  tim.o(i.MX_TIM2_Init)
    i.MX_TIM3_Init                           0x0800549c   Section        0  tim.o(i.MX_TIM3_Init)
    i.MX_TIM4_Init                           0x08005504   Section        0  tim.o(i.MX_TIM4_Init)
    i.MX_TIM5_Init                           0x0800559c   Section        0  tim.o(i.MX_TIM5_Init)
    i.MX_TIM8_Init                           0x08005608   Section        0  tim.o(i.MX_TIM8_Init)
    i.MX_USART1_UART_Init                    0x08005674   Section        0  usart.o(i.MX_USART1_UART_Init)
    i.Mag_tranf                              0x080056ac   Section        0  fft256.o(i.Mag_tranf)
    i.MemManage_Handler                      0x08005774   Section        0  stm32f4xx_it.o(i.MemManage_Handler)
    i.NMI_Handler                            0x08005776   Section        0  stm32f4xx_it.o(i.NMI_Handler)
    i.PendSV_Handler                         0x08005778   Section        0  stm32f4xx_it.o(i.PendSV_Handler)
    i.STMFLASH_GetFlashSector                0x0800577c   Section        0  stmflash.o(i.STMFLASH_GetFlashSector)
    i.STMFLASH_Read                          0x0800581c   Section        0  stmflash.o(i.STMFLASH_Read)
    i.STMFLASH_Write                         0x08005830   Section        0  stmflash.o(i.STMFLASH_Write)
    i.SVC_Handler                            0x080058c8   Section        0  stm32f4xx_it.o(i.SVC_Handler)
    i.SysTick_Handler                        0x080058ca   Section        0  stm32f4xx_it.o(i.SysTick_Handler)
    i.SystemClock_Config                     0x080058d0   Section        0  main.o(i.SystemClock_Config)
    i.SystemInit                             0x08005964   Section        0  system_stm32f4xx.o(i.SystemInit)
    i.THD_Cal                                0x08005974   Section        0  fft256.o(i.THD_Cal)
    i.TIM3_IRQHandler                        0x08005a34   Section        0  stm32f4xx_it.o(i.TIM3_IRQHandler)
    i.TIM4_IRQHandler                        0x08005a40   Section        0  stm32f4xx_it.o(i.TIM4_IRQHandler)
    i.TIM5_IRQHandler                        0x08005a58   Section        0  stm32f4xx_it.o(i.TIM5_IRQHandler)
    i.TIM8_BRK_TIM12_IRQHandler              0x08005a8c   Section        0  stm32f4xx_it.o(i.TIM8_BRK_TIM12_IRQHandler)
    i.TIM_Base_SetConfig                     0x08005bac   Section        0  stm32f4xx_hal_tim.o(i.TIM_Base_SetConfig)
    i.TIM_CCxChannelCmd                      0x08005c74   Section        0  stm32f4xx_hal_tim.o(i.TIM_CCxChannelCmd)
    i.TIM_ETR_SetConfig                      0x08005c8e   Section        0  stm32f4xx_hal_tim.o(i.TIM_ETR_SetConfig)
    i.TIM_ITRx_SetConfig                     0x08005ca2   Section        0  stm32f4xx_hal_tim.o(i.TIM_ITRx_SetConfig)
    TIM_ITRx_SetConfig                       0x08005ca3   Thumb Code    16  stm32f4xx_hal_tim.o(i.TIM_ITRx_SetConfig)
    i.TIM_OC1_SetConfig                      0x08005cb4   Section        0  stm32f4xx_hal_tim.o(i.TIM_OC1_SetConfig)
    TIM_OC1_SetConfig                        0x08005cb5   Thumb Code    88  stm32f4xx_hal_tim.o(i.TIM_OC1_SetConfig)
    i.TIM_OC2_SetConfig                      0x08005d14   Section        0  stm32f4xx_hal_tim.o(i.TIM_OC2_SetConfig)
    i.TIM_OC3_SetConfig                      0x08005d80   Section        0  stm32f4xx_hal_tim.o(i.TIM_OC3_SetConfig)
    TIM_OC3_SetConfig                        0x08005d81   Thumb Code    96  stm32f4xx_hal_tim.o(i.TIM_OC3_SetConfig)
    i.TIM_OC4_SetConfig                      0x08005de8   Section        0  stm32f4xx_hal_tim.o(i.TIM_OC4_SetConfig)
    TIM_OC4_SetConfig                        0x08005de9   Thumb Code    70  stm32f4xx_hal_tim.o(i.TIM_OC4_SetConfig)
    i.TIM_TI1_ConfigInputStage               0x08005e38   Section        0  stm32f4xx_hal_tim.o(i.TIM_TI1_ConfigInputStage)
    TIM_TI1_ConfigInputStage                 0x08005e39   Thumb Code    34  stm32f4xx_hal_tim.o(i.TIM_TI1_ConfigInputStage)
    i.TIM_TI1_SetConfig                      0x08005e5c   Section        0  stm32f4xx_hal_tim.o(i.TIM_TI1_SetConfig)
    i.TIM_TI2_ConfigInputStage               0x08005edc   Section        0  stm32f4xx_hal_tim.o(i.TIM_TI2_ConfigInputStage)
    TIM_TI2_ConfigInputStage                 0x08005edd   Thumb Code    36  stm32f4xx_hal_tim.o(i.TIM_TI2_ConfigInputStage)
    i.TIM_TI2_SetConfig                      0x08005f00   Section        0  stm32f4xx_hal_tim.o(i.TIM_TI2_SetConfig)
    TIM_TI2_SetConfig                        0x08005f01   Thumb Code    54  stm32f4xx_hal_tim.o(i.TIM_TI2_SetConfig)
    i.UART_SetConfig                         0x08005f38   Section        0  stm32f4xx_hal_uart.o(i.UART_SetConfig)
    UART_SetConfig                           0x08005f39   Thumb Code   258  stm32f4xx_hal_uart.o(i.UART_SetConfig)
    i.UART_WaitOnFlagUntilTimeout            0x08006044   Section        0  stm32f4xx_hal_uart.o(i.UART_WaitOnFlagUntilTimeout)
    UART_WaitOnFlagUntilTimeout              0x08006045   Thumb Code   100  stm32f4xx_hal_uart.o(i.UART_WaitOnFlagUntilTimeout)
    i.UsageFault_Handler                     0x080060a8   Section        0  stm32f4xx_it.o(i.UsageFault_Handler)
    i.Wipe                                   0x080060ac   Section        0  lcd.o(i.Wipe)
    i.__0printf                              0x08006138   Section        0  printfa.o(i.__0printf)
    i.__ARM_fpclassify                       0x08006158   Section        0  fpclassify.o(i.__ARM_fpclassify)
    i.__NVIC_SetPriority                     0x08006188   Section        0  stm32f4xx_hal_cortex.o(i.__NVIC_SetPriority)
    __NVIC_SetPriority                       0x08006189   Thumb Code    32  stm32f4xx_hal_cortex.o(i.__NVIC_SetPriority)
    i.__hardfp_sin                           0x080061a8   Section        0  sin.o(i.__hardfp_sin)
    i.__hardfp_sqrt                          0x08006270   Section        0  sqrt.o(i.__hardfp_sqrt)
    i.__ieee754_rem_pio2                     0x080062f0   Section        0  rred.o(i.__ieee754_rem_pio2)
    i.__kernel_cos                           0x08006728   Section        0  cos_i.o(i.__kernel_cos)
    i.__kernel_poly                          0x08006898   Section        0  poly.o(i.__kernel_poly)
    i.__kernel_sin                           0x08006990   Section        0  sin_i.o(i.__kernel_sin)
    i.__mathlib_dbl_infnan                   0x08006ac0   Section        0  dunder.o(i.__mathlib_dbl_infnan)
    i.__mathlib_dbl_invalid                  0x08006ad8   Section        0  dunder.o(i.__mathlib_dbl_invalid)
    i.__mathlib_dbl_underflow                0x08006af8   Section        0  dunder.o(i.__mathlib_dbl_underflow)
    i.__scatterload_copy                     0x08006b18   Section       14  handlers.o(i.__scatterload_copy)
    i.__scatterload_null                     0x08006b26   Section        2  handlers.o(i.__scatterload_null)
    i.__scatterload_zeroinit                 0x08006b28   Section       14  handlers.o(i.__scatterload_zeroinit)
    i.__set_errno                            0x08006b38   Section        0  errno.o(i.__set_errno)
    i._fp_digits                             0x08006b44   Section        0  printfa.o(i._fp_digits)
    _fp_digits                               0x08006b45   Thumb Code   366  printfa.o(i._fp_digits)
    i._printf_core                           0x08006cc8   Section        0  printfa.o(i._printf_core)
    _printf_core                             0x08006cc9   Thumb Code  1744  printfa.o(i._printf_core)
    i._printf_post_padding                   0x080073a4   Section        0  printfa.o(i._printf_post_padding)
    _printf_post_padding                     0x080073a5   Thumb Code    36  printfa.o(i._printf_post_padding)
    i._printf_pre_padding                    0x080073c8   Section        0  printfa.o(i._printf_pre_padding)
    _printf_pre_padding                      0x080073c9   Thumb Code    46  printfa.o(i._printf_pre_padding)
    i.allsystem_init                         0x080073f8   Section        0  main.o(i.allsystem_init)
    i.fabs                                   0x08007488   Section        0  fabs.o(i.fabs)
    i.fputc                                  0x080074a0   Section        0  usart.o(i.fputc)
    i.getFreq_fft                            0x080074b8   Section        0  fft256.o(i.getFreq_fft)
    i.lcd_line                               0x08007518   Section        0  lcd.o(i.lcd_line)
    i.main                                   0x080075d0   Section        0  main.o(i.main)
    .constdata                               0x080076a8   Section        8  stm32f4xx_hal_dma.o(.constdata)
    flagBitshiftOffset                       0x080076a8   Data           8  stm32f4xx_hal_dma.o(.constdata)
    .constdata                               0x080076b0   Section       16  system_stm32f4xx.o(.constdata)
    .constdata                               0x080076c0   Section        8  system_stm32f4xx.o(.constdata)
    .constdata                               0x080076c8   Section    18240  lcd.o(.constdata)
    .constdata                               0x0800be08   Section       48  cos_i.o(.constdata)
    C                                        0x0800be08   Data          48  cos_i.o(.constdata)
    .constdata                               0x0800be38   Section      200  rred.o(.constdata)
    pio2s                                    0x0800be38   Data          48  rred.o(.constdata)
    twooverpi                                0x0800be68   Data         152  rred.o(.constdata)
    .constdata                               0x0800bf00   Section       40  sin_i.o(.constdata)
    S                                        0x0800bf00   Data          40  sin_i.o(.constdata)
    .data                                    0x20000000   Section        4  main.o(.data)
    .data                                    0x20000004   Section        8  fsmc.o(.data)
    FSMC_Initialized                         0x20000004   Data           4  fsmc.o(.data)
    FSMC_DeInitialized                       0x20000008   Data           4  fsmc.o(.data)
    .data                                    0x2000000c   Section       12  stm32f4xx_it.o(.data)
    kkey                                     0x2000000c   Data           1  stm32f4xx_it.o(.data)
    .data                                    0x20000018   Section       12  stm32f4xx_hal.o(.data)
    .data                                    0x20000024   Section        4  system_stm32f4xx.o(.data)
    .data                                    0x20000028   Section        1  key.o(.data)
    key_up                                   0x20000028   Data           1  key.o(.data)
    .data                                    0x2000002c   Section       40  lcd.o(.data)
    .data                                    0x20000054   Section        4  stdout.o(.data)
    .data                                    0x20000058   Section        4  errno.o(.data)
    _errno                                   0x20000058   Data           4  errno.o(.data)
    .bss                                     0x2000005c   Section     4096  main.o(.bss)
    .bss                                     0x2000105c   Section      168  adc.o(.bss)
    .bss                                     0x20001104   Section       80  fsmc.o(.bss)
    .bss                                     0x20001154   Section      432  tim.o(.bss)
    .bss                                     0x20001304   Section       68  usart.o(.bss)
    .bss                                     0x20001348   Section      512  stm32f4xx_it.o(.bss)
    .bss                                     0x20001548   Section       32  stm32f4xx_hal_flash.o(.bss)
    .bss                                     0x20001568   Section     1116  lcd.o(.bss)
    .bss                                     0x200019c4   Section     8192  fft256.o(.bss)
    STACK                                    0x200039c8   Section     1024  startup_stm32f407xx.o(STACK)

    Global Symbols

    Symbol Name                              Value     Ov Type        Size  Object(Section)

    BuildAttributes$$THM_ISAv4$E$P$D$K$B$S$7EM$VFPi3$EXTD16$VFPS$VFMA$PE$A:L22UL41UL21$X:L11$S22US41US21$IEEE1$IW$USESV6$~STKCKD$USESV7$~SHL$OTIME$ROPI$IEEEX$EBA8$MICROLIB$REQ8$PRES8$EABIv2 0x00000000   Number         0  anon$$obj.o ABSOLUTE
    __ARM_use_no_argv                        0x00000000   Number         0  main.o ABSOLUTE
    _printf_a                                0x00000000   Number         0  stubs.o ABSOLUTE
    _printf_c                                0x00000000   Number         0  stubs.o ABSOLUTE
    _printf_charcount                        0x00000000   Number         0  stubs.o ABSOLUTE
    _printf_d                                0x00000000   Number         0  stubs.o ABSOLUTE
    _printf_e                                0x00000000   Number         0  stubs.o ABSOLUTE
    _printf_f                                0x00000000   Number         0  stubs.o ABSOLUTE
    _printf_flags                            0x00000000   Number         0  stubs.o ABSOLUTE
    _printf_fp_dec                           0x00000000   Number         0  stubs.o ABSOLUTE
    _printf_fp_hex                           0x00000000   Number         0  stubs.o ABSOLUTE
    _printf_g                                0x00000000   Number         0  stubs.o ABSOLUTE
    _printf_i                                0x00000000   Number         0  stubs.o ABSOLUTE
    _printf_int_dec                          0x00000000   Number         0  stubs.o ABSOLUTE
    _printf_l                                0x00000000   Number         0  stubs.o ABSOLUTE
    _printf_lc                               0x00000000   Number         0  stubs.o ABSOLUTE
    _printf_ll                               0x00000000   Number         0  stubs.o ABSOLUTE
    _printf_lld                              0x00000000   Number         0  stubs.o ABSOLUTE
    _printf_lli                              0x00000000   Number         0  stubs.o ABSOLUTE
    _printf_llo                              0x00000000   Number         0  stubs.o ABSOLUTE
    _printf_llu                              0x00000000   Number         0  stubs.o ABSOLUTE
    _printf_llx                              0x00000000   Number         0  stubs.o ABSOLUTE
    _printf_longlong_dec                     0x00000000   Number         0  stubs.o ABSOLUTE
    _printf_longlong_hex                     0x00000000   Number         0  stubs.o ABSOLUTE
    _printf_longlong_oct                     0x00000000   Number         0  stubs.o ABSOLUTE
    _printf_ls                               0x00000000   Number         0  stubs.o ABSOLUTE
    _printf_mbtowc                           0x00000000   Number         0  stubs.o ABSOLUTE
    _printf_n                                0x00000000   Number         0  stubs.o ABSOLUTE
    _printf_o                                0x00000000   Number         0  stubs.o ABSOLUTE
    _printf_p                                0x00000000   Number         0  stubs.o ABSOLUTE
    _printf_percent                          0x00000000   Number         0  stubs.o ABSOLUTE
    _printf_pre_padding                      0x00000000   Number         0  stubs.o ABSOLUTE
    _printf_return_value                     0x00000000   Number         0  stubs.o ABSOLUTE
    _printf_s                                0x00000000   Number         0  stubs.o ABSOLUTE
    _printf_sizespec                         0x00000000   Number         0  stubs.o ABSOLUTE
    _printf_str                              0x00000000   Number         0  stubs.o ABSOLUTE
    _printf_truncate_signed                  0x00000000   Number         0  stubs.o ABSOLUTE
    _printf_truncate_unsigned                0x00000000   Number         0  stubs.o ABSOLUTE
    _printf_u                                0x00000000   Number         0  stubs.o ABSOLUTE
    _printf_wc                               0x00000000   Number         0  stubs.o ABSOLUTE
    _printf_wctomb                           0x00000000   Number         0  stubs.o ABSOLUTE
    _printf_widthprec                        0x00000000   Number         0  stubs.o ABSOLUTE
    _printf_x                                0x00000000   Number         0  stubs.o ABSOLUTE
    __cpp_initialize__aeabi_                  - Undefined Weak Reference
    __cxa_finalize                            - Undefined Weak Reference
    __decompress                              - Undefined Weak Reference
    _clock_init                               - Undefined Weak Reference
    _microlib_exit                            - Undefined Weak Reference
    __Vectors_Size                           0x00000188   Number         0  startup_stm32f407xx.o ABSOLUTE
    __Vectors                                0x08000000   Data           4  startup_stm32f407xx.o(RESET)
    __Vectors_End                            0x08000188   Data           0  startup_stm32f407xx.o(RESET)
    __main                                   0x08000189   Thumb Code     0  entry.o(.ARM.Collect$$$$00000000)
    _main_stk                                0x08000189   Thumb Code     0  entry2.o(.ARM.Collect$$$$00000001)
    _main_scatterload                        0x0800018d   Thumb Code     0  entry5.o(.ARM.Collect$$$$00000004)
    __main_after_scatterload                 0x08000191   Thumb Code     0  entry5.o(.ARM.Collect$$$$00000004)
    _main_clock                              0x08000191   Thumb Code     0  entry7b.o(.ARM.Collect$$$$00000008)
    _main_cpp_init                           0x08000191   Thumb Code     0  entry8b.o(.ARM.Collect$$$$0000000A)
    _main_init                               0x08000191   Thumb Code     0  entry9a.o(.ARM.Collect$$$$0000000B)
    __rt_final_cpp                           0x08000199   Thumb Code     0  entry10a.o(.ARM.Collect$$$$0000000D)
    __rt_final_exit                          0x08000199   Thumb Code     0  entry11a.o(.ARM.Collect$$$$0000000F)
    Reset_Handler                            0x0800019d   Thumb Code     8  startup_stm32f407xx.o(.text)
    ADC_IRQHandler                           0x080001b7   Thumb Code     0  startup_stm32f407xx.o(.text)
    CAN1_RX0_IRQHandler                      0x080001b7   Thumb Code     0  startup_stm32f407xx.o(.text)
    CAN1_RX1_IRQHandler                      0x080001b7   Thumb Code     0  startup_stm32f407xx.o(.text)
    CAN1_SCE_IRQHandler                      0x080001b7   Thumb Code     0  startup_stm32f407xx.o(.text)
    CAN1_TX_IRQHandler                       0x080001b7   Thumb Code     0  startup_stm32f407xx.o(.text)
    CAN2_RX0_IRQHandler                      0x080001b7   Thumb Code     0  startup_stm32f407xx.o(.text)
    CAN2_RX1_IRQHandler                      0x080001b7   Thumb Code     0  startup_stm32f407xx.o(.text)
    CAN2_SCE_IRQHandler                      0x080001b7   Thumb Code     0  startup_stm32f407xx.o(.text)
    CAN2_TX_IRQHandler                       0x080001b7   Thumb Code     0  startup_stm32f407xx.o(.text)
    DCMI_IRQHandler                          0x080001b7   Thumb Code     0  startup_stm32f407xx.o(.text)
    DMA1_Stream0_IRQHandler                  0x080001b7   Thumb Code     0  startup_stm32f407xx.o(.text)
    DMA1_Stream1_IRQHandler                  0x080001b7   Thumb Code     0  startup_stm32f407xx.o(.text)
    DMA1_Stream2_IRQHandler                  0x080001b7   Thumb Code     0  startup_stm32f407xx.o(.text)
    DMA1_Stream3_IRQHandler                  0x080001b7   Thumb Code     0  startup_stm32f407xx.o(.text)
    DMA1_Stream4_IRQHandler                  0x080001b7   Thumb Code     0  startup_stm32f407xx.o(.text)
    DMA1_Stream5_IRQHandler                  0x080001b7   Thumb Code     0  startup_stm32f407xx.o(.text)
    DMA1_Stream6_IRQHandler                  0x080001b7   Thumb Code     0  startup_stm32f407xx.o(.text)
    DMA1_Stream7_IRQHandler                  0x080001b7   Thumb Code     0  startup_stm32f407xx.o(.text)
    DMA2_Stream1_IRQHandler                  0x080001b7   Thumb Code     0  startup_stm32f407xx.o(.text)
    DMA2_Stream2_IRQHandler                  0x080001b7   Thumb Code     0  startup_stm32f407xx.o(.text)
    DMA2_Stream3_IRQHandler                  0x080001b7   Thumb Code     0  startup_stm32f407xx.o(.text)
    DMA2_Stream4_IRQHandler                  0x080001b7   Thumb Code     0  startup_stm32f407xx.o(.text)
    DMA2_Stream5_IRQHandler                  0x080001b7   Thumb Code     0  startup_stm32f407xx.o(.text)
    DMA2_Stream6_IRQHandler                  0x080001b7   Thumb Code     0  startup_stm32f407xx.o(.text)
    DMA2_Stream7_IRQHandler                  0x080001b7   Thumb Code     0  startup_stm32f407xx.o(.text)
    ETH_IRQHandler                           0x080001b7   Thumb Code     0  startup_stm32f407xx.o(.text)
    ETH_WKUP_IRQHandler                      0x080001b7   Thumb Code     0  startup_stm32f407xx.o(.text)
    EXTI0_IRQHandler                         0x080001b7   Thumb Code     0  startup_stm32f407xx.o(.text)
    EXTI15_10_IRQHandler                     0x080001b7   Thumb Code     0  startup_stm32f407xx.o(.text)
    EXTI1_IRQHandler                         0x080001b7   Thumb Code     0  startup_stm32f407xx.o(.text)
    EXTI2_IRQHandler                         0x080001b7   Thumb Code     0  startup_stm32f407xx.o(.text)
    EXTI3_IRQHandler                         0x080001b7   Thumb Code     0  startup_stm32f407xx.o(.text)
    EXTI4_IRQHandler                         0x080001b7   Thumb Code     0  startup_stm32f407xx.o(.text)
    EXTI9_5_IRQHandler                       0x080001b7   Thumb Code     0  startup_stm32f407xx.o(.text)
    FLASH_IRQHandler                         0x080001b7   Thumb Code     0  startup_stm32f407xx.o(.text)
    FMC_IRQHandler                           0x080001b7   Thumb Code     0  startup_stm32f407xx.o(.text)
    FPU_IRQHandler                           0x080001b7   Thumb Code     0  startup_stm32f407xx.o(.text)
    HASH_RNG_IRQHandler                      0x080001b7   Thumb Code     0  startup_stm32f407xx.o(.text)
    I2C1_ER_IRQHandler                       0x080001b7   Thumb Code     0  startup_stm32f407xx.o(.text)
    I2C1_EV_IRQHandler                       0x080001b7   Thumb Code     0  startup_stm32f407xx.o(.text)
    I2C2_ER_IRQHandler                       0x080001b7   Thumb Code     0  startup_stm32f407xx.o(.text)
    I2C2_EV_IRQHandler                       0x080001b7   Thumb Code     0  startup_stm32f407xx.o(.text)
    I2C3_ER_IRQHandler                       0x080001b7   Thumb Code     0  startup_stm32f407xx.o(.text)
    I2C3_EV_IRQHandler                       0x080001b7   Thumb Code     0  startup_stm32f407xx.o(.text)
    OTG_FS_IRQHandler                        0x080001b7   Thumb Code     0  startup_stm32f407xx.o(.text)
    OTG_FS_WKUP_IRQHandler                   0x080001b7   Thumb Code     0  startup_stm32f407xx.o(.text)
    OTG_HS_EP1_IN_IRQHandler                 0x080001b7   Thumb Code     0  startup_stm32f407xx.o(.text)
    OTG_HS_EP1_OUT_IRQHandler                0x080001b7   Thumb Code     0  startup_stm32f407xx.o(.text)
    OTG_HS_IRQHandler                        0x080001b7   Thumb Code     0  startup_stm32f407xx.o(.text)
    OTG_HS_WKUP_IRQHandler                   0x080001b7   Thumb Code     0  startup_stm32f407xx.o(.text)
    PVD_IRQHandler                           0x080001b7   Thumb Code     0  startup_stm32f407xx.o(.text)
    RCC_IRQHandler                           0x080001b7   Thumb Code     0  startup_stm32f407xx.o(.text)
    RTC_Alarm_IRQHandler                     0x080001b7   Thumb Code     0  startup_stm32f407xx.o(.text)
    RTC_WKUP_IRQHandler                      0x080001b7   Thumb Code     0  startup_stm32f407xx.o(.text)
    SDIO_IRQHandler                          0x080001b7   Thumb Code     0  startup_stm32f407xx.o(.text)
    SPI1_IRQHandler                          0x080001b7   Thumb Code     0  startup_stm32f407xx.o(.text)
    SPI2_IRQHandler                          0x080001b7   Thumb Code     0  startup_stm32f407xx.o(.text)
    SPI3_IRQHandler                          0x080001b7   Thumb Code     0  startup_stm32f407xx.o(.text)
    TAMP_STAMP_IRQHandler                    0x080001b7   Thumb Code     0  startup_stm32f407xx.o(.text)
    TIM1_BRK_TIM9_IRQHandler                 0x080001b7   Thumb Code     0  startup_stm32f407xx.o(.text)
    TIM1_CC_IRQHandler                       0x080001b7   Thumb Code     0  startup_stm32f407xx.o(.text)
    TIM1_TRG_COM_TIM11_IRQHandler            0x080001b7   Thumb Code     0  startup_stm32f407xx.o(.text)
    TIM1_UP_TIM10_IRQHandler                 0x080001b7   Thumb Code     0  startup_stm32f407xx.o(.text)
    TIM2_IRQHandler                          0x080001b7   Thumb Code     0  startup_stm32f407xx.o(.text)
    TIM6_DAC_IRQHandler                      0x080001b7   Thumb Code     0  startup_stm32f407xx.o(.text)
    TIM7_IRQHandler                          0x080001b7   Thumb Code     0  startup_stm32f407xx.o(.text)
    TIM8_CC_IRQHandler                       0x080001b7   Thumb Code     0  startup_stm32f407xx.o(.text)
    TIM8_TRG_COM_TIM14_IRQHandler            0x080001b7   Thumb Code     0  startup_stm32f407xx.o(.text)
    TIM8_UP_TIM13_IRQHandler                 0x080001b7   Thumb Code     0  startup_stm32f407xx.o(.text)
    UART4_IRQHandler                         0x080001b7   Thumb Code     0  startup_stm32f407xx.o(.text)
    UART5_IRQHandler                         0x080001b7   Thumb Code     0  startup_stm32f407xx.o(.text)
    USART1_IRQHandler                        0x080001b7   Thumb Code     0  startup_stm32f407xx.o(.text)
    USART2_IRQHandler                        0x080001b7   Thumb Code     0  startup_stm32f407xx.o(.text)
    USART3_IRQHandler                        0x080001b7   Thumb Code     0  startup_stm32f407xx.o(.text)
    USART6_IRQHandler                        0x080001b7   Thumb Code     0  startup_stm32f407xx.o(.text)
    WWDG_IRQHandler                          0x080001b7   Thumb Code     0  startup_stm32f407xx.o(.text)
    cr4_fft_1024_stm32                       0x080001c1   Thumb Code     0  cr4_fft_1024_stm32.o(.text)
    __aeabi_uldivmod                         0x080013a1   Thumb Code    98  uldiv.o(.text)
    __aeabi_memset                           0x08001403   Thumb Code    14  memseta.o(.text)
    __aeabi_memset4                          0x08001403   Thumb Code     0  memseta.o(.text)
    __aeabi_memset8                          0x08001403   Thumb Code     0  memseta.o(.text)
    __aeabi_memclr                           0x08001411   Thumb Code     4  memseta.o(.text)
    __aeabi_memclr4                          0x08001411   Thumb Code     0  memseta.o(.text)
    __aeabi_memclr8                          0x08001411   Thumb Code     0  memseta.o(.text)
    _memset$wrapper                          0x08001415   Thumb Code    18  memseta.o(.text)
    __aeabi_dadd                             0x08001427   Thumb Code   322  dadd.o(.text)
    __aeabi_dsub                             0x08001569   Thumb Code     6  dadd.o(.text)
    __aeabi_drsub                            0x0800156f   Thumb Code     6  dadd.o(.text)
    __aeabi_dmul                             0x08001575   Thumb Code   228  dmul.o(.text)
    __aeabi_ddiv                             0x08001659   Thumb Code   222  ddiv.o(.text)
    __aeabi_ui2d                             0x08001737   Thumb Code    26  dfltui.o(.text)
    __aeabi_d2iz                             0x08001751   Thumb Code    62  dfixi.o(.text)
    __aeabi_f2d                              0x0800178f   Thumb Code    38  f2d.o(.text)
    __aeabi_cdcmpeq                          0x080017b5   Thumb Code     0  cdcmple.o(.text)
    __aeabi_cdcmple                          0x080017b5   Thumb Code    48  cdcmple.o(.text)
    __aeabi_d2f                              0x080017e5   Thumb Code    56  d2f.o(.text)
    __aeabi_uidiv                            0x0800181d   Thumb Code     0  uidiv.o(.text)
    __aeabi_uidivmod                         0x0800181d   Thumb Code    44  uidiv.o(.text)
    __aeabi_llsl                             0x08001849   Thumb Code    30  llshl.o(.text)
    _ll_shift_l                              0x08001849   Thumb Code     0  llshl.o(.text)
    __aeabi_llsr                             0x08001867   Thumb Code    32  llushr.o(.text)
    _ll_ushift_r                             0x08001867   Thumb Code     0  llushr.o(.text)
    __aeabi_lasr                             0x08001887   Thumb Code    36  llsshr.o(.text)
    _ll_sshift_r                             0x08001887   Thumb Code     0  llsshr.o(.text)
    __I$use$fp                               0x080018ab   Thumb Code     0  iusefp.o(.text)
    _float_round                             0x080018ab   Thumb Code    18  fepilogue.o(.text)
    _float_epilogue                          0x080018bd   Thumb Code    92  fepilogue.o(.text)
    _double_round                            0x08001919   Thumb Code    30  depilogue.o(.text)
    _double_epilogue                         0x08001937   Thumb Code   156  depilogue.o(.text)
    _dsqrt                                   0x080019d3   Thumb Code   162  dsqrt.o(.text)
    __aeabi_d2ulz                            0x08001a75   Thumb Code    48  dfixul.o(.text)
    __aeabi_cdrcmple                         0x08001aa5   Thumb Code    48  cdrcmple.o(.text)
    __scatterload                            0x08001ad5   Thumb Code    28  init.o(.text)
    __scatterload_rt2                        0x08001ad5   Thumb Code     0  init.o(.text)
    __aeabi_i2d                              0x08001af9   Thumb Code    34  dflti.o(.text)
    BusFault_Handler                         0x08001cd1   Thumb Code     2  stm32f4xx_it.o(i.BusFault_Handler)
    DMA2_Stream0_IRQHandler                  0x08001cd5   Thumb Code   194  stm32f4xx_it.o(i.DMA2_Stream0_IRQHandler)
    DebugMon_Handler                         0x08001ed5   Thumb Code     2  stm32f4xx_it.o(i.DebugMon_Handler)
    DrawWave                                 0x08001ed9   Thumb Code   176  lcd.o(i.DrawWave)
    DrawWaveZone                             0x08001fb5   Thumb Code  1084  lcd.o(i.DrawWaveZone)
    Error_Handler                            0x080024a9   Thumb Code     4  main.o(i.Error_Handler)
    FFT_TEXT                                 0x080024ad   Thumb Code   342  fft256.o(i.FFT_TEXT)
    FLASH_Erase_Sector                       0x0800264d   Thumb Code    74  stm32f4xx_hal_flash_ex.o(i.FLASH_Erase_Sector)
    FLASH_FlushCaches                        0x0800269d   Thumb Code    80  stm32f4xx_hal_flash_ex.o(i.FLASH_FlushCaches)
    FLASH_WaitForLastOperation               0x08002815   Thumb Code    72  stm32f4xx_hal_flash.o(i.FLASH_WaitForLastOperation)
    FSMC_NORSRAM_Extended_Timing_Init        0x08002865   Thumb Code    60  stm32f4xx_ll_fsmc.o(i.FSMC_NORSRAM_Extended_Timing_Init)
    FSMC_NORSRAM_Init                        0x080028a5   Thumb Code    80  stm32f4xx_ll_fsmc.o(i.FSMC_NORSRAM_Init)
    FSMC_NORSRAM_Timing_Init                 0x080028f9   Thumb Code    64  stm32f4xx_ll_fsmc.o(i.FSMC_NORSRAM_Timing_Init)
    HAL_ADC_ConfigChannel                    0x0800293d   Thumb Code   316  stm32f4xx_hal_adc.o(i.HAL_ADC_ConfigChannel)
    HAL_ADC_ConvCpltCallback                 0x08002a89   Thumb Code     2  stm32f4xx_hal_adc.o(i.HAL_ADC_ConvCpltCallback)
    HAL_ADC_ConvHalfCpltCallback             0x08002a8b   Thumb Code     2  stm32f4xx_hal_adc.o(i.HAL_ADC_ConvHalfCpltCallback)
    HAL_ADC_ErrorCallback                    0x08002a8d   Thumb Code     2  stm32f4xx_hal_adc.o(i.HAL_ADC_ErrorCallback)
    HAL_ADC_Init                             0x08002a8f   Thumb Code    84  stm32f4xx_hal_adc.o(i.HAL_ADC_Init)
    HAL_ADC_MspInit                          0x08002ae5   Thumb Code   130  adc.o(i.HAL_ADC_MspInit)
    HAL_ADC_Start_DMA                        0x08002b7d   Thumb Code   302  stm32f4xx_hal_adc.o(i.HAL_ADC_Start_DMA)
    HAL_ADC_Stop_DMA                         0x08002cd1   Thumb Code   108  stm32f4xx_hal_adc.o(i.HAL_ADC_Stop_DMA)
    HAL_DMA_Abort                            0x08002d3d   Thumb Code   142  stm32f4xx_hal_dma.o(i.HAL_DMA_Abort)
    HAL_DMA_IRQHandler                       0x08002dcd   Thumb Code   412  stm32f4xx_hal_dma.o(i.HAL_DMA_IRQHandler)
    HAL_DMA_Init                             0x08002f6d   Thumb Code   206  stm32f4xx_hal_dma.o(i.HAL_DMA_Init)
    HAL_DMA_Start_IT                         0x08003041   Thumb Code   110  stm32f4xx_hal_dma.o(i.HAL_DMA_Start_IT)
    HAL_Delay                                0x080030b1   Thumb Code    32  stm32f4xx_hal.o(i.HAL_Delay)
    HAL_FLASHEx_Erase                        0x080030d5   Thumb Code   144  stm32f4xx_hal_flash_ex.o(i.HAL_FLASHEx_Erase)
    HAL_FLASH_Lock                           0x0800316d   Thumb Code    14  stm32f4xx_hal_flash.o(i.HAL_FLASH_Lock)
    HAL_FLASH_Program                        0x08003181   Thumb Code   116  stm32f4xx_hal_flash.o(i.HAL_FLASH_Program)
    HAL_FLASH_Unlock                         0x080031fd   Thumb Code    32  stm32f4xx_hal_flash.o(i.HAL_FLASH_Unlock)
    HAL_GPIO_Init                            0x080032d1   Thumb Code   448  stm32f4xx_hal_gpio.o(i.HAL_GPIO_Init)
    HAL_GPIO_ReadPin                         0x080034bd   Thumb Code    10  stm32f4xx_hal_gpio.o(i.HAL_GPIO_ReadPin)
    HAL_GPIO_TogglePin                       0x080034c7   Thumb Code    16  stm32f4xx_hal_gpio.o(i.HAL_GPIO_TogglePin)
    HAL_GPIO_WritePin                        0x080034d7   Thumb Code    10  stm32f4xx_hal_gpio.o(i.HAL_GPIO_WritePin)
    HAL_GetTick                              0x080034e1   Thumb Code     6  stm32f4xx_hal.o(i.HAL_GetTick)
    HAL_IncTick                              0x080034ed   Thumb Code    12  stm32f4xx_hal.o(i.HAL_IncTick)
    HAL_Init                                 0x080034fd   Thumb Code    48  stm32f4xx_hal.o(i.HAL_Init)
    HAL_InitTick                             0x08003531   Thumb Code    54  stm32f4xx_hal.o(i.HAL_InitTick)
    HAL_MspInit                              0x08003571   Thumb Code    42  stm32f4xx_hal_msp.o(i.HAL_MspInit)
    HAL_NVIC_EnableIRQ                       0x080035a1   Thumb Code    26  stm32f4xx_hal_cortex.o(i.HAL_NVIC_EnableIRQ)
    HAL_NVIC_SetPriority                     0x080035bd   Thumb Code    60  stm32f4xx_hal_cortex.o(i.HAL_NVIC_SetPriority)
    HAL_NVIC_SetPriorityGrouping             0x080035fd   Thumb Code    26  stm32f4xx_hal_cortex.o(i.HAL_NVIC_SetPriorityGrouping)
    HAL_RCC_ClockConfig                      0x08003621   Thumb Code   288  stm32f4xx_hal_rcc.o(i.HAL_RCC_ClockConfig)
    HAL_RCC_GetPCLK1Freq                     0x08003755   Thumb Code    20  stm32f4xx_hal_rcc.o(i.HAL_RCC_GetPCLK1Freq)
    HAL_RCC_GetPCLK2Freq                     0x08003775   Thumb Code    20  stm32f4xx_hal_rcc.o(i.HAL_RCC_GetPCLK2Freq)
    HAL_RCC_GetSysClockFreq                  0x08003795   Thumb Code    88  stm32f4xx_hal_rcc.o(i.HAL_RCC_GetSysClockFreq)
    HAL_RCC_OscConfig                        0x080037f9   Thumb Code   856  stm32f4xx_hal_rcc.o(i.HAL_RCC_OscConfig)
    HAL_SRAM_Init                            0x08003b65   Thumb Code    86  stm32f4xx_hal_sram.o(i.HAL_SRAM_Init)
    HAL_SRAM_MspInit                         0x08003bbb   Thumb Code     4  fsmc.o(i.HAL_SRAM_MspInit)
    HAL_SYSTICK_Config                       0x08003bbf   Thumb Code    40  stm32f4xx_hal_cortex.o(i.HAL_SYSTICK_Config)
    HAL_TIMEx_BreakCallback                  0x08003be7   Thumb Code     2  stm32f4xx_hal_tim_ex.o(i.HAL_TIMEx_BreakCallback)
    HAL_TIMEx_CommutCallback                 0x08003be9   Thumb Code     2  stm32f4xx_hal_tim_ex.o(i.HAL_TIMEx_CommutCallback)
    HAL_TIMEx_MasterConfigSynchronization    0x08003bed   Thumb Code   116  stm32f4xx_hal_tim_ex.o(i.HAL_TIMEx_MasterConfigSynchronization)
    HAL_TIM_Base_Init                        0x08003c7d   Thumb Code    90  stm32f4xx_hal_tim.o(i.HAL_TIM_Base_Init)
    HAL_TIM_Base_MspInit                     0x08003cd9   Thumb Code   260  tim.o(i.HAL_TIM_Base_MspInit)
    HAL_TIM_Base_Start                       0x08003df9   Thumb Code    90  stm32f4xx_hal_tim.o(i.HAL_TIM_Base_Start)
    HAL_TIM_Base_Start_IT                    0x08003e71   Thumb Code   100  stm32f4xx_hal_tim.o(i.HAL_TIM_Base_Start_IT)
    HAL_TIM_ConfigClockSource                0x08003ef1   Thumb Code   214  stm32f4xx_hal_tim.o(i.HAL_TIM_ConfigClockSource)
    HAL_TIM_IC_CaptureCallback               0x08003fc7   Thumb Code     2  tim.o(i.HAL_TIM_IC_CaptureCallback)
    HAL_TIM_IC_ConfigChannel                 0x08003fc9   Thumb Code   270  stm32f4xx_hal_tim.o(i.HAL_TIM_IC_ConfigChannel)
    HAL_TIM_IC_Init                          0x080040d7   Thumb Code    90  stm32f4xx_hal_tim.o(i.HAL_TIM_IC_Init)
    HAL_TIM_IC_MspInit                       0x08004131   Thumb Code     2  stm32f4xx_hal_tim.o(i.HAL_TIM_IC_MspInit)
    HAL_TIM_IC_Start_IT                      0x08004135   Thumb Code   236  stm32f4xx_hal_tim.o(i.HAL_TIM_IC_Start_IT)
    HAL_TIM_IRQHandler                       0x0800423d   Thumb Code   358  stm32f4xx_hal_tim.o(i.HAL_TIM_IRQHandler)
    HAL_TIM_MspPostInit                      0x080043a5   Thumb Code    70  tim.o(i.HAL_TIM_MspPostInit)
    HAL_TIM_OC_DelayElapsedCallback          0x080043f5   Thumb Code     2  stm32f4xx_hal_tim.o(i.HAL_TIM_OC_DelayElapsedCallback)
    HAL_TIM_PWM_ConfigChannel                0x080043f7   Thumb Code   198  stm32f4xx_hal_tim.o(i.HAL_TIM_PWM_ConfigChannel)
    HAL_TIM_PWM_Init                         0x080044bd   Thumb Code    90  stm32f4xx_hal_tim.o(i.HAL_TIM_PWM_Init)
    HAL_TIM_PWM_MspInit                      0x08004517   Thumb Code     2  stm32f4xx_hal_tim.o(i.HAL_TIM_PWM_MspInit)
    HAL_TIM_PWM_PulseFinishedCallback        0x08004519   Thumb Code     2  stm32f4xx_hal_tim.o(i.HAL_TIM_PWM_PulseFinishedCallback)
    HAL_TIM_PWM_Start                        0x0800451d   Thumb Code   172  stm32f4xx_hal_tim.o(i.HAL_TIM_PWM_Start)
    HAL_TIM_PeriodElapsedCallback            0x080045e5   Thumb Code     2  tim.o(i.HAL_TIM_PeriodElapsedCallback)
    HAL_TIM_TriggerCallback                  0x080045e7   Thumb Code     2  stm32f4xx_hal_tim.o(i.HAL_TIM_TriggerCallback)
    HAL_UART_Init                            0x080045e9   Thumb Code    98  stm32f4xx_hal_uart.o(i.HAL_UART_Init)
    HAL_UART_MspInit                         0x0800464d   Thumb Code    94  usart.o(i.HAL_UART_MspInit)
    HAL_UART_Transmit                        0x080046b9   Thumb Code   178  stm32f4xx_hal_uart.o(i.HAL_UART_Transmit)
    HardFault_Handler                        0x0800476b   Thumb Code     2  stm32f4xx_it.o(i.HardFault_Handler)
    KEY_Scan                                 0x0800476d   Thumb Code   158  key.o(i.KEY_Scan)
    LCD_Clear                                0x08004819   Thumb Code    48  lcd.o(i.LCD_Clear)
    LCD_Display_Dir                          0x0800484d   Thumb Code   112  lcd.o(i.LCD_Display_Dir)
    LCD_DrawLine                             0x080048c1   Thumb Code   154  lcd.o(i.LCD_DrawLine)
    LCD_DrawPoint                            0x0800495d   Thumb Code    24  lcd.o(i.LCD_DrawPoint)
    LCD_Fast_DrawPoint                       0x08004979   Thumb Code    76  lcd.o(i.LCD_Fast_DrawPoint)
    LCD_Init                                 0x080049c9   Thumb Code   886  lcd.o(i.LCD_Init)
    LCD_RD_DATA                              0x08004d49   Thumb Code    20  lcd.o(i.LCD_RD_DATA)
    LCD_Scan_Dir                             0x08004d5d   Thumb Code   434  lcd.o(i.LCD_Scan_Dir)
    LCD_SetCursor                            0x08004f15   Thumb Code   254  lcd.o(i.LCD_SetCursor)
    LCD_ShowChar                             0x08005019   Thumb Code   204  lcd.o(i.LCD_ShowChar)
    LCD_ShowString                           0x080050fd   Thumb Code    84  lcd.o(i.LCD_ShowString)
    LCD_WR_DATA                              0x08005151   Thumb Code    24  lcd.o(i.LCD_WR_DATA)
    LCD_WR_REG                               0x08005169   Thumb Code    24  lcd.o(i.LCD_WR_REG)
    LCD_WriteRAM_Prepare                     0x08005181   Thumb Code    14  lcd.o(i.LCD_WriteRAM_Prepare)
    LCD_WriteReg                             0x08005195   Thumb Code    12  lcd.o(i.LCD_WriteReg)
    MX_ADC1_Init                             0x080051a1   Thumb Code    88  adc.o(i.MX_ADC1_Init)
    MX_DMA_Init                              0x08005201   Thumb Code    40  dma.o(i.MX_DMA_Init)
    MX_FSMC_Init                             0x0800522d   Thumb Code   128  fsmc.o(i.MX_FSMC_Init)
    MX_GPIO_Init                             0x080052b5   Thumb Code   238  gpio.o(i.MX_GPIO_Init)
    MX_TIM12_Init                            0x080053b5   Thumb Code    68  tim.o(i.MX_TIM12_Init)
    MX_TIM2_Init                             0x08005401   Thumb Code   150  tim.o(i.MX_TIM2_Init)
    MX_TIM3_Init                             0x0800549d   Thumb Code    96  tim.o(i.MX_TIM3_Init)
    MX_TIM4_Init                             0x08005505   Thumb Code   142  tim.o(i.MX_TIM4_Init)
    MX_TIM5_Init                             0x0800559d   Thumb Code    98  tim.o(i.MX_TIM5_Init)
    MX_TIM8_Init                             0x08005609   Thumb Code    98  tim.o(i.MX_TIM8_Init)
    MX_USART1_UART_Init                      0x08005675   Thumb Code    48  usart.o(i.MX_USART1_UART_Init)
    Mag_tranf                                0x080056ad   Thumb Code   172  fft256.o(i.Mag_tranf)
    MemManage_Handler                        0x08005775   Thumb Code     2  stm32f4xx_it.o(i.MemManage_Handler)
    NMI_Handler                              0x08005777   Thumb Code     2  stm32f4xx_it.o(i.NMI_Handler)
    PendSV_Handler                           0x08005779   Thumb Code     2  stm32f4xx_it.o(i.PendSV_Handler)
    STMFLASH_GetFlashSector                  0x0800577d   Thumb Code   114  stmflash.o(i.STMFLASH_GetFlashSector)
    STMFLASH_Read                            0x0800581d   Thumb Code    20  stmflash.o(i.STMFLASH_Read)
    STMFLASH_Write                           0x08005831   Thumb Code   146  stmflash.o(i.STMFLASH_Write)
    SVC_Handler                              0x080058c9   Thumb Code     2  stm32f4xx_it.o(i.SVC_Handler)
    SysTick_Handler                          0x080058cb   Thumb Code     4  stm32f4xx_it.o(i.SysTick_Handler)
    SystemClock_Config                       0x080058d1   Thumb Code   140  main.o(i.SystemClock_Config)
    SystemInit                               0x08005965   Thumb Code    12  system_stm32f4xx.o(i.SystemInit)
    THD_Cal                                  0x08005975   Thumb Code   164  fft256.o(i.THD_Cal)
    TIM3_IRQHandler                          0x08005a35   Thumb Code     6  stm32f4xx_it.o(i.TIM3_IRQHandler)
    TIM4_IRQHandler                          0x08005a41   Thumb Code    14  stm32f4xx_it.o(i.TIM4_IRQHandler)
    TIM5_IRQHandler                          0x08005a59   Thumb Code    38  stm32f4xx_it.o(i.TIM5_IRQHandler)
    TIM8_BRK_TIM12_IRQHandler                0x08005a8d   Thumb Code   204  stm32f4xx_it.o(i.TIM8_BRK_TIM12_IRQHandler)
    TIM_Base_SetConfig                       0x08005bad   Thumb Code   156  stm32f4xx_hal_tim.o(i.TIM_Base_SetConfig)
    TIM_CCxChannelCmd                        0x08005c75   Thumb Code    26  stm32f4xx_hal_tim.o(i.TIM_CCxChannelCmd)
    TIM_ETR_SetConfig                        0x08005c8f   Thumb Code    20  stm32f4xx_hal_tim.o(i.TIM_ETR_SetConfig)
    TIM_OC2_SetConfig                        0x08005d15   Thumb Code    98  stm32f4xx_hal_tim.o(i.TIM_OC2_SetConfig)
    TIM_TI1_SetConfig                        0x08005e5d   Thumb Code   100  stm32f4xx_hal_tim.o(i.TIM_TI1_SetConfig)
    UsageFault_Handler                       0x080060a9   Thumb Code     2  stm32f4xx_it.o(i.UsageFault_Handler)
    Wipe                                     0x080060ad   Thumb Code   130  lcd.o(i.Wipe)
    __0printf                                0x08006139   Thumb Code    22  printfa.o(i.__0printf)
    __1printf                                0x08006139   Thumb Code     0  printfa.o(i.__0printf)
    __2printf                                0x08006139   Thumb Code     0  printfa.o(i.__0printf)
    __c89printf                              0x08006139   Thumb Code     0  printfa.o(i.__0printf)
    printf                                   0x08006139   Thumb Code     0  printfa.o(i.__0printf)
    __ARM_fpclassify                         0x08006159   Thumb Code    48  fpclassify.o(i.__ARM_fpclassify)
    __hardfp_sin                             0x080061a9   Thumb Code   180  sin.o(i.__hardfp_sin)
    __hardfp_sqrt                            0x08006271   Thumb Code   122  sqrt.o(i.__hardfp_sqrt)
    __ieee754_rem_pio2                       0x080062f1   Thumb Code   938  rred.o(i.__ieee754_rem_pio2)
    __kernel_cos                             0x08006729   Thumb Code   322  cos_i.o(i.__kernel_cos)
    __kernel_poly                            0x08006899   Thumb Code   248  poly.o(i.__kernel_poly)
    __kernel_sin                             0x08006991   Thumb Code   280  sin_i.o(i.__kernel_sin)
    __mathlib_dbl_infnan                     0x08006ac1   Thumb Code    20  dunder.o(i.__mathlib_dbl_infnan)
    __mathlib_dbl_invalid                    0x08006ad9   Thumb Code    24  dunder.o(i.__mathlib_dbl_invalid)
    __mathlib_dbl_underflow                  0x08006af9   Thumb Code    24  dunder.o(i.__mathlib_dbl_underflow)
    __scatterload_copy                       0x08006b19   Thumb Code    14  handlers.o(i.__scatterload_copy)
    __scatterload_null                       0x08006b27   Thumb Code     2  handlers.o(i.__scatterload_null)
    __scatterload_zeroinit                   0x08006b29   Thumb Code    14  handlers.o(i.__scatterload_zeroinit)
    __set_errno                              0x08006b39   Thumb Code     6  errno.o(i.__set_errno)
    allsystem_init                           0x080073f9   Thumb Code   108  main.o(i.allsystem_init)
    fabs                                     0x08007489   Thumb Code    24  fabs.o(i.fabs)
    fputc                                    0x080074a1   Thumb Code    20  usart.o(i.fputc)
    getFreq_fft                              0x080074b9   Thumb Code    76  fft256.o(i.getFreq_fft)
    lcd_line                                 0x08007519   Thumb Code   184  lcd.o(i.lcd_line)
    main                                     0x080075d1   Thumb Code   162  main.o(i.main)
    AHBPrescTable                            0x080076b0   Data          16  system_stm32f4xx.o(.constdata)
    APBPrescTable                            0x080076c0   Data           8  system_stm32f4xx.o(.constdata)
    asc2_1206                                0x080076c8   Data        1140  lcd.o(.constdata)
    asc2_1608                                0x08007b3c   Data        1520  lcd.o(.constdata)
    asc2_2412                                0x0800812c   Data        3420  lcd.o(.constdata)
    asc2_3216                                0x08008e88   Data       12160  lcd.o(.constdata)
    Region$$Table$$Base                      0x0800bf28   Number         0  anon$$obj.o(Region$$Table)
    Region$$Table$$Limit                     0x0800bf48   Number         0  anon$$obj.o(Region$$Table)
    freq                                     0x20000000   Data           4  main.o(.data)
    arrshishi                                0x2000000e   Data           2  stm32f4xx_it.o(.data)
    numb                                     0x20000010   Data           4  stm32f4xx_it.o(.data)
    zhouqi                                   0x20000014   Data           4  stm32f4xx_it.o(.data)
    uwTickFreq                               0x20000018   Data           1  stm32f4xx_hal.o(.data)
    uwTickPrio                               0x2000001c   Data           4  stm32f4xx_hal.o(.data)
    uwTick                                   0x20000020   Data           4  stm32f4xx_hal.o(.data)
    SystemCoreClock                          0x20000024   Data           4  system_stm32f4xx.o(.data)
    POINT_COLOR                              0x2000002c   Data           4  lcd.o(.data)
    BACK_COLOR                               0x20000030   Data           4  lcd.o(.data)
    fre                                      0x20000034   Data           4  lcd.o(.data)
    ffv                                      0x20000038   Data           4  lcd.o(.data)
    amp                                      0x2000003c   Data           4  lcd.o(.data)
    m                                        0x20000040   Data           4  lcd.o(.data)
    min                                      0x20000044   Data           4  lcd.o(.data)
    max                                      0x20000048   Data           4  lcd.o(.data)
    maxz                                     0x2000004c   Data           4  lcd.o(.data)
    minz                                     0x20000050   Data           4  lcd.o(.data)
    __stdout                                 0x20000054   Data           4  stdout.o(.data)
    buffer                                   0x2000005c   Data        4096  main.o(.bss)
    hadc1                                    0x2000105c   Data          72  adc.o(.bss)
    hdma_adc1                                0x200010a4   Data          96  adc.o(.bss)
    hsram1                                   0x20001104   Data          80  fsmc.o(.bss)
    htim2                                    0x20001154   Data          72  tim.o(.bss)
    htim3                                    0x2000119c   Data          72  tim.o(.bss)
    htim4                                    0x200011e4   Data          72  tim.o(.bss)
    htim5                                    0x2000122c   Data          72  tim.o(.bss)
    htim8                                    0x20001274   Data          72  tim.o(.bss)
    htim12                                   0x200012bc   Data          72  tim.o(.bss)
    huart1                                   0x20001304   Data          68  usart.o(.bss)
    datatemp                                 0x20001348   Data         512  stm32f4xx_it.o(.bss)
    pFlash                                   0x20001548   Data          32  stm32f4xx_hal_flash.o(.bss)
    lcddev                                   0x20001568   Data          14  lcd.o(.bss)
    y                                        0x20001578   Data        1100  lcd.o(.bss)
    lBufInArray                              0x200019c4   Data        4096  fft256.o(.bss)
    lBufOutArray                             0x200029c4   Data        2048  fft256.o(.bss)
    lBufMagArray                             0x200031c4   Data        2048  fft256.o(.bss)
    __initial_sp                             0x20003dc8   Data           0  startup_stm32f407xx.o(STACK)



==============================================================================

Memory Map of the image

  Image Entry point : 0x08000189

  Load Region LR_IROM1 (Base: 0x08000000, Size: 0x0000bfa4, Max: 0x00100000, ABSOLUTE)

    Execution Region ER_IROM1 (Exec base: 0x08000000, Load base: 0x08000000, Size: 0x0000bf48, Max: 0x00100000, ABSOLUTE)

    Exec Addr    Load Addr    Size         Type   Attr      Idx    E Section Name        Object

    0x08000000   0x08000000   0x00000188   Data   RO            3    RESET               startup_stm32f407xx.o
    0x08000188   0x08000188   0x00000000   Code   RO         4148  * .ARM.Collect$$$$00000000  mc_w.l(entry.o)
    0x08000188   0x08000188   0x00000004   Code   RO         4462    .ARM.Collect$$$$00000001  mc_w.l(entry2.o)
    0x0800018c   0x0800018c   0x00000004   Code   RO         4465    .ARM.Collect$$$$00000004  mc_w.l(entry5.o)
    0x08000190   0x08000190   0x00000000   Code   RO         4467    .ARM.Collect$$$$00000008  mc_w.l(entry7b.o)
    0x08000190   0x08000190   0x00000000   Code   RO         4469    .ARM.Collect$$$$0000000A  mc_w.l(entry8b.o)
    0x08000190   0x08000190   0x00000008   Code   RO         4470    .ARM.Collect$$$$0000000B  mc_w.l(entry9a.o)
    0x08000198   0x08000198   0x00000000   Code   RO         4472    .ARM.Collect$$$$0000000D  mc_w.l(entry10a.o)
    0x08000198   0x08000198   0x00000000   Code   RO         4474    .ARM.Collect$$$$0000000F  mc_w.l(entry11a.o)
    0x08000198   0x08000198   0x00000004   Code   RO         4463    .ARM.Collect$$$$00002712  mc_w.l(entry2.o)
    0x0800019c   0x0800019c   0x00000024   Code   RO            4    .text               startup_stm32f407xx.o
    0x080001c0   0x080001c0   0x000011e0   Code   RO         4118    .text               cr4_fft_1024_stm32.o
    0x080013a0   0x080013a0   0x00000062   Code   RO         4151    .text               mc_w.l(uldiv.o)
    0x08001402   0x08001402   0x00000024   Code   RO         4153    .text               mc_w.l(memseta.o)
    0x08001426   0x08001426   0x0000014e   Code   RO         4416    .text               mf_w.l(dadd.o)
    0x08001574   0x08001574   0x000000e4   Code   RO         4418    .text               mf_w.l(dmul.o)
    0x08001658   0x08001658   0x000000de   Code   RO         4420    .text               mf_w.l(ddiv.o)
    0x08001736   0x08001736   0x0000001a   Code   RO         4422    .text               mf_w.l(dfltui.o)
    0x08001750   0x08001750   0x0000003e   Code   RO         4424    .text               mf_w.l(dfixi.o)
    0x0800178e   0x0800178e   0x00000026   Code   RO         4428    .text               mf_w.l(f2d.o)
    0x080017b4   0x080017b4   0x00000030   Code   RO         4430    .text               mf_w.l(cdcmple.o)
    0x080017e4   0x080017e4   0x00000038   Code   RO         4432    .text               mf_w.l(d2f.o)
    0x0800181c   0x0800181c   0x0000002c   Code   RO         4477    .text               mc_w.l(uidiv.o)
    0x08001848   0x08001848   0x0000001e   Code   RO         4479    .text               mc_w.l(llshl.o)
    0x08001866   0x08001866   0x00000020   Code   RO         4481    .text               mc_w.l(llushr.o)
    0x08001886   0x08001886   0x00000024   Code   RO         4483    .text               mc_w.l(llsshr.o)
    0x080018aa   0x080018aa   0x00000000   Code   RO         4492    .text               mc_w.l(iusefp.o)
    0x080018aa   0x080018aa   0x0000006e   Code   RO         4493    .text               mf_w.l(fepilogue.o)
    0x08001918   0x08001918   0x000000ba   Code   RO         4495    .text               mf_w.l(depilogue.o)
    0x080019d2   0x080019d2   0x000000a2   Code   RO         4499    .text               mf_w.l(dsqrt.o)
    0x08001a74   0x08001a74   0x00000030   Code   RO         4501    .text               mf_w.l(dfixul.o)
    0x08001aa4   0x08001aa4   0x00000030   Code   RO         4503    .text               mf_w.l(cdrcmple.o)
    0x08001ad4   0x08001ad4   0x00000024   Code   RO         4515    .text               mc_w.l(init.o)
    0x08001af8   0x08001af8   0x00000022   Code   RO         4517    .text               mf_w.l(dflti.o)
    0x08001b1a   0x08001b1a   0x0000006e   Code   RO          639    i.ADC_DMAConvCplt   stm32f4xx_hal_adc.o
    0x08001b88   0x08001b88   0x00000016   Code   RO          640    i.ADC_DMAError      stm32f4xx_hal_adc.o
    0x08001b9e   0x08001b9e   0x0000000a   Code   RO          641    i.ADC_DMAHalfConvCplt  stm32f4xx_hal_adc.o
    0x08001ba8   0x08001ba8   0x00000128   Code   RO          642    i.ADC_Init          stm32f4xx_hal_adc.o
    0x08001cd0   0x08001cd0   0x00000002   Code   RO          505    i.BusFault_Handler  stm32f4xx_it.o
    0x08001cd2   0x08001cd2   0x00000002   PAD
    0x08001cd4   0x08001cd4   0x0000015c   Code   RO          506    i.DMA2_Stream0_IRQHandler  stm32f4xx_it.o
    0x08001e30   0x08001e30   0x00000028   Code   RO         1376    i.DMA_CalcBaseAndBitshift  stm32f4xx_hal_dma.o
    0x08001e58   0x08001e58   0x00000054   Code   RO         1377    i.DMA_CheckFifoParam  stm32f4xx_hal_dma.o
    0x08001eac   0x08001eac   0x00000028   Code   RO         1378    i.DMA_SetConfig     stm32f4xx_hal_dma.o
    0x08001ed4   0x08001ed4   0x00000002   Code   RO          507    i.DebugMon_Handler  stm32f4xx_it.o
    0x08001ed6   0x08001ed6   0x00000002   PAD
    0x08001ed8   0x08001ed8   0x000000dc   Code   RO         3808    i.DrawWave          lcd.o
    0x08001fb4   0x08001fb4   0x000004f4   Code   RO         3809    i.DrawWaveZone      lcd.o
    0x080024a8   0x080024a8   0x00000004   Code   RO           13    i.Error_Handler     main.o
    0x080024ac   0x080024ac   0x000001a0   Code   RO         4052    i.FFT_TEXT          fft256.o
    0x0800264c   0x0800264c   0x00000050   Code   RO         1191    i.FLASH_Erase_Sector  stm32f4xx_hal_flash_ex.o
    0x0800269c   0x0800269c   0x00000054   Code   RO         1192    i.FLASH_FlushCaches  stm32f4xx_hal_flash_ex.o
    0x080026f0   0x080026f0   0x00000028   Code   RO         1193    i.FLASH_MassErase   stm32f4xx_hal_flash_ex.o
    0x08002718   0x08002718   0x00000020   Code   RO         1073    i.FLASH_Program_Byte  stm32f4xx_hal_flash.o
    0x08002738   0x08002738   0x0000002c   Code   RO         1074    i.FLASH_Program_DoubleWord  stm32f4xx_hal_flash.o
    0x08002764   0x08002764   0x00000024   Code   RO         1075    i.FLASH_Program_HalfWord  stm32f4xx_hal_flash.o
    0x08002788   0x08002788   0x00000024   Code   RO         1076    i.FLASH_Program_Word  stm32f4xx_hal_flash.o
    0x080027ac   0x080027ac   0x00000068   Code   RO         1077    i.FLASH_SetErrorCode  stm32f4xx_hal_flash.o
    0x08002814   0x08002814   0x00000050   Code   RO         1078    i.FLASH_WaitForLastOperation  stm32f4xx_hal_flash.o
    0x08002864   0x08002864   0x00000040   Code   RO         2057    i.FSMC_NORSRAM_Extended_Timing_Init  stm32f4xx_ll_fsmc.o
    0x080028a4   0x080028a4   0x00000054   Code   RO         2058    i.FSMC_NORSRAM_Init  stm32f4xx_ll_fsmc.o
    0x080028f8   0x080028f8   0x00000044   Code   RO         2059    i.FSMC_NORSRAM_Timing_Init  stm32f4xx_ll_fsmc.o
    0x0800293c   0x0800293c   0x0000014c   Code   RO          644    i.HAL_ADC_ConfigChannel  stm32f4xx_hal_adc.o
    0x08002a88   0x08002a88   0x00000002   Code   RO          645    i.HAL_ADC_ConvCpltCallback  stm32f4xx_hal_adc.o
    0x08002a8a   0x08002a8a   0x00000002   Code   RO          646    i.HAL_ADC_ConvHalfCpltCallback  stm32f4xx_hal_adc.o
    0x08002a8c   0x08002a8c   0x00000002   Code   RO          648    i.HAL_ADC_ErrorCallback  stm32f4xx_hal_adc.o
    0x08002a8e   0x08002a8e   0x00000054   Code   RO          653    i.HAL_ADC_Init      stm32f4xx_hal_adc.o
    0x08002ae2   0x08002ae2   0x00000002   PAD
    0x08002ae4   0x08002ae4   0x00000098   Code   RO          248    i.HAL_ADC_MspInit   adc.o
    0x08002b7c   0x08002b7c   0x00000154   Code   RO          660    i.HAL_ADC_Start_DMA  stm32f4xx_hal_adc.o
    0x08002cd0   0x08002cd0   0x0000006c   Code   RO          663    i.HAL_ADC_Stop_DMA  stm32f4xx_hal_adc.o
    0x08002d3c   0x08002d3c   0x0000008e   Code   RO         1379    i.HAL_DMA_Abort     stm32f4xx_hal_dma.o
    0x08002dca   0x08002dca   0x00000002   PAD
    0x08002dcc   0x08002dcc   0x000001a0   Code   RO         1384    i.HAL_DMA_IRQHandler  stm32f4xx_hal_dma.o
    0x08002f6c   0x08002f6c   0x000000d4   Code   RO         1385    i.HAL_DMA_Init      stm32f4xx_hal_dma.o
    0x08003040   0x08003040   0x0000006e   Code   RO         1389    i.HAL_DMA_Start_IT  stm32f4xx_hal_dma.o
    0x080030ae   0x080030ae   0x00000002   PAD
    0x080030b0   0x080030b0   0x00000024   Code   RO         1798    i.HAL_Delay         stm32f4xx_hal.o
    0x080030d4   0x080030d4   0x00000098   Code   RO         1194    i.HAL_FLASHEx_Erase  stm32f4xx_hal_flash_ex.o
    0x0800316c   0x0800316c   0x00000014   Code   RO         1082    i.HAL_FLASH_Lock    stm32f4xx_hal_flash.o
    0x08003180   0x08003180   0x0000007c   Code   RO         1087    i.HAL_FLASH_Program  stm32f4xx_hal_flash.o
    0x080031fc   0x080031fc   0x0000002c   Code   RO         1089    i.HAL_FLASH_Unlock  stm32f4xx_hal_flash.o
    0x08003228   0x08003228   0x000000a8   Code   RO          313    i.HAL_FSMC_MspInit  fsmc.o
    0x080032d0   0x080032d0   0x000001ec   Code   RO         1272    i.HAL_GPIO_Init     stm32f4xx_hal_gpio.o
    0x080034bc   0x080034bc   0x0000000a   Code   RO         1274    i.HAL_GPIO_ReadPin  stm32f4xx_hal_gpio.o
    0x080034c6   0x080034c6   0x00000010   Code   RO         1275    i.HAL_GPIO_TogglePin  stm32f4xx_hal_gpio.o
    0x080034d6   0x080034d6   0x0000000a   Code   RO         1276    i.HAL_GPIO_WritePin  stm32f4xx_hal_gpio.o
    0x080034e0   0x080034e0   0x0000000c   Code   RO         1804    i.HAL_GetTick       stm32f4xx_hal.o
    0x080034ec   0x080034ec   0x00000010   Code   RO         1810    i.HAL_IncTick       stm32f4xx_hal.o
    0x080034fc   0x080034fc   0x00000034   Code   RO         1811    i.HAL_Init          stm32f4xx_hal.o
    0x08003530   0x08003530   0x00000040   Code   RO         1812    i.HAL_InitTick      stm32f4xx_hal.o
    0x08003570   0x08003570   0x00000030   Code   RO          615    i.HAL_MspInit       stm32f4xx_hal_msp.o
    0x080035a0   0x080035a0   0x0000001a   Code   RO         1661    i.HAL_NVIC_EnableIRQ  stm32f4xx_hal_cortex.o
    0x080035ba   0x080035ba   0x00000002   PAD
    0x080035bc   0x080035bc   0x00000040   Code   RO         1667    i.HAL_NVIC_SetPriority  stm32f4xx_hal_cortex.o
    0x080035fc   0x080035fc   0x00000024   Code   RO         1668    i.HAL_NVIC_SetPriorityGrouping  stm32f4xx_hal_cortex.o
    0x08003620   0x08003620   0x00000134   Code   RO          918    i.HAL_RCC_ClockConfig  stm32f4xx_hal_rcc.o
    0x08003754   0x08003754   0x00000020   Code   RO          925    i.HAL_RCC_GetPCLK1Freq  stm32f4xx_hal_rcc.o
    0x08003774   0x08003774   0x00000020   Code   RO          926    i.HAL_RCC_GetPCLK2Freq  stm32f4xx_hal_rcc.o
    0x08003794   0x08003794   0x00000064   Code   RO          927    i.HAL_RCC_GetSysClockFreq  stm32f4xx_hal_rcc.o
    0x080037f8   0x080037f8   0x0000036c   Code   RO          930    i.HAL_RCC_OscConfig  stm32f4xx_hal_rcc.o
    0x08003b64   0x08003b64   0x00000056   Code   RO         2179    i.HAL_SRAM_Init     stm32f4xx_hal_sram.o
    0x08003bba   0x08003bba   0x00000004   Code   RO          315    i.HAL_SRAM_MspInit  fsmc.o
    0x08003bbe   0x08003bbe   0x00000028   Code   RO         1672    i.HAL_SYSTICK_Config  stm32f4xx_hal_cortex.o
    0x08003be6   0x08003be6   0x00000002   Code   RO         3001    i.HAL_TIMEx_BreakCallback  stm32f4xx_hal_tim_ex.o
    0x08003be8   0x08003be8   0x00000002   Code   RO         3002    i.HAL_TIMEx_CommutCallback  stm32f4xx_hal_tim_ex.o
    0x08003bea   0x08003bea   0x00000002   PAD
    0x08003bec   0x08003bec   0x00000090   Code   RO         3020    i.HAL_TIMEx_MasterConfigSynchronization  stm32f4xx_hal_tim_ex.o
    0x08003c7c   0x08003c7c   0x0000005a   Code   RO         2297    i.HAL_TIM_Base_Init  stm32f4xx_hal_tim.o
    0x08003cd6   0x08003cd6   0x00000002   PAD
    0x08003cd8   0x08003cd8   0x00000120   Code   RO          362    i.HAL_TIM_Base_MspInit  tim.o
    0x08003df8   0x08003df8   0x00000078   Code   RO         2300    i.HAL_TIM_Base_Start  stm32f4xx_hal_tim.o
    0x08003e70   0x08003e70   0x00000080   Code   RO         2302    i.HAL_TIM_Base_Start_IT  stm32f4xx_hal_tim.o
    0x08003ef0   0x08003ef0   0x000000d6   Code   RO         2306    i.HAL_TIM_ConfigClockSource  stm32f4xx_hal_tim.o
    0x08003fc6   0x08003fc6   0x00000002   Code   RO          363    i.HAL_TIM_IC_CaptureCallback  tim.o
    0x08003fc8   0x08003fc8   0x0000010e   Code   RO         2333    i.HAL_TIM_IC_ConfigChannel  stm32f4xx_hal_tim.o
    0x080040d6   0x080040d6   0x0000005a   Code   RO         2336    i.HAL_TIM_IC_Init   stm32f4xx_hal_tim.o
    0x08004130   0x08004130   0x00000002   Code   RO         2338    i.HAL_TIM_IC_MspInit  stm32f4xx_hal_tim.o
    0x08004132   0x08004132   0x00000002   PAD
    0x08004134   0x08004134   0x00000108   Code   RO         2341    i.HAL_TIM_IC_Start_IT  stm32f4xx_hal_tim.o
    0x0800423c   0x0800423c   0x00000166   Code   RO         2345    i.HAL_TIM_IRQHandler  stm32f4xx_hal_tim.o
    0x080043a2   0x080043a2   0x00000002   PAD
    0x080043a4   0x080043a4   0x00000050   Code   RO          364    i.HAL_TIM_MspPostInit  tim.o
    0x080043f4   0x080043f4   0x00000002   Code   RO         2348    i.HAL_TIM_OC_DelayElapsedCallback  stm32f4xx_hal_tim.o
    0x080043f6   0x080043f6   0x000000c6   Code   RO         2369    i.HAL_TIM_PWM_ConfigChannel  stm32f4xx_hal_tim.o
    0x080044bc   0x080044bc   0x0000005a   Code   RO         2372    i.HAL_TIM_PWM_Init  stm32f4xx_hal_tim.o
    0x08004516   0x08004516   0x00000002   Code   RO         2374    i.HAL_TIM_PWM_MspInit  stm32f4xx_hal_tim.o
    0x08004518   0x08004518   0x00000002   Code   RO         2375    i.HAL_TIM_PWM_PulseFinishedCallback  stm32f4xx_hal_tim.o
    0x0800451a   0x0800451a   0x00000002   PAD
    0x0800451c   0x0800451c   0x000000c8   Code   RO         2377    i.HAL_TIM_PWM_Start  stm32f4xx_hal_tim.o
    0x080045e4   0x080045e4   0x00000002   Code   RO          365    i.HAL_TIM_PeriodElapsedCallback  tim.o
    0x080045e6   0x080045e6   0x00000002   Code   RO         2388    i.HAL_TIM_TriggerCallback  stm32f4xx_hal_tim.o
    0x080045e8   0x080045e8   0x00000062   Code   RO         3297    i.HAL_UART_Init     stm32f4xx_hal_uart.o
    0x0800464a   0x0800464a   0x00000002   PAD
    0x0800464c   0x0800464c   0x0000006c   Code   RO          452    i.HAL_UART_MspInit  usart.o
    0x080046b8   0x080046b8   0x000000b2   Code   RO         3305    i.HAL_UART_Transmit  stm32f4xx_hal_uart.o
    0x0800476a   0x0800476a   0x00000002   Code   RO          508    i.HardFault_Handler  stm32f4xx_it.o
    0x0800476c   0x0800476c   0x000000ac   Code   RO         3702    i.KEY_Scan          key.o
    0x08004818   0x08004818   0x00000034   Code   RO         3811    i.LCD_Clear         lcd.o
    0x0800484c   0x0800484c   0x00000074   Code   RO         3815    i.LCD_Display_Dir   lcd.o
    0x080048c0   0x080048c0   0x0000009a   Code   RO         3816    i.LCD_DrawLine      lcd.o
    0x0800495a   0x0800495a   0x00000002   PAD
    0x0800495c   0x0800495c   0x0000001c   Code   RO         3817    i.LCD_DrawPoint     lcd.o
    0x08004978   0x08004978   0x00000050   Code   RO         3820    i.LCD_Fast_DrawPoint  lcd.o
    0x080049c8   0x080049c8   0x00000380   Code   RO         3822    i.LCD_Init          lcd.o
    0x08004d48   0x08004d48   0x00000014   Code   RO         3824    i.LCD_RD_DATA       lcd.o
    0x08004d5c   0x08004d5c   0x000001b8   Code   RO         3828    i.LCD_Scan_Dir      lcd.o
    0x08004f14   0x08004f14   0x00000104   Code   RO         3829    i.LCD_SetCursor     lcd.o
    0x08005018   0x08005018   0x000000e4   Code   RO         3831    i.LCD_ShowChar      lcd.o
    0x080050fc   0x080050fc   0x00000054   Code   RO         3833    i.LCD_ShowString    lcd.o
    0x08005150   0x08005150   0x00000018   Code   RO         3835    i.LCD_WR_DATA       lcd.o
    0x08005168   0x08005168   0x00000018   Code   RO         3836    i.LCD_WR_REG        lcd.o
    0x08005180   0x08005180   0x00000014   Code   RO         3838    i.LCD_WriteRAM_Prepare  lcd.o
    0x08005194   0x08005194   0x0000000c   Code   RO         3839    i.LCD_WriteReg      lcd.o
    0x080051a0   0x080051a0   0x00000060   Code   RO          249    i.MX_ADC1_Init      adc.o
    0x08005200   0x08005200   0x0000002c   Code   RO          289    i.MX_DMA_Init       dma.o
    0x0800522c   0x0800522c   0x00000088   Code   RO          316    i.MX_FSMC_Init      fsmc.o
    0x080052b4   0x080052b4   0x00000100   Code   RO          223    i.MX_GPIO_Init      gpio.o
    0x080053b4   0x080053b4   0x0000004c   Code   RO          366    i.MX_TIM12_Init     tim.o
    0x08005400   0x08005400   0x0000009c   Code   RO          367    i.MX_TIM2_Init      tim.o
    0x0800549c   0x0800549c   0x00000068   Code   RO          368    i.MX_TIM3_Init      tim.o
    0x08005504   0x08005504   0x00000098   Code   RO          369    i.MX_TIM4_Init      tim.o
    0x0800559c   0x0800559c   0x0000006c   Code   RO          370    i.MX_TIM5_Init      tim.o
    0x08005608   0x08005608   0x0000006c   Code   RO          371    i.MX_TIM8_Init      tim.o
    0x08005674   0x08005674   0x00000038   Code   RO          453    i.MX_USART1_UART_Init  usart.o
    0x080056ac   0x080056ac   0x000000c8   Code   RO         4054    i.Mag_tranf         fft256.o
    0x08005774   0x08005774   0x00000002   Code   RO          509    i.MemManage_Handler  stm32f4xx_it.o
    0x08005776   0x08005776   0x00000002   Code   RO          510    i.NMI_Handler       stm32f4xx_it.o
    0x08005778   0x08005778   0x00000002   Code   RO          511    i.PendSV_Handler    stm32f4xx_it.o
    0x0800577a   0x0800577a   0x00000002   PAD
    0x0800577c   0x0800577c   0x000000a0   Code   RO         3760    i.STMFLASH_GetFlashSector  stmflash.o
    0x0800581c   0x0800581c   0x00000014   Code   RO         3761    i.STMFLASH_Read     stmflash.o
    0x08005830   0x08005830   0x00000098   Code   RO         3763    i.STMFLASH_Write    stmflash.o
    0x080058c8   0x080058c8   0x00000002   Code   RO          512    i.SVC_Handler       stm32f4xx_it.o
    0x080058ca   0x080058ca   0x00000004   Code   RO          513    i.SysTick_Handler   stm32f4xx_it.o
    0x080058ce   0x080058ce   0x00000002   PAD
    0x080058d0   0x080058d0   0x00000094   Code   RO           14    i.SystemClock_Config  main.o
    0x08005964   0x08005964   0x00000010   Code   RO         3626    i.SystemInit        system_stm32f4xx.o
    0x08005974   0x08005974   0x000000c0   Code   RO         4055    i.THD_Cal           fft256.o
    0x08005a34   0x08005a34   0x0000000c   Code   RO          514    i.TIM3_IRQHandler   stm32f4xx_it.o
    0x08005a40   0x08005a40   0x00000018   Code   RO          515    i.TIM4_IRQHandler   stm32f4xx_it.o
    0x08005a58   0x08005a58   0x00000034   Code   RO          516    i.TIM5_IRQHandler   stm32f4xx_it.o
    0x08005a8c   0x08005a8c   0x00000120   Code   RO          517    i.TIM8_BRK_TIM12_IRQHandler  stm32f4xx_it.o
    0x08005bac   0x08005bac   0x000000c8   Code   RO         2390    i.TIM_Base_SetConfig  stm32f4xx_hal_tim.o
    0x08005c74   0x08005c74   0x0000001a   Code   RO         2391    i.TIM_CCxChannelCmd  stm32f4xx_hal_tim.o
    0x08005c8e   0x08005c8e   0x00000014   Code   RO         2401    i.TIM_ETR_SetConfig  stm32f4xx_hal_tim.o
    0x08005ca2   0x08005ca2   0x00000010   Code   RO         2402    i.TIM_ITRx_SetConfig  stm32f4xx_hal_tim.o
    0x08005cb2   0x08005cb2   0x00000002   PAD
    0x08005cb4   0x08005cb4   0x00000060   Code   RO         2403    i.TIM_OC1_SetConfig  stm32f4xx_hal_tim.o
    0x08005d14   0x08005d14   0x0000006c   Code   RO         2404    i.TIM_OC2_SetConfig  stm32f4xx_hal_tim.o
    0x08005d80   0x08005d80   0x00000068   Code   RO         2405    i.TIM_OC3_SetConfig  stm32f4xx_hal_tim.o
    0x08005de8   0x08005de8   0x00000050   Code   RO         2406    i.TIM_OC4_SetConfig  stm32f4xx_hal_tim.o
    0x08005e38   0x08005e38   0x00000022   Code   RO         2408    i.TIM_TI1_ConfigInputStage  stm32f4xx_hal_tim.o
    0x08005e5a   0x08005e5a   0x00000002   PAD
    0x08005e5c   0x08005e5c   0x00000080   Code   RO         2409    i.TIM_TI1_SetConfig  stm32f4xx_hal_tim.o
    0x08005edc   0x08005edc   0x00000024   Code   RO         2410    i.TIM_TI2_ConfigInputStage  stm32f4xx_hal_tim.o
    0x08005f00   0x08005f00   0x00000036   Code   RO         2411    i.TIM_TI2_SetConfig  stm32f4xx_hal_tim.o
    0x08005f36   0x08005f36   0x00000002   PAD
    0x08005f38   0x08005f38   0x0000010c   Code   RO         3323    i.UART_SetConfig    stm32f4xx_hal_uart.o
    0x08006044   0x08006044   0x00000064   Code   RO         3326    i.UART_WaitOnFlagUntilTimeout  stm32f4xx_hal_uart.o
    0x080060a8   0x080060a8   0x00000002   Code   RO          518    i.UsageFault_Handler  stm32f4xx_it.o
    0x080060aa   0x080060aa   0x00000002   PAD
    0x080060ac   0x080060ac   0x0000008c   Code   RO         3840    i.Wipe              lcd.o
    0x08006138   0x08006138   0x00000020   Code   RO         4388    i.__0printf         mc_w.l(printfa.o)
    0x08006158   0x08006158   0x00000030   Code   RO         4511    i.__ARM_fpclassify  m_wm.l(fpclassify.o)
    0x08006188   0x08006188   0x00000020   Code   RO         1674    i.__NVIC_SetPriority  stm32f4xx_hal_cortex.o
    0x080061a8   0x080061a8   0x000000c8   Code   RO         4124    i.__hardfp_sin      m_wm.l(sin.o)
    0x08006270   0x08006270   0x0000007a   Code   RO         4136    i.__hardfp_sqrt     m_wm.l(sqrt.o)
    0x080062ea   0x080062ea   0x00000006   PAD
    0x080062f0   0x080062f0   0x00000438   Code   RO         4451    i.__ieee754_rem_pio2  m_wm.l(rred.o)
    0x08006728   0x08006728   0x00000170   Code   RO         4434    i.__kernel_cos      m_wm.l(cos_i.o)
    0x08006898   0x08006898   0x000000f8   Code   RO         4513    i.__kernel_poly     m_wm.l(poly.o)
    0x08006990   0x08006990   0x00000130   Code   RO         4456    i.__kernel_sin      m_wm.l(sin_i.o)
    0x08006ac0   0x08006ac0   0x00000014   Code   RO         4438    i.__mathlib_dbl_infnan  m_wm.l(dunder.o)
    0x08006ad4   0x08006ad4   0x00000004   PAD
    0x08006ad8   0x08006ad8   0x00000020   Code   RO         4440    i.__mathlib_dbl_invalid  m_wm.l(dunder.o)
    0x08006af8   0x08006af8   0x00000020   Code   RO         4443    i.__mathlib_dbl_underflow  m_wm.l(dunder.o)
    0x08006b18   0x08006b18   0x0000000e   Code   RO         4521    i.__scatterload_copy  mc_w.l(handlers.o)
    0x08006b26   0x08006b26   0x00000002   Code   RO         4522    i.__scatterload_null  mc_w.l(handlers.o)
    0x08006b28   0x08006b28   0x0000000e   Code   RO         4523    i.__scatterload_zeroinit  mc_w.l(handlers.o)
    0x08006b36   0x08006b36   0x00000002   PAD
    0x08006b38   0x08006b38   0x0000000c   Code   RO         4487    i.__set_errno       mc_w.l(errno.o)
    0x08006b44   0x08006b44   0x00000184   Code   RO         4395    i._fp_digits        mc_w.l(printfa.o)
    0x08006cc8   0x08006cc8   0x000006dc   Code   RO         4396    i._printf_core      mc_w.l(printfa.o)
    0x080073a4   0x080073a4   0x00000024   Code   RO         4397    i._printf_post_padding  mc_w.l(printfa.o)
    0x080073c8   0x080073c8   0x0000002e   Code   RO         4398    i._printf_pre_padding  mc_w.l(printfa.o)
    0x080073f6   0x080073f6   0x00000002   PAD
    0x080073f8   0x080073f8   0x00000090   Code   RO           15    i.allsystem_init    main.o
    0x08007488   0x08007488   0x00000018   Code   RO         4507    i.fabs              m_wm.l(fabs.o)
    0x080074a0   0x080074a0   0x00000018   Code   RO          455    i.fputc             usart.o
    0x080074b8   0x080074b8   0x00000060   Code   RO         4058    i.getFreq_fft       fft256.o
    0x08007518   0x08007518   0x000000b8   Code   RO         3841    i.lcd_line          lcd.o
    0x080075d0   0x080075d0   0x000000d8   Code   RO           16    i.main              main.o
    0x080076a8   0x080076a8   0x00000008   Data   RO         1391    .constdata          stm32f4xx_hal_dma.o
    0x080076b0   0x080076b0   0x00000010   Data   RO         3627    .constdata          system_stm32f4xx.o
    0x080076c0   0x080076c0   0x00000008   Data   RO         3628    .constdata          system_stm32f4xx.o
    0x080076c8   0x080076c8   0x00004740   Data   RO         3846    .constdata          lcd.o
    0x0800be08   0x0800be08   0x00000030   Data   RO         4435    .constdata          m_wm.l(cos_i.o)
    0x0800be38   0x0800be38   0x000000c8   Data   RO         4453    .constdata          m_wm.l(rred.o)
    0x0800bf00   0x0800bf00   0x00000028   Data   RO         4457    .constdata          m_wm.l(sin_i.o)
    0x0800bf28   0x0800bf28   0x00000020   Data   RO         4519    Region$$Table       anon$$obj.o


    Execution Region RW_IRAM2 (Exec base: 0x10000000, Load base: 0x0800bfa4, Size: 0x00000000, Max: 0x00010000, ABSOLUTE)

    **** No section assigned to this execution region ****


    Execution Region RW_IRAM1 (Exec base: 0x20000000, Load base: 0x0800bf48, Size: 0x00003dc8, Max: 0x00020000, ABSOLUTE)

    Exec Addr    Load Addr    Size         Type   Attr      Idx    E Section Name        Object

    0x20000000   0x0800bf48   0x00000004   Data   RW           18    .data               main.o
    0x20000004   0x0800bf4c   0x00000008   Data   RW          318    .data               fsmc.o
    0x2000000c   0x0800bf54   0x0000000c   Data   RW          520    .data               stm32f4xx_it.o
    0x20000018   0x0800bf60   0x0000000c   Data   RW         1818    .data               stm32f4xx_hal.o
    0x20000024   0x0800bf6c   0x00000004   Data   RW         3629    .data               system_stm32f4xx.o
    0x20000028   0x0800bf70   0x00000001   Data   RW         3703    .data               key.o
    0x20000029   0x0800bf71   0x00000003   PAD
    0x2000002c   0x0800bf74   0x00000028   Data   RW         3847    .data               lcd.o
    0x20000054   0x0800bf9c   0x00000004   Data   RW         4476    .data               mc_w.l(stdout.o)
    0x20000058   0x0800bfa0   0x00000004   Data   RW         4488    .data               mc_w.l(errno.o)
    0x2000005c        -       0x00001000   Zero   RW           17    .bss                main.o
    0x2000105c        -       0x000000a8   Zero   RW          250    .bss                adc.o
    0x20001104        -       0x00000050   Zero   RW          317    .bss                fsmc.o
    0x20001154        -       0x000001b0   Zero   RW          372    .bss                tim.o
    0x20001304        -       0x00000044   Zero   RW          456    .bss                usart.o
    0x20001348        -       0x00000200   Zero   RW          519    .bss                stm32f4xx_it.o
    0x20001548        -       0x00000020   Zero   RW         1090    .bss                stm32f4xx_hal_flash.o
    0x20001568        -       0x0000045c   Zero   RW         3845    .bss                lcd.o
    0x200019c4        -       0x00002000   Zero   RW         4060    .bss                fft256.o
    0x200039c4   0x0800bfa4   0x00000004   PAD
    0x200039c8        -       0x00000400   Zero   RW            1    STACK               startup_stm32f407xx.o


==============================================================================

Image component sizes


      Code (inc. data)   RO Data    RW Data    ZI Data      Debug   Object Name

       248         30          0          0        168       1851   adc.o
      4576       4080          0          0          0        328   cr4_fft_1024_stm32.o
        44          4          0          0          0        814   dma.o
       904        150          0          0       8192       3934   fft256.o
       308         34          0          8         80       2383   fsmc.o
       256         18          0          0          0       1135   gpio.o
       172         14          0          1          0        759   key.o
      4250        322      18240         40       1116      18542   lcd.o
       512         98          0          4       4096     732380   main.o
        36          8        392          0       1024        856   startup_stm32f407xx.o
       180         28          0         12          0       9561   stm32f4xx_hal.o
      1308         66          0          0          0       8452   stm32f4xx_hal_adc.o
       198         14          0          0          0      34059   stm32f4xx_hal_cortex.o
      1044         16          8          0          0       6843   stm32f4xx_hal_dma.o
       520         66          0          0         32       6802   stm32f4xx_hal_flash.o
       356         24          0          0          0       4090   stm32f4xx_hal_flash_ex.o
       528         44          0          0          0       3592   stm32f4xx_hal_gpio.o
        48          6          0          0          0        894   stm32f4xx_hal_msp.o
      1348         76          0          0          0       5352   stm32f4xx_hal_rcc.o
        86          0          0          0          0       1252   stm32f4xx_hal_sram.o
      2934        222          0          0          0      22434   stm32f4xx_hal_tim.o
       148         28          0          0          0       2529   stm32f4xx_hal_tim_ex.o
       644         10          0          0          0       4212   stm32f4xx_hal_uart.o
       744        268          0         12        512       8320   stm32f4xx_it.o
       216         12          0          0          0       2783   stm32f4xx_ll_fsmc.o
       332         52          0          0          0       3027   stmflash.o
        16          4         24          4          0       1187   system_stm32f4xx.o
      1076         90          0          0        432       7336   tim.o
       188         26          0          0         68       2378   usart.o

    ----------------------------------------------------------------------
     23258       5810      18696         84      15724     898085   Object Totals
         0          0         32          0          0          0   (incl. Generated)
        38          0          0          3          4          0   (incl. Padding)

    ----------------------------------------------------------------------

      Code (inc. data)   RO Data    RW Data    ZI Data      Debug   Library Member Name

       368         46         48          0          0        200   cos_i.o
        84         16          0          0          0        372   dunder.o
        24          0          0          0          0        124   fabs.o
        48          0          0          0          0        124   fpclassify.o
       248          0          0          0          0        152   poly.o
      1080        142        200          0          0        188   rred.o
       200         20          0          0          0        164   sin.o
       304         24         40          0          0        208   sin_i.o
       122          0          0          0          0        148   sqrt.o
         0          0          0          0          0          0   entry.o
         0          0          0          0          0          0   entry10a.o
         0          0          0          0          0          0   entry11a.o
         8          4          0          0          0          0   entry2.o
         4          0          0          0          0          0   entry5.o
         0          0          0          0          0          0   entry7b.o
         0          0          0          0          0          0   entry8b.o
         8          4          0          0          0          0   entry9a.o
        12          6          0          4          0         68   errno.o
        30          0          0          0          0          0   handlers.o
        36          8          0          0          0         68   init.o
         0          0          0          0          0          0   iusefp.o
        30          0          0          0          0         68   llshl.o
        36          0          0          0          0         68   llsshr.o
        32          0          0          0          0         68   llushr.o
        36          0          0          0          0        108   memseta.o
      2258         90          0          0          0        452   printfa.o
         0          0          0          4          0          0   stdout.o
        44          0          0          0          0         80   uidiv.o
        98          0          0          0          0         92   uldiv.o
        48          0          0          0          0         68   cdcmple.o
        48          0          0          0          0         68   cdrcmple.o
        56          0          0          0          0         88   d2f.o
       334          0          0          0          0        148   dadd.o
       222          0          0          0          0        100   ddiv.o
       186          0          0          0          0        176   depilogue.o
        62          0          0          0          0         80   dfixi.o
        48          0          0          0          0         68   dfixul.o
        34          0          0          0          0         76   dflti.o
        26          0          0          0          0         76   dfltui.o
       228          0          0          0          0         96   dmul.o
       162          0          0          0          0        100   dsqrt.o
        38          0          0          0          0         68   f2d.o
       110          0          0          0          0        168   fepilogue.o

    ----------------------------------------------------------------------
      6726        360        288          8          0       4132   Library Totals
        14          0          0          0          0          0   (incl. Padding)

    ----------------------------------------------------------------------

      Code (inc. data)   RO Data    RW Data    ZI Data      Debug   Library Name

      2478        248        288          0          0       1680   m_wm.l
      2632        112          0          8          0       1072   mc_w.l
      1602          0          0          0          0       1380   mf_w.l

    ----------------------------------------------------------------------
      6726        360        288          8          0       4132   Library Totals

    ----------------------------------------------------------------------

==============================================================================


      Code (inc. data)   RO Data    RW Data    ZI Data      Debug   

     29984       6170      18984         92      15724     885373   Grand Totals
     29984       6170      18984         92      15724     885373   ELF Image Totals
     29984       6170      18984         92          0          0   ROM Totals

==============================================================================

    Total RO  Size (Code + RO Data)                48968 (  47.82kB)
    Total RW  Size (RW Data + ZI Data)             15816 (  15.45kB)
    Total ROM Size (Code + RO Data + RW Data)      49060 (  47.91kB)

==============================================================================

