:020000040800F2
:10000000C83D00209D010008775700086B47000895
:1000100075570008D11C0008A96000080000000006
:10002000000000000000000000000000C9580008A7
:10003000D51E00080000000079570008CB580008C2
:10004000B7010008B7010008B7010008B7010008B0
:10005000B7010008B7010008B7010008B7010008A0
:10006000B7010008B7010008B7010008B701000890
:10007000B7010008B7010008B7010008B701000880
:10008000B7010008B7010008B7010008B701000870
:10009000B7010008B7010008B7010008B701000860
:1000A000B7010008B7010008B7010008B701000850
:1000B000B7010008355A0008415A0008B701000886
:1000C000B7010008B7010008B7010008B701000830
:1000D000B7010008B7010008B7010008B701000820
:1000E000B7010008B7010008B70100088D5A0008E1
:1000F000B7010008B7010008B7010008B701000800
:10010000B7010008B7010008595A0008B7010008F4
:10011000B7010008B7010008B7010008B7010008DF
:10012000D51C0008B7010008B7010008B701000896
:10013000B7010008B7010008B7010008B7010008BF
:10014000B7010008B7010008B7010008B7010008AF
:10015000B7010008B7010008B7010008B70100089F
:10016000B7010008B7010008B7010008B70100088F
:10017000B7010008B7010008B7010008000000003F
:10018000B7010008B7010008DFF80CD001F0A2FCAD
:1001900000480047D1750008C83D00200648804748
:1001A00006480047FEE7FEE7FEE7FEE7FEE7FEE75C
:1001B000FEE7FEE7FEE7FEE7655900088901000853
:1001C0002DE9F04F4FF0000C4FF0000301EB9C5E67
:1001D000BEF90250BEF900400EF5806EBEF90290E5
:1001E000BEF900800EF5806EBEF90270BEF90060A7
:1001F0000EF5806EBEF902B0BEF900A00EF5806E5D
:10020000D044D944A8EB4A0AA9EB4B0B4FEAA4040B
:100210004FEAA50504EBA60405EBA705A4EB6606CB
:10022000A5EB670704EBA80405EBA905A4EB680898
:10023000A5EB690906EBAB06A7EBAA07A6EB6B0BD0
:1002400007EB6A0A458020F8044B478020F8046BCE
:10025000A0F8029020F8048BA0F802A020F804BBBC
:1002600003F1010393FAA3FCB3F5807FAED1A0EBB9
:1002700082014FF0100312090FF2341000F1000058
:1002800006B403EB430C6144A2F5803202EB8332E7
:10029000B1F90250B1F90040A1EB0301B0F902B08D
:1002A000B0F900A000F10400A5EB040E0EFB0BFC5E
:1002B0000AEB4B0E05FB0ACB04FB0ECAB1F9025048
:1002C000B1F90040A1EB0301B0F90290B0F9008050
:1002D00000F10400A5EB040E0EFB09FC08EB490E2F
:1002E00005FB08C904FB0EC8B1F90250B1F9004082
:1002F000A1EB0301B0F90270B0F9006000F1040055
:10030000A5EB040E0EFB07FC06EB470E05FB06C72C
:1003100004FB0EC6B1F90250B1F9004001F1000131
:10032000D044D944A8EB4A0AA9EB4B0B4FEAA404EA
:100330004FEAA50504EB264405EB2745A4EBE6367A
:10034000A5EBE73704EB284405EB2945A4EBE83897
:10035000A5EBE93906EB2B46A7EB2A47A6EBEB3BCF
:1003600007EBEA3A4D800C8019444F800E80194407
:10037000A1F80290A1F800801944A1F802A021F888
:1003800004BBB2F5803283DA03EB430C6144A2F183
:1003900001025FEA024E18BFA0EB0C007FF476AFBB
:1003A00006BC4FEA830392087FF46AAFBDE8F08F82
:1003B0000040000000400000004000005DDD213BE7
:1003C000A3227E180000412D7EA5412D0000412D65
:1003D00000C000405DDD82E75DDD213B7EA5412D53
:1003E000004000000040000000400000AA2A9412D3
:1003F0006B39460649327C0CA8118E2349327C0C9D
:10040000A3227E1821F77931AA2A9412A8118E23EB
:100410005DDD213BA3227E180000412D95C6B13F32
:10042000461A2B1E58EE3735BEB4C53EA8118E2392
:100430005DDD213B63A97138DF089A28B7CDC53E41
:100440007EA5412D0000412D00C0004063A92B1E58
:1004500021F77931BEB4C53EBEB47C0C58EE3735B9
:1004600061AC213B95C6BAF9BAE571383BA737357F
:100470005DDD82E75DDD213B7EA5412D21F766D75D
:1004800056D53F3D3BA78E23A811C9CAB7CDC53E5F
:1004900061AC7E18AA2AC1C295C6B13FBEB47C0C1D
:1004A0000040000000400000004000001E3BB5047A
:1004B000693E9201C83C2403EB356409C83C24031F
:1004C0006B3946066C30060E1E3BB504EB356409ED
:1004D000AA2A94126B39460649327C0CAE240917BD
:1004E000AF37D607882E8D0F7E1E5D1BEB35640956
:1004F000AA2A941224188C1F1E34F10AB3269015D0
:10050000A8118E2349327C0CA3227E18140B60277D
:100510006C30060E7E1E5D1B7104FB2A882E8D0F2B
:10052000461A2B1EC7FD5A2E9D2C1211FE15E720D0
:1005300021F77931AA2A9412A8118E2387F0533417
:10054000B2281314480D202602EAE536B32690158A
:10055000DF089A289CE32B39AE2409177104FB2A83
:100560005DDD213BA3227E180000412D4ED7C53C06
:100570009320EF198FFB6C2F78D1153E7E1E5D1BEB
:1005800021F77931E2CB0F3F641CC61CB8F2683307
:1005900095C6B13F461A2B1E58EE373597C1FB3F23
:1005A00024188C1F02EAE536F0BCEC3FFE15E7206C
:1005B000BAE57138A6B8853FD5133D2282E1DB3913
:1005C000BEB4C53EA8118E235DDD213B40B1AF3DD9
:1005D000790FDA244DD9423C2EAE423C480D2026FC
:1005E00056D53F3D8EAB823A140B602778D1153E2D
:1005F00063A97138DF089A28B7CDC53EB1A7123676
:10060000A906CE2915CA4F3F78A668337104FB2A84
:1006100095C6B13FBCA576303902212C38C3EC3FDA
:100620007EA5412D0000412D00C00040BCA5CE2973
:10063000C7FD5A2EF0BCEC3F78A620268FFB6C2F0E
:1006400009BAB13FB1A73D2257F976304DB74F3FB8
:1006500063A92B1E21F77931BEB4C53E8EABEF19CD
:10066000ECF474325EB2153E2EAE9015B8F26833DB
:100670002DB03F3D40B1121187F053342EAE423CB5
:10068000BEB47C0C58EE373561AC213BA6B8D6071A
:100690002BEC1236C8AADB39F0BC240302EAE5369B
:1006A00063A9713897C16EFEDCE7B03734A8E53630
:1006B00095C6BAF9BAE571383BA73735E2CB0FF5E5
:1006C0009CE32B3978A6683378D173F082E1DB396B
:1006D000EDA579314ED7EDEB6DDF823A99A56C2F00
:1006E0005DDD82E75DDD213B7EA5412D9CE33AE3A4
:1006F00052DBB63B99A5FB2A02EA19DF4DD9423CF1
:10070000EDA59A2887F026DB4ED7C53C78A6202693
:1007100021F766D756D53F3D3BA78E23C7FDDFD3D4
:1007200063D3AF3D34A8E720710494D078D1153E4F
:1007300063A92B1E140B8CCD94CF723EC8AA5D1BEF
:10074000A811C9CAB7CDC53E61AC7E18241850C8DF
:10075000E2CB0F3F2EAE90157E1E25C615CA4F3F29
:100760002DB09412AE244AC451C8853F5EB28D0F9D
:10077000AA2AC1C295C6B13FBEB47C0C6C308EC1F2
:10078000E2C4D43F4DB76409EB35B1C038C3EC3F88
:1007900009BA46061E3B2CC097C1FB3FF0BC2403A0
:1007A000004000000040000000400000D03E2E014C
:1007B0009B3F6500363FC9009A3D5B02363FC9004A
:1007C000693E92015F3C8803D03E2E019A3D5B0258
:1007D0001E3BB504693E9201C83C2403D939E205A9
:1007E000023EF701F43BED038E380E079A3D5B02A3
:1007F0001E3BB5043F373908313DC002463A7E05FD
:10080000EB356409C83C24036B39460692348E0AE2
:100810005F3C88038E380E073433B70BF43BED038F
:10082000AF37D607D231DF0C8A3B5104CE369D0854
:100830006C30060E1E3BB504EB356409022F2B0FFE
:10084000B23A1A0505352B0A932D5010463A7E050B
:100850001E34F10A212C7311D939E2053433B70B58
:10086000AA2A94126B39460649327C0C3129B413FA
:10087000FD38AA065B31410DB327D2148E380E071E
:100880006C30060E3226EE151F3872077B2FCA0E0B
:10089000AE240917AF37D607882E8D0F26232118CF
:1008A0003F373908932D50109C213719CE369D08BB
:1008B0009D2C12110E204B1A5D360109A42BD31169
:1008C0007E1E5D1BEB356409AA2A9412EB1C6C1C7E
:1008D0007835C709AF295413561B791D05352B0AE6
:1008E000B2281314BE19841E92348E0AB327D21470
:1008F00024188C1F1E34F10AB326901588169120F7
:10090000A933540BB1254C16EA1493213433B70B99
:10091000AE2409174A139222BF321A0CA923C41716
:10092000A8118E2349327C0CA3227E18051088243E
:10093000D231DF0C9C213719610E7E255B31410DD0
:100940009320EF19BB0C7126E430A40D891FA71A60
:10095000140B60276C30060E7E1E5D1B6D094C2843
:10096000F42F680E721D121CC40735297B2FCA0E86
:10097000641CC61C1B061A2A022F2B0F561B791D3E
:100980007104FB2A882E8D0F461A2B1EC702D82B06
:100990000E2EEE0F3519DC1E1C01B22C932D5010BB
:1009A00024188C1F72FF882D182DB11011173A20B2
:1009B000C7FD5A2E9D2C1211FE15E7201DFC282F75
:1009C000212C7311EA14932173FAF22FA42BD31163
:1009D000D5133D22CAF8B830282B3412BF12E722B3
:1009E00021F77931AA2A9412A8118E2379F536328B
:1009F0002D2AF41291103524D2F3EF32AF2954137B
:100A0000790FDA242CF2A3333129B413610E7E2539
:100A100087F05334B2281314480D2026E3EEFF3438
:100A2000332873142E0CC12641EDA535B327D214FB
:100A3000140B6027A1EB483633273115FA09FE273E
:100A400002EAE536B3269015DF089A2865E87E3776
:100A50003226EE15C4073529CBE61238B1254C16DF
:100A6000A906CE2932E5A1382F25AB168D05652ABA
:100A70009CE32B39AE2409177104FB2A08E2B03934
:100A80002B24661755038F2B77E0303AA923C41720
:100A90003902212CE9DEAB3A262321181C01B22CA5
:100AA0005DDD213BA3227E180000412DD5DB923B6A
:100AB0001F22DB18E4FECF2D4FDAFD3B9C213719B6
:100AC000C7FD5A2ECDD8643C17219319ABFCE42EF8
:100AD0004ED7C53C9320EF198FFB6C2FD3D5213D0A
:100AE0000E204B1A73FAF22F5CD4783D891FA71A97
:100AF00057F97630E8D2C93D041F021B3CF8F930A3
:100B000078D1153E7E1E5D1B21F779310CD05C3EFD
:100B1000F81DB81B06F6F831A5CE9D3E721D121CBD
:100B2000ECF4743241CDD83EEB1C6C1CD2F3EF32A6
:100B3000E2CB0F3F641CC61CB8F2683388CA403F42
:100B4000DD1B201D9FF1DF3332C96B3F561B791D22
:100B500087F05334E1C7913FCE1AD31D6FEFC634EF
:100B600095C6B13F461A2B1E58EE37354EC5CC3FC1
:100B7000BE19841E41EDA5350CC4E13F3519DC1EBC
:100B80002BEC1236CFC2F13FAD18341F16EB7D3679
:100B900097C1FB3F24188C1F02EAE53665C0004070
:100BA0009B17E31FEFE84B3738BFFF3F11173A2081
:100BB000DCE7B03711BEF83F88169120CBE612383B
:100BC000F0BCEC3FFE15E720BAE57138D4BBDB3F43
:100BD00074153D21AAE4CF38BFBAC43FEA1493216B
:100BE0009CE32B39AFB9A73F5F14E8218EE284392B
:100BF000A6B8853FD5133D2282E1DB39A2B75D3F20
:100C00004A13922277E0303AA5B6303FBF12E7226E
:100C10006DDF823AAFB5FD3E34123B2364DED33A3A
:100C2000BEB4C53EA8118E235DDD213BD5B3883E01
:100C30001D11E22357DC6D3BF2B2453E9110352485
:100C400052DBB63B15B2FC3D051088244FDAFD3B64
:100C500040B1AF3D790FDA244DD9423C71B05B3DD4
:100C6000ED0E2C254DD8853CA9AF033D610E7E25A8
:100C70004ED7C53CE8AEA53CD40DCF2551D6033D9B
:100C80002EAE423C480D202656D53F3D7BADDA3B8B
:100C9000BB0C71265CD4783DD0AC6D3B2E0CC126CC
:100CA00063D3AF3D2BACFA3AA10B11276DD2E33DD4
:100CB0008EAB823A140B602778D1153EF8AA063A1B
:100CC000870AAF2785D0453E6AAA8439FA09FE27EC
:100CD00094CF723EE3A9FD386D094C28A5CE9D3E08
:100CE00063A97138DF089A28B7CDC53EEBA8E13774
:100CF0005208E728CCCCEB3E7BA84B37C4073529FC
:100D0000E2CB0F3F12A8B13636078129FBCA303F2C
:100D1000B1A71236A906CE2915CA4F3F57A76E357F
:100D20001B061A2A32C96B3F05A7C6348D05652AF2
:100D300051C8853FBBA61934FF04B02A72C79C3F37
:100D400078A668337104FB2A95C6B13F3EA6B2323D
:100D5000E303452BBAC5C43F0BA6F83155038F2BCF
:100D6000E2C4D43FE0A53931C702D82B0CC4E13F1F
:100D7000BCA576303902212C38C3EC3FA1A5AF2F9A
:100D8000AA016A2C66C2F53F8DA5E42E1C01B22C87
:100D900097C1FB3F81A5152E8E00FA2CCAC0FF3FDC
:100DA0007EA5412D0000412D00C0004081A56A2C88
:100DB00072FF882D38BFFF3F8DA58F2BE4FECF2D0E
:100DC00073BEFB3FA1A5B02A56FE152EB0BDF53F60
:100DD000BCA5CE29C7FD5A2EF0BCEC3FE0A5E72804
:100DE00039FD9F2E32BCE13F0BA6FE27ABFCE42E63
:100DF00077BBD43F3EA611271DFC282FBFBAC43FA6
:100E000078A620268FFB6C2F09BAB13FBBA62C25F4
:100E100001FBAF2F56B99C3F05A7352473FAF22F7B
:100E2000A6B8853F57A73B23E5F93430F8B76B3FA9
:100E3000B1A73D2257F976304DB74F3F12A83D215B
:100E4000CAF8B830A5B6303F7BA83A203CF8F93054
:100E500000B60F3FEBA8341FAEF739315EB5EB3E5D
:100E600063A92B1E21F77931BEB4C53EE3A9201D2D
:100E700093F6B93122B49D3E6AAA121C06F6F831E7
:100E800088B3723EF8AA021B79F53632F2B2453EBB
:100E90008EABEF19ECF474325EB2153E2BACDB185E
:100EA0005FF4B232CDB1E33DD0ACC417D2F3EF3230
:100EB00040B1AF3D7BADAB1645F32C33B5B0783DBB
:100EC0002EAE9015B8F268332DB03F3DE8AE7314E6
:100ED0002CF2A333A9AF033DA9AF54139FF1DF3325
:100EE00028AFC53C71B0341213F11934A9AE853C5A
:100EF00040B1121187F053342EAE423C15B2EE0FC2
:100F0000FBEF8D34B6ADFD3BF2B2CA0E6FEFC634C7
:100F100041ADB63BD5B3A40DE3EEFF34D0AC6D3B91
:100F2000BEB47C0C58EE373561AC213BAFB5540BE9
:100F3000CCED6E35F6ABD33AA5B62B0A41EDA5350F
:100F40008EAB823AA2B70109B6ECDC3529AB303A58
:100F5000A6B8D6072BEC1236C8AADB39AFB9AA0659
:100F6000A1EB48366AAA8439BFBA7E0516EB7D36F6
:100F70000FAA2B39D4BB51048CEAB136B7A9CF38AC
:100F8000F0BC240302EAE53663A9713811BEF7010B
:100F900078E9183712A9123838BFC900EFE84B3783
:100FA000C5A8B03765C09BFF65E87E377BA84B3787
:100FB00097C16EFEDCE7B03734A8E536CFC240FDFE
:100FC00053E7E137F1A77D360CC413FCCBE61238AA
:100FD000B1A712364EC5E6FA42E6423874A7A535E7
:100FE00095C6BAF9BAE571383BA73735E1C78EF82F
:100FF00032E5A13805A7C63432C963F7AAE4CF3871
:10100000D3A6533488CA39F623E4FD38A4A6DF33C7
:10101000E2CB0FF59CE32B3978A6683341CDE6F39C
:1010200015E3583950A6EF32A5CEBFF28EE28439CF
:101030002CA674320CD098F108E2B0390BA6F83126
:1010400078D173F082E1DB39EDA57931E8D24FEF49
:10105000FCE0063AD3A5F9305CD42DEE77E0303AC7
:10106000BCA57630D3D50CEDF2DF593AA9A5F22F05
:101070004ED7EDEB6DDF823A99A56C2FCDD8CFEA34
:10108000E9DEAB3A8DA5E42E4FDAB4E964DED33A5B
:1010900085A55A2ED5DB9AE8E1DDFA3A7FA5CF2D5A
:1010A0005DDD82E75DDD213B7EA5412DE9DE6DE65C
:1010B000DADC473B7FA5B22C77E059E557DC6D3B86
:1010C00085A5212C08E248E4D5DB923B8DA58F2B2A
:1010D0009CE33AE352DBB63B99A5FB2A32E52DE2CD
:1010E000D1DADA3BA9A5652ACBE624E14FDAFD3B4C
:1010F000BCA5CE2965E81DE0CED9203CD3A5352975
:1011000002EA19DF4DD9423CEDA59A28A1EB18DE81
:10111000CDD8643C0BA6FE2741ED19DD4DD8853CAA
:101120002CA66027E3EE1EDCCDD7A53C50A6C12639
:1011300087F026DB4ED7C53C78A620262CF231DA84
:10114000CFD6E43CA4A67E25D2F33FD951D6033DA9
:10115000D3A6DA2479F551D8D3D5213D05A7352476
:1011600021F766D756D53F3D3BA78E23CAF87FD6D9
:10117000D8D45B3D74A7E72273FA9BD55CD4783D45
:10118000B1A73D221DFCBBD4DFD3933DF1A7932132
:10119000C7FDDFD363D3AF3D34A8E72072FF06D38A
:1011A000E8D2C93D7BA83A201C0131D26DD2E33D83
:1011B000C5A88C1FC70261D1F2D1FC3D12A9DC1E6B
:1011C000710494D078D1153E63A92B1E1B06CCCF99
:1011D000FED02D3EB7A9791DC40707CF85D0453E67
:1011E0000FAAC61C6D0947CE0CD05C3E6AAA121C21
:1011F000140B8CCD94CF723EC8AA5D1BBB0CD4CC13
:101200001CCF883E29ABA71A610E21CCA5CE9D3EEE
:101210008EABEF19051073CB2ECEB13EF6AB37195E
:10122000A811C9CAB7CDC53E61AC7E184A1324CAFD
:1012300041CDD83ED0ACC417EA1483C9CCCCEB3E28
:1012400041AD09178816E8C857CCFD3EB6AD4C161F
:10125000241850C8E2CB0F3F2EAE9015BE19BEC762
:101260006ECB203FA9AED214561B31C7FBCA303F0C
:1012700028AF1314EB1CA8C688CA403FA9AF54136B
:101280007E1E25C615CA4F3F2DB094120E20A7C54D
:10129000A3C95D3FB5B0D3119C212DC532C96B3FA9
:1012A00040B112112623B9C4C1C8783FCDB1501046
:1012B000AE244AC451C8853F5EB28D0F3226E0C3CA
:1012C000E1C7913FF2B2CA0EB3277BC372C79C3FFE
:1012D00088B3060E31291CC303C7A73F22B4410DB2
:1012E000AA2AC1C295C6B13FBEB47C0C212C6DC2E6
:1012F00027C6BB3F5EB5B70B932D1DC2BAC5C43F11
:1013000000B6F10A022FD3C14EC5CC3FA5B62B0AB9
:101310006C308EC1E2C4D43F4DB76409D2314FC1A5
:1013200076C4DB3FF8B79D08343315C10CC4E13FE8
:10133000A6B8D6079234E0C0A1C3E73F56B90E075E
:10134000EB35B1C038C3EC3F09BA46063F3788C019
:10135000CFC2F13FBFBA7E058E3864C066C2F53F8A
:1013600077BBB504D93945C0FEC1F83F32BCED03A7
:101370001E3B2CC097C1FB3FF0BC24035F3C19C04F
:1013800030C1FD3FB0BD5B029A3D0BC0CAC0FF3FFC
:1013900073BE9201D03E03C065C0004038BFC90093
:1013A0002DE9F05F0546002092469B46884606469A
:1013B000814640241BE0284641464746224600F02D
:1013C00052FA53465A46C01A914110D31146184654
:1013D000224600F039FA2D1A67EB01084F462246E3
:1013E0000120002100F030FA17EB00094E41201EC9
:1013F000A4F10104DFDC484631462A464346BDE8F5
:10140000F09FD2B201E000F8012B491EFBD27047D9
:101410000022F6E710B513460A4604461946FFF7C0
:10142000F0FF204610BD2DE9FE4F804681EA030003
:10143000C00F0C46009021F0004123F00045B8EBAE
:101440000200A94105D24046214690461C460B4663
:10145000024623F00040104347D0270DC7F30A008F
:10146000C3F30A510290401A019040286BDAC3F38B
:10147000130040F4801B0098924620B10023D2EB69
:10148000030A63EB0B0B01985946C0F1400250462A
:1014900000F0DAF906460D4650465946019A00F02A
:1014A000F2F910EB08006141002487EA115284EA46
:1014B000E7731A4340D0009A62B3019A012A4FEAB7
:1014C000075215DC001B61EB02014FF0004202EAFB
:1014D0000752CDE90042001C41F5801132462B46EF
:1014E00000F029FA03B0BDE8F08F40462146F9E745
:1014F000001B61EB0201001C41F5801300185B41E9
:101500002018A2F5001747EB030140EAD570B61981
:101510006D4111E06D084FEA360645EAC0754FEAA5
:101520000752001B61EB0201001C41F580114908C4
:101530004FEA30000019514132462B4603B0BDE856
:10154000F04F00F0E9B90098012240000023D0EBF1
:10155000020263EBE073009821464FEAE074B8EBB7
:10156000000061EB0401E9E783F000435BE781F0F1
:10157000004158E72DE9FE4F81EA030404F00044DE
:1015800021F0004100944FF0000B23F0004350EA9B
:1015900001045ED052EA03045BD0C3F30A54C1F3E2
:1015A0000A552C44A4F2F3340194A0FB0254C1F375
:1015B000130141F48011C3F3130343F4801301FBBF
:1015C000024400FB034E840A970A44EA815447EA26
:1015D0008357A4FB076802958D0A05FB07854FEA30
:1015E000932C04FB0C542705029D4FEA065847EA4A
:1015F0001637B5EB08056EEB070C870E920E47EA1F
:10160000811742EA8312A7FB0201B6EB0B0164EBE0
:1016100000042B0D43EA0C335E1844EB1C50DA46F1
:101620005146E7FB0201C5F313044FEA0B3343EACB
:1016300014534FEA0432019C43EA0603A4F10C045C
:101640000294009CCDE900B400F075F903B0BDE848
:10165000F08F00200146F9E72DE9F04D81EA0304FF
:1016600004F0004B21F0004514464FF0000A23F02F
:10167000004150EA050220D054EA01021DD0C5F312
:101680000A570246C5F31303C1F31300C1F30A5608
:1016900040F4801543F48013A7EB0608101BD646D0
:1016A00008F2FD3873EB050002D308F1010801E0F0
:1016B00092185B41B8F1000F03DA00200146BDE843
:1016C000F08D00204FF48011064684460EE0171B73
:1016D00073EB050705D3121B63EB050306434CEAC6
:1016E000010C49084FEA300092185B4150EA0107AB
:1016F000EDD152EA030012D082EA040083EA050128
:10170000084305D0101BAB4106D20122002306E09E
:1017100000224FF0004302E06FF0010253101AEB79
:1017200006004CEB085110EB0A0041EB0B01BDE841
:10173000F04D00F0F1B80EB540F2334102910021B6
:10174000CDE900110A460B4600F0F5F803B000BDE4
:1017500070B5C1F30A5201F000450024C1F3130132
:1017600040F2FF3341F480119A4201DA002070BD4B
:1017700040F233439A42A2F2334203DC524200F079
:1017800072F800E090402C43F1D0404270BD00F070
:10179000004230F000400AD0C10D01F56071C0F385
:1017A000160042EA0151C208400711437047002069
:1017B0000146704730B5041E71F1000404DB4FF0A0
:1017C0000044404264EB0101141E73F1000405DB88
:1017D0001C464FF00043524263EB04038B4208BFA8
:1017E000824230BD01F0004330B421F0004150EAA4
:1017F000010206D00A0DA2F56072C1F31301002A9E
:1018000002DC30BC00207047440F44EAC104C10030
:10181000E01830BC00EBC25000F047B830B50B46C2
:10182000014600202022012409E021FA02F59D4210
:1018300005D303FA02F5491B04FA02F52844151EE4
:10184000A2F10102F1DC30BD202A04DB203A00FACB
:1018500002F1002070479140C2F1200320FA03F307
:10186000194390407047202A04DB203A21FA02F005
:101870000021704721FA02F3D040C2F120029140CA
:10188000084319467047202A06DBCB17203A41FA55
:1018900002F043EAE07306E041FA02F3D040C2F1FD
:1018A000200291400843194670470029A8BF70479D
:1018B000401C490008BF20F00100704710B4B0FA86
:1018C00080FC00FA0CF050EA010404BF10BC704721
:1018D00049B1CCF1200421FA04F411FA0CF118BF3B
:1018E000012121430843A3EB0C01CB1D4FEA00610A
:1018F0004FEA102042BF002010BC704700EBC350DD
:1019000010440029A4BF10BC7047401C490008BF08
:1019100020F0010010BC704710B5141E73F10004D4
:1019200008DA401C41F1000192185B411A4301D1D1
:1019300020F0010010BD2DE9F04D92469B4611B1FB
:10194000B1FA81F202E0B0FA80F220329046FFF75D
:101950007BFF04460F4640EA0A0041EA0B0153466A
:101960005A46084313D0114653EA010019D0C8F172
:1019700040025046FFF777FF05460E46504659464F
:101980004246FFF761FF084305D0012004E02046EE
:101990003946BDE8F08D0020054346EAE0762C4349
:1019A00037430A986305E40AA0EB08000022FD0A09
:1019B00044EA47540A3002D500200146E9E7010510
:1019C00010196941DDE9084500196941BDE8F04D8C
:1019D000A2E72DE9F04D00231A461B1A8A4103DBCA
:1019E00000200146BDE8F08DC1F30A52C1F3130196
:1019F00041F480154FF0000BD10702D100186D4162
:101A0000521E0027044640F2FF11384601EB620ADD
:101A10003E468046024600204FF48011FFF723FF28
:101A2000C2197141BB1846EB0100B4EB030C75EB16
:101A3000000C04D3E41A65EB000517460E46241982
:101A400008F101006D4180463428E3DDF91946EBC9
:101A50000600091BA84103D24FF0FF32134601E0F4
:101A6000002213461BEB070046EB0A51BDE8F04D80
:101A7000FFF752BFC1F30A52C1F3130140F2FF3323
:101A800041F480119A4202DA00200146704740F288
:101A900033439A42A2F2334202DC5242FFF7E3BEE2
:101AA000FFF7D2BE30B5041E71F1000404DB4FF025
:101AB0000044404264EB0101141E73F1000405DB95
:101AC0001C464FF00043524263EB0403994208BFA7
:101AD000904230BD064C074D06E0E06840F001033F
:101AE00094E8070098471034AC42F6D3FEF750FB59
:101AF00028BF000848BF00080EB5C10F80EAE0709B
:101B00000844CA07002140F233438DE80E000A461C
:101B10000B46FFF710FF03B000BD10B50146806B08
:101B2000026C12F0500F05D0026CD20626D500F0E0
:101B3000ADFF10BD016C41F40071016401688A6859
:101B400012F0405F17D1027EAAB9CA6A12F4700F70
:101B500002D08A6852050ED44A6822F020024A60F8
:101B6000016C21F480710164016CC90403D4016C1F
:101B700041F00101016400F087FF10BD806BC26C71
:101B8000BDE810400846104710B5806B4021016445
:101B9000416C41F00401416400F078FF10BD10B5C4
:101BA000806B00F072FF10BD464910B54A6822F400
:101BB00040324A604A6843681A434A6001684A688A
:101BC00022F480724A6001684A68036942EA03228B
:101BD0004A6001684A6822F040724A6001684A68B7
:101BE00083681A434A6001688A6822F400628A6046
:101BF00001688A68C3681A438A60816A6FF07062FC
:101C0000D14201688A6822F070628A6001688A683D
:101C10000CD0836A1A438A6001688A6822F04052B5
:101C20008A6001688A68C36A1A4301E022F0405260
:101C30008A6001688A6822F002028A6001688A6804
:101C4000037E42EA43028A6090F82010002901686E
:101C50004A680FD042F400624A6001684A6822F480
:101C600060424A6001684A68174C436A04EB433398
:101C70001A4301E022F400624A600168CA6A22F451
:101C80007002CA620168CA6A838B104C04EB03536A
:101C90001A43CA6201688A6822F400728A60016885
:101CA0008A6890F8303042EA43228A6001688A6884
:101CB00022F480628A6001688A68406942EA802072
:101CC000886010BD0023014000E0FFFF0000F0FF2E
:101CD000FEE7000070B54FF400712F4801F0F3FBF0
:101CE0002E4800680068C00650D52DA004F024FAE4
:101CF000304831499FED321A90ED000A314C10EE18
:101D0000100A314DF7EE000A08442C49884213D8D6
:101D1000C0EE801A9FED2D2A20EE020A80EE802A66
:101D200031EE820A20EE010ABCEEC00A10EE100A63
:101D300081B2618026A023E010EE100A1E49C9433B
:101D4000884205DC28A004F0F7F961882AA017E092
:101D500010EE100A2E49884218DDC0EE801A9FED61
:101D60002D2A20EE020A80EE802A31EE820A20EE31
:101D7000010ABCEEC00A10EE100A81B2618026A0F2
:101D800004F0DAF929686088C862E860BDE870404C
:101D9000024801F01BB8000000140240A41000200B
:101DA000444D41B4ABCAE4CDEAB3C9D6D0B6CF0DE9
:101DB0000A00000000000020FFBF63B97F56FC034B
:101DC0004054094D0C000020741200200000C8424D
:101DD000313131313131D6D8D7B0D4D8D6B5203D14
:101DE0002025640D0A0000003232323232CAB5CAF0
:101DF000B1B2C9D1F90D0A003232323232D6D8D757
:101E0000B0D4D8D6B5203D2025640D0A00000000CE
:101E10008096984A00004842333333333333D6D860
:101E2000D7B0D4D8D6B5203D2025640D0A000000D7
:101E300001681823CAB2103AB2FBF3F2054B6FF3F4
:101E40000901032A9B5CC36500D9091D8165084609
:101E500070470000A876000810B5014600208B6985
:101E60008A6A4FF0C07453B1B3F5005F15D072B1F8
:101E7000012A0CD0022A0AD0032A09D104E01AB19F
:101E8000012A06D0022A03D1C96AC90100D501205E
:101E900010BDC96AA142FAD010BD002AF7D0012AAC
:101EA000F2D0022AF3D0032AF3D010BD30B5046873
:101EB000256825F480252560046863608368402BCD
:101EC000036803D099600068C26030BD9A60006802
:101ED000C16030BD704700002DE9F047DFF8A880F1
:101EE000DFF8A890324C00252DED0A8B4FF489774E
:101EF0009FED279B9FED28AB9FED29BB9FED2ACB44
:101F0000D8F814603046FFF742FC41EC180B39F862
:101F10001500FFF710FC53EC192BFFF72BFB53ECCC
:101F20001A2BFFF727FB53EC1B2BFFF723FB53EC7C
:101F3000182BFFF791FB53EC1C2BFFF718FBFFF757
:101F400007FC44F825006D1CBD42DBDD4FF47840F2
:101F5000C8F8000000E02DB9208881B21E2002F0F0
:101F6000FDFC012534F8250081B205F11E0080B288
:101F700002F0F4FC022001F09BF86D1CBD42EADD8A
:101F8000BDEC0A8BBDE8F0872C0000205C0000202F
:101F90006666666666660A40000000000000303F24
:101FA00000000000000039400000000000005E401A
:101FB000781500202DE9F047DFF8348419272DED3E
:101FC000028B82B04CF2186100243E464FF4A07997
:101FD000042540F2311AC8F8001009E0042C07D19A
:101FE000B90014310B464A461E2002F069FC052454
:101FF00004FB07F0143083B281B252461E200095D4
:1020000005F08AFA641C092CE8DB1E2700E034B9CD
:102010003846DC233A460A2102F052FC012404FB34
:1020200006F01E3082B280B2DC231421009505F048
:1020300073FA641C0C2CEADB0F2319220A211E20E0
:1020400002F03EFC0F2323220A211E2002F038FC5E
:1020500040F23B1578234C464A467321284602F04D
:102060002FFC782322467D21284602F029FCE149F5
:1020700045464FF48973088800EE100A00EE900A76
:102080000020B8EE400AF8EE600A88ED060AC8EDB6
:10209000070A00BF31F8102001EE102AB8EE411AED
:1020A000B4EEC01AF1EE10FA03D200EE102AB8EE28
:1020B000400A01EE102AB8EE411AB4EEE01AF1EE31
:1020C00010FA03DD00EE902AF8EE600A401C9842F8
:1020D000E0DDC5ED070A85ED060AF0EEE00AB0EE98
:1020E000C00A0C24F4EEC00AC5ED080AF1EE10FA9D
:1020F00085ED090A01DCF0EE400A10EE900AFFF7C8
:1021000046FB41EC180B9FEDBC0B53EC102BFFF77B
:1021100051FB4DD29FEDBA0ABAA085ED050ACDE973
:1021200000400C2314220F210A2002F0E7FFB6A082
:10213000CDE900400C23142228210A2002F0DEFF02
:10214000B2A0CDE900400C23142241210A2002F064
:10215000D5FFAFA0CDE900400C2314225A210A205C
:1021600002F0CCFFABA0CDE900400C231422732178
:102170000F2002F0C3FFA8A0CDE900400C231422D9
:102180008C21052002F0BAFFA5A0CDE900400C2368
:102190001422A521052002F0B1FFA3A0CDE9004043
:1021A0000C231422BE21052002F0A8FFA0A055E0B8
:1021B0009FEDA10B51EC180B53EC102BFFF7FAFA23
:1021C00053D29FED9F0A9FA085ED050ACDE90040FF
:1021D0000C2314220F210A2002F090FF9AA0CDE9CF
:1021E00000400C23142228210A2002F087FF85A03A
:1021F000CDE900400C23142241210A2002F07EFF89
:1022000082A0CDE900400C2314225A210A2002F0BA
:1022100075FF80A0CDE900400C23142273210F200C
:1022200002F06CFF7EA0CDE900400C2314228C212B
:10223000052002F063FF7EA0CDE900400C231422AC
:10224000A521052002F05AFF80A0CDE900400C2313
:102250001422BE21052002F051FF7EA0CDE90040EE
:102260000C231422D7210520B2E09FED7C0B51EC0A
:10227000180B53EC102BFFF79DFA4DD2B6EE000A67
:1022800085ED050A77A0CDE900400F210C2314222B
:10229000084602F033FF74A0CDE900400C2314225D
:1022A00028210A2002F02AFF70A0CDE900400C236B
:1022B000142241210F2002F021FF6DA0CDE9004042
:1022C0000C2314225A210A2002F018FF51A0CDE954
:1022D00000400C23142273210F2002F00FFF65A091
:1022E000CDE900400C2314228C21052002F006FFCA
:1022F00062A0CDE900400C231422A5210A2002F09F
:10230000FDFE5FA0CDE900400C231422BE21052074
:1023100002F0F4FE5CA055E09FED5C0B51EC180B55
:1023200053EC102BFFF746FA54D2B7EE000A85EDB6
:10233000050A58A0CDE900400F210C2314220846BD
:1023400002F0DCFE54A0CDE900400C231422282129
:102350000F2002F0D3FE43A0CDE900400C2314224D
:1023600041210F2002F0CAFE40A0CDE900400C231D
:1023700014225A210F2002F0C1FE26A0CDE9004010
:102380000C23142273210F2002F0B8FE3BA0CDE9EC
:1023900000400C2314228C210A2002F0AFFE3AA048
:1023A000CDE900400C231422A5210A2002F0A6FE4C
:1023B0003AA0CDE900400C231422BE210A2002F0ED
:1023C0009DFE37A0CDE900400C231422D7210A201E
:1023D00002F094FE33A0CDE900400C231422052125
:1023E000232002F08BFE02B0BDEC028BBDE8F0872B
:1023F0002C0000205C0000200000000000107F4046
:10240000CDCCCC3D302E3400302E3300302E320077
:10241000302E3100300000002D302E310000000041
:102420002D302E32000000002D302E330000000031
:102430002D302E34000000000000000000088F4006
:10244000CDCC4C3E302E3800302E36002D302E367E
:10245000000000002D302E380000000000000000B9
:102460000066A34032000000312E3500310000002C
:10247000302E35002D302E35000000002D310000AB
:102480002D312E35000000002D320000000000002C
:102490000001B04034000000330000002D33000084
:1024A0002D3400002F56000072B6FEE72DE9F041F2
:1024B00000252DED108B9FED538A9FED539B9FEDD3
:1024C00054DB9FED55EB9FED56FB574F4FF4806863
:1024D00018EE100AFFF75BF941EC1A0B2846FFF7DC
:1024E0002AF90E4646EC100B044653EC192B51EC1E
:1024F000100BFFF73FF853EC1D2BFFF73BF853ECA5
:102500001A2BFFF7A9F841EC100B03F04DFE53EC2A
:102510001E2B51EC100BFFF72DF841EC1C0B18EEA5
:10252000100AFFF734F946EC104B41EC1A0B53EC50
:10253000192B51EC100BFFF71DF853EC1F2BFFF775
:1025400019F853EC1A2BFFF787F841EC100B03F046
:102550002BFE9FED361B51EC100B53EC112BFFF7AC
:1025600009F841EC1B0B18EE100AFFF710F946ECC6
:10257000104B41EC1A0B53EC192B51EC100BFEF7DE
:10258000F9FF9FED2C1B53EC112BFEF7F3FF53ECDF
:102590001A2BFFF761F841EC100B03F005FE9FEDDD
:1025A000271B51EC100B53EC112BFEF7E3FF9FEDB3
:1025B000251B53EC112BFEF736FF53EC1B2BFEF7BC
:1025C00032FF53EC1C2BFEF72EFFFFF70BF900EE4A
:1025D000100ABDEEC00A10EE100A000447F82500EC
:1025E0006D1CADB24545FFF473AF0F49424601F58E
:1025F0008050FDF7E5FDBDEC108BBDE8F04103F028
:1026000055B800000050C3471C2D4454FB2119400D
:10261000000000004049D240000000000040AF40F0
:10262000000000000068C040C41900200000000045
:102630000088A3400000000000E07540000000009A
:10264000007097400000000000408F40002229B138
:1026500001291AD002291BD04FF440720E490B6891
:1026600023F440730B600B6813430B600A6822F07D
:10267000F8020A600A68022303EBC00002430A6002
:10268000086840F48030086070474FF48072E5E7D6
:102690004FF40072E2E70000103C0240134801686A
:1026A00089050FD5016821F400710160016841F4CA
:1026B00000610160016821F400610160016841F47A
:1026C00000710160016849050FD5016821F480613E
:1026D0000160016841F480510160016821F480517A
:1026E0000160016841F4806101607047003C024074
:1026F00008490A6822F440720A600A6842F004023B
:102700000A600A684FF4803343EA002002430A60FB
:1027100070470000103C0240064A136823F44073DF
:10272000136013681360136843F0010313600170B2
:1027300070470000103C0240094910B50C6824F4B1
:1027400040740C600C6844F440740C600C6844F0F5
:1027500001040C600260BFF36F8F436010BD000086
:10276000103C0240074A136823F440731360136857
:1027700043F480731360136843F001031360018016
:1027800070470000103C0240074A136823F440736E
:102790001360136843F400731360136843F001037C
:1027A0001360016070470000103C02401749086840
:1027B000C206174805D5C26942F01002C261102254
:1027C0000A600A68920605D5C26942F00802C26131
:1027D00020220A600A68520605D5C26942F0040246
:1027E000C26140220A600A68120605D5C26942F039
:1027F0000202C26180220A600A68920705D5C26996
:1028000042F02002C2610220086070470C3C024086
:102810004815002070B5114904460020C86100F039
:102820005FFE06460E4D09E0601C07D024B100F0A3
:1028300057FE801BA04201D9032070BD2868C00349
:10284000F2D42868C00701D001202860286810F061
:10285000F200F2D0FFF7AAFF012070BD481500205A
:102860000C3C024070B5B3F5804F05D06FF070415D
:1028700040F82210002070BD50F82240084B8E898D
:102880001C40D1E9003543EA05138D6889692D02A2
:1028900045EA06452B430B43234340F82230E9E742
:1028A0000000F0CFF0B50C6850F82430114A134006
:1028B000D1E90125D1E903672A433E4332434E69FA
:1028C00032438E693243CE6932430E6A32434E6AD6
:1028D00032438E6A3243CE6A3243CE6B096B324347
:1028E0000A431A43082D01D142F0400240F8242047
:1028F0000020F0BD8000F0FF30B500EB8202506890
:102900008D8900F04043D1E9000440EA04108C684E
:10291000240244EA054420430C8A074D05EB045485
:1029200020430C7D6D0105EB046489692043084355
:1029300018435060002030BD0000F0FF78B500243F
:10294000009490F83C20012A19D0012280F83C2004
:102950000A6807230568092A13D9EE680A3A02EBC8
:10296000420293409E43EE600B788A680A3B03EB79
:1029700043039A400368DD682A43DA6010E00220CE
:1029800078BD2E6902EB420293409E432E610B7884
:102990008A6803EB43039A4003681D692A431A615E
:1029A0004A681F23072A13D205686E6B521E02EB7A
:1029B000820293409E436E630B790A885B1E92B23B
:1029C00003EB83039A4003685D6B2A435A6327E055
:1029D00005680D2A12D22E6BD21F02EB82029340A1
:1029E0009E432E630B790A88DB1F92B203EB8303AD
:1029F0009A4003681D6B2A431A6311E0EE6A0D3A90
:102A000002EB820293409E43EE620B790A880D3BF3
:102A100092B203EB83039A400368DD6A2A43DA62C9
:102A2000164B0568144A9D4206D10D68122D03D13C
:102A3000556845F48005556005689D4218D10B68BE
:102A4000102B01D0112B13D1536843F400035360B2
:102A5000096810290CD10A490A4A0968B1FBF2F148
:102A600001EB8101490000E0491E00910029FBD1E2
:102A700080F83C40002078BD002301400020014048
:102A80002400002040420F0070477047704770B527
:102A900004004FF0000503D0206C002610B107E0C1
:102AA000012070BD204600F01DF8666484F83C608B
:102AB000206CC00610D4206C20F4885040F0020036
:102AC00020642046FFF770F86664206C20F0020056
:102AD00040F00100206400E0012584F83C602846B5
:102AE00070BD000070B586B0064614216846FEF73A
:102AF0008FFC1D493068884233D11C48002501688D
:102B000041F480710160006800F4807005901748FE
:102B10001438016841F0010101600068694600F065
:102B200001000590022000900320CDE90105104826
:102B300000F0CEFB104C0F48C4E900050015A5605D
:102B4000C4E90350800060618000C4E90605256285
:102B50002046656200F00AFA08B1FFF7A5FCB463ED
:102B6000A66306B070BD000000200140443802405A
:102B70000000024010640240A4100020F8B5044692
:102B800000200E46009094F83C10012907D0012146
:102B900084F83C1021688B68DB0702D011E002202A
:102BA000F8BD8B6843F001038B604049404B0968D6
:102BB000B1FBF3F101EB410100E0491E0091002956
:102BC000FBD121688B68DB0503D58B6823F4807308
:102BD0008B6021688B68DB075DD0236C40F2016558
:102BE000AB4343F4807323644968490505D5216CE0
:102BF00021F4005141F480512164216CC90404D5B1
:102C0000616C21F00601616400E0606484F83C00BE
:102C1000A16B2948274DC863A16B28480864A16BA4
:102C20002748C86421686FF0220008602068416866
:102C300041F0806141602068816841F48071816069
:102C40002168134632464C31A06B00F0F9F96868F0
:102C50001C49C006206806D0884224D1816811F042
:102C6000405F13D01FE08842F8D0174A904203D14A
:102C7000D1F80423D206F1D0144A904213D1D1F8EE
:102C8000041301F01F011029E8D30CE0816841F022
:102C90008041816007E0206C40F010002064606C8F
:102CA00040F0010060640020F8BD00002400002016
:102CB00040420F00002301401B1B00089F1B00081F
:102CC000891B000800200140002101400022014032
:102CD00010B50446002094F83C1001290CD00121C5
:102CE00084F83C1021688A6822F001028A60216819
:102CF0008A68D20702D01DE0022010BD8A6822F443
:102D000080728A60A16B91F83520022A07D10846AB
:102D100000F014F818B1216C41F0400121642168E1
:102D20004A6822F080624A60216C21F4885141F0A7
:102D300001012164002184F83C1010BD2DE9F0410F
:102D40000446876D00F0CCFB064694F8350000255C
:102D5000022806D08020606584F834500120BDE848
:102D6000F0812068016821F0160101602068416946
:102D700021F080014161206C08B9A06C20B120686D
:102D8000016821F0080101602068016821F001015B
:102D900001600BE000F0A4FB801B052806D9202071
:102DA000606504F8345F03206070D8E7206800682D
:102DB000C007EFD194F85C103F208840B86004F859
:102DC000345F012060700020C9E700002DE9F8435E
:102DD00004464FF00009CDF8009063484FF41651B7
:102DE000A56D0068B0FBF1F72E6894F85C10082020
:102DF00000FA01F131420FD021680A6852070BD561
:102E00000A6822F004020A6094F85C108840A86006
:102E1000606D40F00100606594F85C104FF00108AF
:102E200008FA01F0304208D021684969090604D542
:102E3000A860606D40F00200606594F85C100420AA
:102E40008840304208D021680968890704D5A86005
:102E5000606D40F00400606594F85C1010208840BC
:102E6000304218D021680968090714D5A860206885
:102E70000168490304D50068000308D5A16C07E088
:102E80000168C90503D4016821F008010160216CC3
:102E900009B12046884794F85C10202088403042D1
:102EA00031D021680968C9062DD5A86094F835008D
:102EB00005282068016806D0490347D5006800034B
:102EC0001DD4616C1CE021F016010160206841698D
:102ED00021F080014161206C08B9A06C20B120680C
:102EE000016821F00801016094F85C103F208840DF
:102EF000A86084F8349084F83580216D1FE0E16B80
:102F000009B120468847606D00282BD0606DC0074E
:102F100014D0052084F835002068016821F00101F3
:102F200001600098401C0090B84203D820680068F7
:102F3000C007F6D184F8349084F83580E16C00291C
:102F400010D001B02046BDE8F04308470168C9052C
:102F5000D5D4016821F01001016084F8349084F820
:102F60003580CCE7BDE8F883240000202DE9F0414E
:102F7000044600F0B5FA06465CB1002584F83450EA
:102F8000022084F835002068016821F00101016009
:102F90000DE00120BDE8F08100F0A2FA801B0528B9
:102FA00005D920206065032084F83500F2E7206809
:102FB0000068C007F0D12268116820480140D4E9B8
:102FC00001031843D4E903363343184363691843B4
:102FD000A3691843E3691843236A18430843616AE5
:102FE000042903D1D4E90B13194308431060206866
:102FF0004069666A20F0070130460E430127042825
:103000000CD1A06A0643E06A40B12046FEF724FFD7
:1030100020B14020606584F83570BAE720684661C9
:103020002046FEF705FF94F85C203F219140816027
:10303000656584F835700020ACE700003F8010F033
:103040002DE9F0410446866D90F8340000250128F2
:103050000DD0012084F8340094F835700020012F41
:1030600007D084F8340002252846BDE8F08102200C
:10307000FBE7022784F8357060652046FEF716FFEF
:1030800094F85C103F208840B0602068016841F0EF
:1030900016010160206C20B12068016841F0080130
:1030A00001602068016841F001010160DCE7000077
:1030B00070B5044600F014FA0546601C02D00448BE
:1030C0000078044400F00CFA401BA042FAD370BD13
:1030D000180000202DE9F047044622480F46017EE3
:1030E00001290AD00121804601764CF25039484628
:1030F000FFF790FB020003D02FE00220BDE8F0872D
:103100004FF0FF3038602068174D012801D0A668C5
:103110001CE0207C6168FFF7EBFA4846FFF77AFB7A
:103120000246286820F00400286014E0217C304624
:10313000FFF78CFA4846FFF76DFB0200286820F085
:10314000FA00286001D03E6005E0761CD4E9021048
:103150000844B042EAD8FFF7A1FA002188F8181015
:103160001046CBE748150020103C02400348016898
:1031700041F000410160002070470000103C024017
:103180002DE9F0471B4E05461446307E1F46894602
:10319000012808D0012030764CF250384046FFF725
:1031A00039FB18B114E00220BDE8F0879DB1012D74
:1031B00016D0022D19D022463B464846FFF7BCFAEE
:1031C0004046FFF727FB0C490A6822F001020A601B
:1031D00000213176E8E7E1B24846FFF79DFAEFE7D4
:1031E000A1B24846FFF7BEFAEAE721464846FFF794
:1031F000CBFAE5E748150020103C024007490020C3
:103200000A68002A09DA054A054B0C3A1360054B97
:1032100013600968002900DA01207047103C024061
:1032200023016745AB89EFCD2DE9F04186B014212C
:103230006846FEF7EDF820480168002938D10124DE
:1032400004601E48016841F00101016000684FF40C
:10325000805800F001000C27CDF80080CDE9047003
:10326000032602250396CDE901546946144800F06F
:103270002FF84FF68070CDE9000502AA694682E872
:10328000D000104800F024F84CF23370CDE900056E
:1032900002AA694682E8D0000B4800F019F802AA99
:1032A000694682E8D000CDE90085084800F010F8B2
:1032B00006B0BDE8F081000004000020383802406C
:1032C0000014024000100240000C024000180240AE
:1032D0002DE9F84FDFF8B8A1002201250AF1040B0F
:1032E00003264FF00F090BF1040E00BF0B6805FA1F
:1032F00002F42340A3426FD10F7907F00307012F97
:1033000001D0022F16D187684FEA420806FA08FC5E
:1033100027EA0C07D1F80CC00CFA08FC4CEA070CA1
:10332000C0F808C04768A7430C79C4F30014944060
:103330003C4344600C79E443A4070AD0C4684FEAD4
:10334000420C06FA0CF7BC438F6807FA0CF72743C8
:10335000C7600C7904F00304022C12D1D40800EBEE
:10336000840CDCF820405707FF0E09FA07F824EA1E
:103370000804D1F8108008FA07F848EA0408CCF8E5
:10338000208004684FEA420C06FA0CF7BC430F7920
:1033900007F0030707FA0CF7274307604C68E400BF
:1033A00070D53C4C276847F480472760246822F09A
:1033B000030704F480440094374C07EB040CDCF85A
:1033C000084897074FEA177809FA08F7BC43334FC4
:1033D000B84202D1002724E054E0314FB84201D175
:1033E00001271EE02F4FB84201D1022719E02E4FCE
:1033F000B84201D1032714E02C4FB84201D1042771
:103400000FE02B4FB84201D105270AE0294FB842FF
:1034100001D1062705E0284FB84201D1072700E077
:10342000082707FA08F72743CCF80878DAF80040AD
:103430005746D1F804C09C435FEACC3C00D51C43FE
:103440003C60DBF800405F46D1F804C09C435FEA73
:103450008C3C00D51C433C60DEF800407746D1F838
:1034600004C09C435FEACC2C00D51C433C60084F51
:103470000C373C68D1F804C09C435FEA8C2C00D523
:103480001C433C60521C102AFFF430AFBDE8F88F9B
:10349000003C01404438024000300140000002403E
:1034A0000004024000080240000C024000100240EC
:1034B0000014024000180240001C0240006908404D
:1034C00000D001207047426921EA02030A4043EA22
:1034D0000241816170470AB1816170470904FBE7CD
:1034E0000148806870470000180000200248816889
:1034F0000278114481607047180000200B4810B515
:10350000016841F400710160016841F4806101606B
:10351000016841F480710160032000F06FF8002021
:1035200000F006F800F024F8002010BD003C024036
:1035300070B50D4D04464FF47A712878B1FBF0F068
:103540000A490968B1FBF0F000F039FB48B9102CCA
:1035500007D200222146501E00F030F800206C6097
:1035600070BD012070BD0000180000202400002064
:103570000A4808B5016841F480410160006800F420
:10358000804000900548001F016841F080510160B3
:10359000006800F08050009008BD000044380240F0
:1035A000002809DB00F01F02012191404009800042
:1035B00000F1E020C0F8001170470000F0B40E4B9D
:1035C0001B680C46C3F30223C3F10705042D00D981
:1035D0000425191D072901D2002300E0DB1E012666
:1035E00006FA05F1491E214099409E40761E16407C
:1035F0003143F0BC02F0C8BD0CED00E0064900F01C
:10360000070208684FF6FF03184040EA0220034A09
:1036100010430860704700000CED00E00000FA0560
:103620002DE9F0470E46050065D0DFF81481D8F883
:103630000000F7B200F00700B04207D288F800702F
:10364000D8F8000000F00700B04254D128683D4C83
:10365000810712D5400703D5206840F4E050206070
:103660002878000703D5206840F460402060206877
:10367000A96820F0F000084320602878C0072DD00A
:10368000304968680839012812D0022813D003286D
:1036900011D00968890700292DDA216821F003017A
:1036A00001432160FFF71CFF814641F2883A0EE09A
:1036B00009688903EFE709688901ECE7FFF710FF64
:1036C000A0EB0901514502D90320BDE8F08720682D
:1036D000696800F00C00B0EB810FEFD1D8F8001052
:1036E000404601F00701B14207D90770006800F0B9
:1036F0000700B04201D00120E7E72878400705D550
:103700002068E96820F4E05008432060287800072A
:1037100006D52068296920F4604040EAC100206095
:1037200000F038F82168084AC1F30311515CC84021
:103730000649086006480068FFF7FAFE0020C4E763
:10374000003C024008380240B07600082400002007
:103750001C0000200448054900680968044AC1F3B8
:103760008221515CC8407047240000200838024084
:10377000C07600080448054900680968044AC1F396
:103780004231515CC8407047240000200838024094
:10379000C0760008154810B5006810F00C021448F7
:1037A00013D01449042A0FD0082A0ED10F4C241F1D
:1037B0002268236802F03F025B0207D52068C0F34D
:1037C0008810A0FB010106E0084610BD2168C1F386
:1037D0008811A1FB00010023FDF7E2FD2168C1F380
:1037E0000141491C4900B0FBF1F010BD083802400E
:1037F0000024F40040787D012DE9F84F04006ED0DC
:103800002078DFF84C93C007A9F104054AD009F1EC
:1038100004000168C1F38101012908D00068C0F3E8
:10382000810002280AD1D9F80000400206D5286894
:10383000800337D560680028E1D033E06068B0F5D8
:10384000803F10D0B0F5A02F286810D020F4803031
:103850002860286820F4802028606068A8B1FFF7FD
:103860003FFE06460DE0286840F48030F4E740F45F
:1038700080202860F7E700BFFFF732FE801B642836
:1038800073D828688003F7D50CE0FFF729FE0646B9
:1038900005E000BFFFF724FE801B6428F0D82868ED
:1038A0008003F7D42078DFF8AC8280074FF0000A5D
:1038B0003ED5A748001D016811F00C0F08D0006824
:1038C000C0F3810002280BD1D9F80000400207D4D0
:1038D0002868800716D5E068012800D112E033E19E
:1038E000E068B8B10120C8F80000FFF7F9FD06460E
:1038F00005E000BFFFF7F4FD801B0228C0D8286850
:103900008007F7D52868216920F0F80040EAC10057
:1039100028600DE0C8F800A0FFF7E2FD064604E0CD
:10392000FFF7DEFD801B02281FD828688007F7D428
:103930002078000722D5864F87486169703771B1BA
:1039400001210160FFF7CCFD064604E0FFF7C8FD4A
:10395000801B022809D838688007F7D50EE0C0F828
:1039600000A0FFF7BDFD064605E082E0FFF7B8FDC9
:10397000801B02287DD838688007F7D4207840075C
:1039800068D5DFF8CCB100270BF13C0BDBF8000069
:10399000C0000BD4DBF8001041F08051CBF80010D0
:1039A000DBF80000012700F0805000906B4E30687B
:1039B000C00510D4306840F480703060FFF790FD8F
:1039C000009005E0FFF78CFD0099401A022850D8BE
:1039D0003068C005F6D55E4EA0686C3601280FD061
:1039E0000528306810D020F001003060306820F0E9
:1039F00004003060A068B8B1FFF772FD00900FE0DE
:103A0000306840F00100F4E740F004003060F7E770
:103A1000FFF766FD0099411A41F28830814266D86D
:103A200030688007F4D50EE0FFF75AFD009007E0FC
:103A3000FFF756FD0099411A41F28830814256D86D
:103A400030688007F4D42FB1DBF8001021F08051EA
:103A5000CBF80010A069C8B33D49091D0968C1F33E
:103A6000810102294AD00228504607D0C8F86000D8
:103A700000E03CE0FFF734FD04463BE04746C8F871
:103A80006000FFF72DFD064605E000BFFFF728FDAB
:103A9000801B02282BD828688001F7D4D4E90701BD
:103AA0000843A16A2E4A490802EB0141626A41EAD1
:103AB0008211084394F82C1040EA0161C9F8001003
:103AC00001203866FFF70CFD044606E03EE000BF2B
:103AD000FFF706FD001B022809D828688001F7D5EA
:103AE00034E000BFFFF7FCFC001B022802D90320D2
:103AF000BDE8F88F28688001F4D427E00128F7D0CA
:103B0000D9F80000E26900F4800191421CD1226AD8
:103B100000F03F01914217D147F6C071626A01403F
:103B2000B1EB821F10D1A26A4FF0FF3300F4403195
:103B300003EB5202B1EB024F06D194F82C1000F0C7
:103B40007060B0EB016F01D00120D1E70020CFE71A
:103B50000438024000004742800E47420070004097
:103B60000000FFFF70B515460E46040003D094F820
:103B7000490010B107E0012070BD002084F8480022
:103B8000204600F01AF804F108012068FEF78AFECA
:103B90003146A2682068FEF7AFFED4E9010229464B
:103BA000236BFEF75FFEA168206850F8212042F0E9
:103BB000010240F82120002070BDFFF735BB10B591
:103BC000401EB0F1807F01D3012010BD4FF0E024F2
:103BD00060610F21601702F0D7FA0020A061072072
:103BE0002061002010BD70477047000070B590F84C
:103BF0003C20012A32D0012480F83C40022280F887
:103C00003D2003685A689D6822F070060A683243B6
:103C10005A60134B02689A4214D0B2F1804F11D00F
:103C2000104B9A420ED0104B9A420BD00F4B9A4237
:103C300008D00F4B9A4205D00E4B9A4202D00E4B41
:103C40009A4204D1496825F080031943916080F8B5
:103C50003D40002180F83C10084670BD022070BD38
:103C6000000001400004004000080040000C00403B
:103C700000040140004001400018004010B504005D
:103C800003D094F83D0010B107E0012010BD0020E2
:103C900084F83C00204600F01FF8022084F83D0024
:103CA000211D206801F082FF012084F8460084F87D
:103CB0003E0084F83F0084F8400084F8410084F816
:103CC000420084F8430084F8440084F8450084F8F6
:103CD0003D00002010BD000010B586B00446142140
:103CE0006846FDF795FB216800223C48B1F1804F02
:103CF00010D03B4B994217D1016841F0020101609D
:103D00000068114600F0020005901D20FFF756FCE8
:103D10001D202FE0016841F001010160006800F002
:103D20000100059006B010BD2E4B994225D10168C7
:103D300041F004010160006800F00400059027488C
:103D40001038016841F0080101600068694600F020
:103D500008000590581400900220CDE90102CDE939
:103D600003202148FFF7B4FA002211461E20FFF776
:103D700025FC1E20FFF714FCD4E71C4A91420ED10B
:103D8000016841F0080101600068002200F00800AD
:103D9000059011463220FFF711FC3220EAE7144A61
:103DA000914209D10D48001D016841F002010160F6
:103DB000006800F0020009E00E4A9142B2D10168A9
:103DC00041F040010160006800F0400000220590D1
:103DD00011462B20FFF7F2FB2B20CBE740380240A7
:103DE0000004004000080040000C0240000C0040AD
:103DF000000401400018004090F83D10012901D056
:103E000001207047022180F83D1000681149884266
:103E100014D0B0F1804F11D00F4988420ED00F4915
:103E200088420BD00E49884208D00E49884205D0FE
:103E30000D49884202D00D49884204D1816801F0C1
:103E40000701062903D0016841F00101016000204B
:103E500070470000000001400004004000080040DE
:103E6000000C0040000401400040014000180040E8
:103E700090F83D10012901D001207047022180F8FF
:103E80003D100168CA6842F00102CA600068114929
:103E9000884214D0B0F1804F11D00F4988420ED023
:103EA0000E4988420BD00E49884208D00D498842FD
:103EB00005D00D49884202D00C49884204D181685E
:103EC00001F00701062903D0016841F001010160FA
:103ED000002070470000014000040040000800403E
:103EE000000C004000040140004001400018004068
:103EF00070B5044690F83C00012817D0012584F8DD
:103F00003C50022084F83D002068826822F077024D
:103F100022F47F4282600868502830D00DDC2028CF
:103F20004DD005DC98B310283BD148E0022070BD8D
:103F3000302844D0402834D139E0602828D0702877
:103F400006D0B0F5805F2CD0B0F5005F29D10AE033
:103F5000CB68D1E90121206801F099FE20688168D1
:103F600041F0770109E0CB68D1E90121206801F037
:103F70008EFE2068816841F48041816011E0CA684A
:103F80004968206801F058FF5021206807E016E0DA
:103F9000CA684968206801F0A1FF6021206801F02B
:103FA00080FE84F83D50002084F83C0070BDCA6853
:103FB0004968206801F040FF40212068EFE722684F
:103FC00001461046EBE770472DE9F041054690F8B1
:103FD0003C000C46012836D0012085F83C008AB30D
:103FE000042A42D02868082A51D0D4E90023E16885
:103FF000066A26F480560662C669076A26F4407689
:1040000046EA03234FF6FF7606EA013123F47043B4
:1040100019434FF4204627F4204306EA02321A439C
:10402000C16102622868C16921F44061C1612868E8
:10403000C169A26841EA0221C161002085F83C0003
:10404000BDE8F08101E00220FAE7D4E90012E3685C
:10405000286801F003FF2868816921F00C01816163
:1040600028688169A26811430FE0D4E90012E3686F
:10407000286801F045FF2868816921F44061816169
:1040800028688169A26841EA02218161D5E7D4E903
:104090000027267B016A21F480710162C169036AED
:1040A00021F00301394321F0F00731074FF4206676
:1040B00047EA116123F4206306EA02221A43C16130
:1040C00002622868C16921F00C01C1612868C169D8
:1040D000A2681143B0E710B5040003D094F83D0086
:1040E00010B107E0012010BD002084F83C002046FC
:1040F00000F01EF8022084F83D00211D206801F028
:1041000055FD012084F8460084F83E0084F83F0005
:1041100084F8400084F8410084F8420084F84300A9
:1041200084F8440084F8450084F83D00002010BD68
:104130007047000010B5044651B104290DD008297C
:1041400010D094F8410094F84520012811D10EE0D8
:1041500094F83E0094F84220F7E794F83F0094F872
:104160004320F2E794F8400094F84420EDE7012A58
:1041700001D0012010BD022051B1042911D008291D
:1041800018D084F8410084F845000C291BD142E086
:1041900084F83E0084F842002068C26842F00202BF
:1041A00010E084F83F0084F843002068C26842F0C1
:1041B000040207E084F8400084F844002068C268E4
:1041C00042F00802C2600122206801F053FD144948
:1041D0002068884214D0B0F1804F11D01149884234
:1041E0000ED0114988420BD01049884208D010499E
:1041F000884205D00F49884202D00F49884204D135
:10420000816801F00701062903D0016841F001012E
:104210000160002010BD2068C26842F01002D1E7A2
:10422000000001400004004000080040000C004075
:1042300000040140004001400018004070B50446F1
:10424000006801694FF00005C943890715D4C168AA
:10425000C943890711D4E91E016101202077206834
:1042600080698007204602D0FFF7ADFE04E000F031
:10427000C1F8204600F050F9257720680169C9434C
:10428000490717D4C168C943490713D46FF0040123
:104290000161022020772068806910F4407F204669
:1042A00002D0FFF790FE04E000F0A4F8204600F0F2
:1042B00033F9257720680169C943090716D4C16815
:1042C000C943090712D46FF0080101610420207767
:1042D0002068C0698007204602D0FFF774FE04E022
:1042E00000F088F8204600F017F92577206801696A
:1042F000C943C90617D4C168C943C90613D46FF0AE
:1043000010010161082020772068C06910F4407F07
:10431000204602D0FFF757FE04E000F06BF820467D
:1043200000F0FAF8257720680169C943C90708D168
:10433000C168C943C90704D1891E0161204600F044
:1043400051F920680169C943090609D4C168C94304
:10435000090605D46FF0800101612046FFF743FC98
:1043600020680169C943490609D4C168C94349069F
:1043700005D46FF040010161204600F034F9206857
:104380000169C94389060BD4C168C943890607D4AA
:104390006FF0200101612046BDE87040FFF724BCAA
:1043A00070BD000010B586B0044614216846FDF7C4
:1043B0002FF82068B0F1804F15D10C480021026819
:1043C00042F002020260006800F00200059008203E
:1043D00000900220CDE901010120CDE903106946DA
:1043E0000348FEF775FF06B010BD000030380240EC
:1043F00000040240704770B5044690F83C000D463A
:1044000001280AD0012084F83C0042B1042A18D0C7
:10441000082A2AD00C2A4DD139E0022070BD20682C
:1044200001F048FC2068816941F008018161206841
:10443000816921F004018161206881692A69114341
:1044400011E0206801F066FC2068816941F4006198
:1044500081612068816921F48061816120688169BE
:104460002A6941EA0221816124E0206801F088FC88
:104470002068C16941F00801C1612068C16921F06B
:104480000401C1612068C1692A69114311E02068F3
:1044900001F0AAFC2068C16941F40061C161206893
:1044A000C16921F48061C1612068C1692A6941EA5A
:1044B0000221C161002084F83C0070BD10B50400E9
:1044C00003D094F83D0010B107E0012010BD00209A
:1044D00084F83C00204600F01EF8022084F83D00DD
:1044E000211D206801F062FB012084F8460084F859
:1044F0003E0084F83F0084F8400084F8410084F8CE
:10450000420084F8430084F8440084F8450084F8AD
:104510003D00002010BD70477047000010B50446F4
:10452000022249B104290ED0082913D094F8410081
:10453000012816D0012010BD94F83E000128F9D1C1
:1045400084F83E200FE094F83F000128F2D184F86F
:104550003F2008E094F840000128EBD184F8402087
:1045600001E084F841200122206801F083FB164914
:104570002068164A884201D0904203D1436C43F42C
:10458000004343642068884213D0B0F1804F10D0BC
:104590000F4988420DD00F4988420AD00E498842FF
:1045A00007D0904205D00D49884202D00C4988427C
:1045B00004D1816801F00701062903D0016841F0A8
:1045C00001010160002010BD000001400004014015
:1045D0000004004000080040000C00400040014082
:1045E000001800407047704770B5040004D094F87C
:1045F0003D00002510B106E0012070BD84F83C505C
:10460000204600F023F8242084F83D002068C1688B
:1046100021F40051C160204601F08EFC2068016940
:1046200021F4904101612068416921F02A01416132
:104630002068C16841F40051C1602564202084F8DD
:104640003D0084F83E00002070BD000010B586B02B
:10465000044614216846FCF7DBFE144920688842B2
:1046600021D113480021026842F010020260006864
:1046700000F0100005900E481438026842F0010264
:104680000260006800F0010005904FF4C0600090E7
:104690000220CDE901010320039007200490694620
:1046A0000448FEF715FE06B010BD000000100140E2
:1046B00044380240000002402DE9F843044690F8D7
:1046C0003D001F4616460D4620284CD1C5B1BEB14F
:1046D00094F83C00012846D0012084F83C004FF0BB
:1046E0000008C4F84080212084F83D00FEF7F8FE61
:1046F000A6848146E684A068B0F5805F03D004E01C
:104700000120BDE8F883206928B12E465FF000053E
:1047100084F83C800EE00026FAE78021204601F074
:1047200091FCA0B9AEB116F8010B21684860E08C8D
:10473000401EE084E08C4B464FF0000200970028BA
:10474000EBD14FF04001204601F07CFC30B103205A
:10475000D7E735F8020BC0F30800E6E7202084F81D
:104760003D000020CDE70220CBE7FEE72DE9F04732
:104770000126264C7702DFF89890264D4FF480787A
:10478000012818D0207878B139462846FEF796FEE1
:1047900098B141462846FEF791FE70B10121484686
:1047A000FEF78CFE012808D039462846FEF786FE23
:1047B00001281CD027E02670E6E70020207039464B
:1047C0002846FEF77BFE58B141462846FEF776FEA6
:1047D00048B101214846FEF771FE012805D012E0DC
:1047E0000120BDE8F0870220FBE70420F9E74146FD
:1047F0002846FEF763FE012805D101214846FEF751
:104800005DFE00B926700020EBE7000028000020C4
:10481000000002400004024070B50B490646002427
:1048200008884D8821464543204600F073FB00F080
:10483000A7FCB0B24FF0D84103E000BFA1F8800060
:10484000641CAC42FAD370BD681500202DE9F0035A
:104850001A492C250A4688712A2692882B274FF45C
:10486000F0794FF0F00C49F241384FF4A07345F263
:10487000103498B10B80A1F802C0424501D0A24289
:1048800002D10D814E818F81A24202D1A1F8009008
:104890004B80BDE8F003002000F060BAA1F800C032
:1048A0004B80424501D0A242F3D10D814E818F81D0
:1048B000A242EED10B80A1F80290EAE76815002031
:1048C0002DE9FE4F161ACDE900104FF000085D1AD1
:1048D00047464FF0FF30002E02DD4FF0010102E0AD
:1048E00003D14FF000018B4602E08346C6F100067B
:1048F000002D02DD4FF0010002E003D14FF0000077
:10490000824602E08246C5F10005AE4201DD344632
:1049100000E02C46601C4FF00009029018E000985F
:1049200081B2019880B200F019F8B0442F44A0453C
:1049300004DD0198A8EB040858440190A74203DD68
:1049400000983F1B5044009009F101001FFA80F9C4
:1049500002998945E3DDBDE8FE8F000000B500F057
:10496000D9FA00F00DFC03484FF0D8410088A1F8B7
:10497000800000BD2C00002070B5124E05460C468C
:10498000B088A0F51341413903D0A0F5A6411039F4
:1049900011D1708900F0E8FB280A00F0D9FBE8B2D9
:1049A00000F0D6FBB08900F0DFFB200A00F0D0FB5E
:1049B000E0B200F0CDFB4FF0D840318920F87E1FE7
:1049C000428070BD681500202DE9F0413220FEF7CD
:1049D0006FFBD32000F0C8FB00F0B6F9D84CA080E4
:1049E00000F0B2F9A08000F0AFF94FF6FF7202EAD2
:1049F0000020A08000F0A8F9A18849F241350843C1
:104A0000A08041F6631845F2103745F21056A842CF
:104A100046D0D42000F0A8FB00F096F9A08000F06A
:104A200093F9A08000F090F902EA0020A08000F045
:104A30008BF9A1880843A080B84231D04FF45A4086
:104A400000F092FB00F080F9A0804FF45B4000F092
:104A50008BFB00F079F902EA0020A0804FF45C4063
:104A600000F082FB00F070F9A1880843A080B0F547
:104A7000004F7DD0B04213D0A12000F075FB00F0B4
:104A800063F9A08000F060F902EA0020A08000F045
:104A90005BF9A1880843A0F5AE41A080613968D0D8
:104AA00080B2A84266D1CF2000F05EFB002000F06B
:104AB0004FFBC12000F04CFB302000F049FBED2003
:104AC00000F052FB642000F043FB032000F040FBA9
:104AD000122000F03DFB812000F03AFBE82000F0BE
:104AE00043FB852000F034FB102000F031FB7A20DE
:104AF00000F02EFBCB2000F037FB392000F028FB24
:104B00002C2000F025FB002000F022FB342000F0D8
:104B10001FFB022000F01CFBF72000F025FB2020EB
:104B200000F016FBEA2000F01FFB002000F010FB55
:104B3000002000F00DFBC02000F016FB1B2000F051
:104B400007FBC12000F010FB012000F001FBC52095
:104B500000F00AFB302000F0FBFA302000F0F8FAF9
:104B6000C72000F001FBB72000F0F2FA362002E087
:104B7000E3E0DFE0AFE000F0F7FA482000F0E8FA09
:104B80003A2000F0F1FA552000F0E2FAB12000F0EE
:104B9000EBFA002000F0DCFA1A2000F0D9FAB62077
:104BA00000F0E2FA0A2000F0D3FAA22000F0D0FAD6
:104BB000F22000F0D9FA002000F0CAFA262000F016
:104BC000D3FA012000F0C4FAE02000F0CDFA0F2063
:104BD00000F0BEFA2A2000F0BBFA282000F0B8FA54
:104BE000082000F0B5FA0E2000F0B2FA082000F01C
:104BF000AFFA542000F0ACFAA92000F0A9FA432043
:104C000000F0A6FA0A2000F0A3FA0F2000F0A0FAA4
:104C1000002000F09DFA002000F09AFA002000F039
:104C200097FA002000F094FAE12000F09DFA0020AD
:104C300000F08EFA152000F08BFA172000F088FAA9
:104C4000072000F085FA112000F082FA062000F01B
:104C50007FFA2B2000F07CFA562000F079FA3C20F5
:104C600000F076FA052000F073FA102000F070FAD8
:104C70000F2000F06DFA3F2000F06AFA3F2000F0AC
:104C800067FA0F2000F064FA2B2000F06DFA002084
:104C900000F05EFA002000F05BFA012000F058FA04
:104CA0003F2000F055FA2A2000F05EFA002000F0C4
:104CB0004FFA002000F04CFA002000F049FAEF20F3
:104CC00000F046FA112000F04FFA7820FEF7F0F9D4
:104CD000292000F049FAA088A84205D0B84203D0A4
:104CE000B04201D0404519D14FF02040D0F81C11FE
:104CF00021F00F01C0F81C11D0F81C1121F47061D3
:104D0000C0F81C11D0F81C1141F00301C0F81C11AF
:104D1000D0F81C1141F40071C0F81C110120FFF7FC
:104D200095FD08490120C1F8BC02BDE8F041002012
:104D3000FFF772BDA4F80480D6E7A680D4E7000090
:104D4000681500200080404208B54FF0D840B0F808
:104D50008000ADF80000BDF8000008BDF0B56C4C57
:104D600000232146A279898841F66316012A01D0E1
:104D70001AB11BE0B14202D118E0B14216D10828A5
:104D800014D2DFE800F00406080A0C0E1012062008
:104D90000CE007200AE0042008E0052006E00120DE
:104DA00004E0002002E0032000E00220A1F5134708
:104DB00045F2103245F21055413F05D0914203D0E3
:104DC000A94201D0B14277D1082812D2DFE800F021
:104DD000110406080A0C0E1080230AE0402308E0A4
:104DE000C02306E0202304E0602302E0A02300E0CB
:104DF000E023A94202D14FF4585000E036209142FE
:104E000005D0A94203D0B14201D043F008031946AE
:104E100000F0C0F9A188B1420AD0980620886288C3
:104E200002D5904202D303E0904201D922806080F3
:104E30006089A94241D100F097F9002000F088F97B
:104E40006089401C80B200F08FF9002000F080F9EA
:104E50006089801C80B200F087F92088401EC0F372
:104E60000F2000F075F96089C01C80B200F07CF959
:104E70002078401EC0B200F06BF9A08900F074F9F0
:104E8000002000F065F9A089401C80B200F06CF9A8
:104E9000002000F05DF9A089801C80B200F064F968
:104EA0006088401EC0F30F2000F052F9A089C01C9A
:104EB00080B200F059F922E028E000F055F9002016
:104EC00000F046F9002000F043F92088401EC0F3AE
:104ED0000F2000F03DF92078401EC0B200F038F9F4
:104EE000A08900F041F9002000F032F9002000F024
:104EF0002FF96088401EC0F30F2000F029F9A07838
:104F0000BDE8F040401EC0B200F022B9F0BD000084
:104F100068150020F0B53F4A0D460446060A918800
:104F200010462F0A4089A1F51343413B28D0A1F533
:104F3000A643103B24D0A1F5C853633B2FD0A1F565
:104F4000AA43103B64D100F00FF9304600F000F99D
:104F50005089401C80B200F007F9E0B200F0F8F888
:104F6000908900F001F9384600F0F2F89089401C71
:104F700080B200F0F9F8E8B2BDE8F04000F0E8B81F
:104F800000F0F2F8304600F0E3F8E0B200F0E0F8AC
:104F9000908900F0E9F8384600F0DAF8EBE791790B
:104FA00029B300F0E1F8304600F0D2F8E0B200F0AA
:104FB000CFF81088401EC0F30F2000F0C9F8107819
:104FC000401EC0B200F0C4F8908900F0CDF8384619
:104FD00000F0BEF8E8B200F0BBF85088401EC0F305
:104FE0000F2000F0B5F89078401EC0B2C4E71188D9
:104FF000091B491E8CB200F0B7F8002000F0A8F899
:10500000002000F0A5F8200A00F0A2F8E0B2D9E7ED
:10501000F0BD0000681500202DE9FF4F1D460C462D
:105020008A46580700D0012000EBD500690810FB24
:1050300001F0203A00F0FF09D0B20026DFF8A4B05A
:1050400002904BE00C2D11D0102D14D0182D17D03C
:10505000202D45D12449029801EBC0104FF00008E3
:10506000875D380613D52148026814E0029820496C
:1050700000EB400008E01F49029801EB0010EDE74B
:1050800002981D4900EBC00001EB8000E6E70D9897
:1050900028B91648426821460098FFF76DFC78064B
:1050A000070E641CBBF80200A4B2A04218D9A4EBFE
:1050B0000A00A84209D100985446401C80B20090D2
:1050C000BBF8001081420BD906E008F1010000F0A6
:1050D000FF08B8F1080FC4D3761CF6B24E45B1D321
:1050E000BDE8FF8F68150020888E00082C00002086
:1050F000C87600083C7B00082C8100082DE9F84F99
:10510000044600F0FF0910190D46DDE90AB61FFA42
:1051100080F8581987B24FF0010A12E0444503D3D2
:1051200005EB0B004C4685B2BD420FD25B462946CB
:105130002046CDF800A0FFF76FFF04EB5B0084B2C0
:10514000761C3278A2F120005E28E7D9BDE8F88FFE
:1051500001B5BDF80000ADF80000BDF800004FF04B
:10516000D841A1F8800008BD01B5BDF80000ADF838
:105170000000BDF800004FF0D841A1F87E0008BD46
:1051800003484FF0D8410089A1F87E007047000025
:10519000681500204FF0D84222F87E0F51807047EA
:1051A0007FB5002415480094019402941249039499
:1051B000C0E9001484600461047680F820404FF058
:1051C0008051C1620125C5614FF06061C460816298
:1051D00080F830504561FDF75AFC08B1FDF764F9DD
:1051E0000095CDE9015469460448FDF7A7FB002866
:1051F00001D0FDF759F97FBD002001405C1000206F
:10520000094808B5016841F4800101600068002286
:1052100000F48000009011463820FEF7CFF9BDE879
:1052200008403820FEF7BCB93038024010B58EB0C7
:105230001C216846FCF7ECF81C2107A8FCF7E8F8ED
:105240001A484FF02041102201601949416006219F
:1052500081600021C160C0E904128161C161130253
:105260000162C0E909139302C0E90B134163816332
:1052700041640F203C230090CDE9010303AC1123CE
:1052800084E80E0003240691CDE9074009AC022012
:1052900084E80F000D9107AA69460448FEF762FCF6
:1052A000002801D0FDF700F90EB010BD0411002058
:1052B000040100A02DE9F04186B014216846FCF7F6
:1052C000A7F838480025016841F020010160016815
:1052D00001F020010591016841F080010160016841
:1052E00001F080010591016841F001010160016850
:1052F00001F001010591016841F0100101600168B0
:1053000001F010010591016841F00201016001689E
:1053100001F002010591016841F008010160016896
:1053200001F008010591016841F040010160006849
:105330001D4F00F040004FF40074059000222146FC
:105340003846FEF7C8F8DFF86480A601002231462F
:105350004046FEF7C0F8009401240320CDE9024046
:10536000694601943846FDF7B3FF02200094CDE969
:10537000015069460E48FDF7ABFF0096CDE90145A7
:10538000694640460395FDF7A3FF4FF44070CDE911
:105390000005694602944046FDF79AFF06B0BDE855
:1053A000F081000030380240001402400004024046
:1053B000000002401FB500211048009101910291A8
:1053C0000D4A0391C0E900214FF46162C0E9021265
:1053D000016180218161FEF751FC08B1FDF764F89D
:1053E0004FF48050009069460448FEF781FD002884
:1053F00001D0FDF759F81FBD00180040BC12002075
:1054000010B58EB000240794089409940A940B9464
:105410001C2168460C94FBF7FBFF1F484FF08041AE
:10542000C0E9001440F28331C0E9024180210461E7
:105430008161FEF723FC08B1FDF736F84FF4805088
:10544000079007A91448FEF753FD08B1FDF72CF8A3
:105450001148FFF733F808B1FDF726F80B940BA9B4
:105460000D480C94FEF7C2FB08B1FDF71DF8602053
:1054700000904FF4E170CDE901040422694606482A
:105480000494FEF7B8FF08B1FDF70EF80248FEF7E6
:1054900089FF0EB010BD00005411002010B586B079
:1054A0000021174800910191029103910491134A40
:1054B0000591C0E900214FF4E152C0E902128024B5
:1054C00084610161FEF7DAFB08B1FCF7EDFF4FF4F0
:1054D0008050009069460A48FEF70AFD08B1FCF7C3
:1054E000E3FF2020CDE9040404A90548FEF77EFB74
:1054F000002801D0FCF7D8FF06B010BD0004004022
:105500009C11002010B58AB000242348049405940F
:1055100006940794089409940094019402941D49F8
:10552000039401604721C0E901144FF6FF71C0E9FF
:10553000031480218161FEF7A1FB08B1FCF7B4FFE1
:105540004FF48050049004A91348FEF7D1FC08B131
:10555000FCF7AAFF1048FEF7BEFD08B1FCF7A4FF58
:10556000089408A90C480994FEF740FB08B1FCF721
:105570009BFF0120CDE900400294042269460648C1
:105580000394FEF721FD002801D0FCF78DFF0AB03F
:1055900010BD000000080040E411002010B586B0E6
:1055A000002418480094019402940394049414492C
:1055B0000594016042F21071C0E901144FF4615189
:1055C000C0E9031480218161FEF758FB08B1FCF7A4
:1055D0006BFF4FF48050009069460A48FEF788FC44
:1055E00008B1FCF761FF049404A906480594FEF78E
:1055F000FDFA002801D0FCF757FF06B010BD0000EF
:10560000000C00402C12002010B586B00021184874
:1056100000910191029103910491144A0591C0E90E
:1056200000214FF6FF72C0E9021280240161C0E937
:105630000514FEF723FB08B1FCF736FF4FF480504A
:10564000009069460A48FEF753FC08B1FCF72CFFAE
:105650002020CDE9040404A90548FEF7C7FA002874
:1056600001D0FCF721FF06B010BD0000000401408E
:10567000741200200C4810B50A4901604FF4E13162
:105680004160002181600C22C160C0E90412816187
:10569000C161FEF7A9FF002803D0BDE81040FCF768
:1056A00003BF10BD00100140041300202DE9F0419C
:1056B000294D00242DED048B05F500664FF400778D
:1056C0009FED268ADFED268A9FED269B55F8241054
:1056D00008B200EE100A0914B8EEC00A20EE080A5B
:1056E00020EE281A00EE101AB8EEC00A20EE080AC2
:1056F00060EE280A21EE010A00EEA00A10EE100A60
:10570000FCF745F841EC100B00F0B2FD53EC192BFF
:1057100051EC100BFBF72EFFFCF764F800EE100ABB
:105720008CB1DFED120A20EE200ABCEEC00A10EEAA
:10573000100A46F82400641CA4B2BC42C6D3BDECD7
:10574000048BBDE8F081DFED0A0A20EE200ABCEEF2
:10575000C00A86ED000AEEE7C4290020000080445C
:1057600000000038000000000000503F00008047AB
:1057700000000047FEE7FEE7704700001C49884232
:1057800001D2002070471B49884201D20120704796
:105790001949884201D2022070471849884201D233
:1057A000032070471649884201D2042070471549EA
:1057B000884201D2052070471349884201D2062051
:1057C00070471249884201D2072070471049884229
:1057D00001D2082070470F49884201D20920704742
:1057E0000D49884201D20A2070470B207047000003
:1057F000004000080080000800C000080000010808
:105800000000020800000408000006080000080864
:1058100000000A0800000C0800000E0810B5002364
:1058200003E010C841F823405B1C9342F9D310BD3C
:105830002DE9F04F87B04FF0000817460E4604469A
:10584000CDF81480B0F1006F38D3A00736D1FDF742
:10585000D5FC1C48254604EB87074CF2503984429E
:1058600015D24FF0010A4FF0020BBD420FD228684B
:10587000401C11D02846CDF80080FFF77FFF02AA18
:1058800005A982E8010C6846FDF724FC28B14846CA
:10589000FCF7C0FF70B10FE02D1D4846FCF7BAFFC2
:1058A000E3E70023214602203268FDF769FC18B9BE
:1058B000241D361DBC42F4D3FDF758FC07B0BDE8EB
:1058C000F08F00000000FF1F7047FDF70FBE0000C3
:1058D00030B593B030216846FBF79AFD14210CA82F
:1058E000FBF796FD1D480025016841F080510160DD
:1058F000006800F0805011901948016841F480411F
:1059000001600068022400F480401190012003909F
:1059100010200490009406940820CDE907509020B0
:10592000CDE9090404200B906846FDF765FF08B136
:1059300072B6FEE70CA90F2081E831004FF4A050A9
:105940000F904FF48050109004210CA8FDF768FED2
:10595000002801D072B6FEE713B030BD40380240D7
:10596000007000400248016841F470010160704716
:1059700088ED00E02DE9F047294F01242DED048B3F
:105980009FED258BF868FBF7D6FE89464FEA0008A5
:1059900049EC198B57F82400FBF7CDFE0E4646EC78
:1059A000100B054653EC192B51EC100BFBF754FE72
:1059B00049EC108B46EC115B41EC190B53EC102BAE
:1059C00051EC110BFBF748FE53EC192BFBF7D2FD02
:1059D00053EC182BFBF727FD641D41EC180BA4B208
:1059E000FF2CD5D951EC180B9FED0E0B53EC102B5F
:1059F000FBF7BAFD41EC100B00F03AFC9FED0B1BDE
:105A000051EC100B53EC112BFBF7B4FDBDEC048BE8
:105A100041EC100BBDE8F087000000000000000022
:105A2000C4310020000000000000F03F0000000032
:105A3000000059400148FEF701BC00009C11002005
:105A400003484168491C41600248FEF7F7BB00006B
:105A50000C000020E41100200948DFED0A0A0021B3
:105A600090ED010AB8EE400A80EE801A80ED021A2D
:105A700041600548006841620348FEF7DFBB000053
:105A80000C000020002474492C1200202DE9F04164
:105A90000020FEF76BFE304D304C4FF4FA570128D2
:105AA00005D00126022812D004284DD120E06088BC
:105AB00000F5FA7081B2618029A000F03DFB60889A
:105AC000B84202D3A0F5FA70608080B20CE0608822
:105AD000A0F5FA7081B2618025A000F02DFB6088EE
:105AE000B84200D3668060882968C862E8602BE00D
:105AF0002078234F4FF4807510B1012813D023E094
:105B00002048FDF7E5F82A461F493846FFF790FE82
:105B10004FF480621C491B48FDF730F81BA000F0D1
:105B20000BFB267010E02A461B493846FFF776FE2D
:105B3000194E002519A036F8151000F0FDFA6D1C5D
:105B4000FF2DF7DD002020700348FEF777FBBDE84E
:105B5000F0411548FEF772BB741200200C000020C3
:105B60004B455930B0B4CFC22025640D0A00000067
:105B70004B455931B0B4CFC22025640D0A00000056
:105B8000000001085C1000205C000020D0B4C8EBCD
:105B9000B3C9B9A60D0A000048130020B6C1B3F678
:105BA000203D2025640D0A00BC120020F0B50268DB
:105BB000254C264D264E274F274B4FF0804CA042B8
:105BC00009D0604507D0A84205D0B04203D0B84202
:105BD00001D0984204D122F0700E4A6842EA0E02C7
:105BE000A0421BD0604519D0A84217D0B04215D0B2
:105BF000B84213D0984211D0184DA8420ED0184D7B
:105C0000A8420BD0174DA84208D0174DA84205D086
:105C1000164DA84202D0164DA84203D122F4407579
:105C2000CA682A434D6922F080022A4302608A68CA
:105C3000C2620A688262A04201D0984201D1096919
:105C4000016301214161F0BD0000014000040040FA
:105C500000080040000C00400004014000400140EA
:105C6000004401400048014000180040001C004072
:105C70000020004010B501F01F030121046A994083
:105C80008C430462016A9A401143016210BD10B551
:105C9000846842EA032224F47F440A432243826058
:105CA00010BD826822F070020A4342F00701816051
:105CB00070470000F0B5026A22F001020262036A36
:105CC00042688469124E24F073050C682C4323F05B
:105CD00002058B682B430D4DA84201D0B04205D17F
:105CE00023F00807CB683B4323F00403A84201D00C
:105CF000B04205D14D6922F4407215438A692A43A6
:105D000042608461496841630362F0BD0000014064
:105D100000040140F0B5026A22F010020262026A39
:105D2000436884690D6824F4E64444EA05248D68D8
:105D300022F0200242EA05120F4D104EA84201D077
:105D4000B04206D1CF6822F0800242EA071222F068
:105D50004002A84201D0B04207D14D6923F440630C
:105D600043EA85038D6943EA85034360846149689A
:105D700081630262F0BD00000000014000040140A8
:105D8000F0B5026A22F480720262026A4368C46952
:105D900022F4007224F073050C68124E2C438D68B7
:105DA00042EA05220E4DA84201D0B04206D1CF688A
:105DB00022F4006242EA072222F48062A84201D063
:105DC000B04207D14D6923F4405343EA05138D696E
:105DD00043EA05134360C4614968C1630262F0BDD0
:105DE000000001400004014030B5026A22F48052F4
:105DF0000262046A4268C3690D6823F4E64343EA19
:105E000005238D6824F4005444EA0534084DA84263
:105E100002D0084DA84204D14D6922F4804242EAE2
:105E200085124260C36149680164046230BD0000AC
:105E3000000001400004014010B5036A046A24F028
:105E400001040462846924F0F00444EA021423F09B
:105E50000A020A438461026210BD000070B5046A40
:105E600024F0010404628469056A154EB04214D01E
:105E7000B0F1804F11D0134EB0420ED0124EB0424E
:105E80000BD0124EB04208D0114EB04205D0114E88
:105E9000B04202D0104EB04203D124F003041443A8
:105EA00001E044F001041A0724F0F00444EA12620D
:105EB00025F00A0301F00A0119438261016270BDF5
:105EC000000001400004004000080040000C0040B9
:105ED00000040140004001400018004010B5036A72
:105EE00023F0100303628369046A23F4704343EAD6
:105EF000023224F0A00343EA01118261016210BD65
:105F000030B5046A24F0100404628469056A24F43C
:105F1000407444EA022222F470444FF6FF7202EA0F
:105F200003322243A02425F0A00304EA01111943FF
:105F30008261016230BD000070B5044600680169ED
:105F4000E26821F44051114301612169A068E269CE
:105F500008436169114308432168CA6849F20C6328
:105F60009A430243CA6020684169A26921F44071E2
:105F70001143416131492068884202D0304988424A
:105F800002D1FDF7F7FB01E0FDF7E4FBE269002336
:105F9000192164253226B2F5004F626828D0A0FB93
:105FA0000101930F9200FBF7FBF90146B0FBF5F0FE
:105FB0006FF01802504301EB800006EB0010B0FBBD
:105FC000F5F000F0F002B1FBF5F002EB0012B1FBCE
:105FD000F5F06FF01803584301EB800006EB00105A
:105FE000B0FBF5F000F00F0021681044886070BD30
:105FF000A0FB010192185B41FBF7D2F90146B0FB0F
:10600000F5F00201B1FBF5F06FF01803584301EB16
:10601000800006EBC000B0FBF5F000F0F80002EBEA
:106020004002B1FBF5F0584301EB800006EBC000E5
:10603000B0FBF5F000F00700D6E7000000100140CB
:10604000001401402DE9F041984617460E460446DB
:10605000069D1DE0681C1BD02DB1FDF741FAA0EB99
:106060000800A84214D92068C16821F4D071C16029
:106070002068416921F001014161202084F83D0040
:1060800084F83E00002084F83C000320BDE8F08145
:106090002068006836EA000004D00020B842D9D059
:1060A0000020F3E70120F9E7FEE700002DE9F04FBB
:1060B0004FF0190A4FF0050B4CF218671C4E1D4D9E
:1060C0004FF01E094FF4897800E034B93760288812
:1060D00081B24846FEF742FC012455F82400782896
:1060E00023D0514694FBF1F20AFB124222B990FBF5
:1060F000FBF30BFB1302C2B1A0F1780292FBF1F3A8
:106100000AFB132121B994FBFBF20BFB124161B195
:106110000021316081B204F11E0080B2FEF71EFC46
:10612000641C4445D1DDBDE8F08F3760F2E7000024
:106130002C000020781500200FB4054B10B503A9E2
:10614000044A029800F0C0FD10BC5DF814FB00008A
:10615000A17400085400002003B401984100009885
:1061600050EAC12018BF04204A0D18BF40F00100BA
:1061700040F2FF72B2EB515F08BF40F0020001280D
:1061800008BF052002B070470907090E002804DB8C
:1061900000F1E02080F80014704700F00F0000F1DB
:1061A000E02080F8141D704710B52F499FED2C1B7F
:1061B0002DED020B84B0059820F000408842DCBF32
:1061C00000209DED040B32DD2849884209D1049856
:1061D00040B94FF0010000F0AFFC00F07DFC06B0CC
:1061E00010BD05DB9DED040B00F06AFC06B010BD90
:1061F00068469DED040B00F07BF810F0030011D011
:10620000012818D09DED021B9DED000B02281AD02D
:1062100000F08AFA51EC100B81F0004106B041EC1D
:10622000100B10BD9DED021B9DED000B012000F039
:10623000AFFB06B010BD9DED021B9DED000B00F005
:1062400073FA06B010BD012000F0A2FB51EC100B58
:1062500081F0004106B041EC100B10BD00000000C1
:106260000000000000000000FB21E93F0000F07F7B
:1062700000B52DED048BB0EE409AF0EE609A83B03D
:1062800051EC190BFBF7A5FB41EC180B18EE100AAB
:1062900018EE901A8DED008B002818BF01200843DE
:1062A00020F00040C0F17F6000F1E040C00F14D04A
:1062B00019EE101A19EE900A8DED009B002918BFF7
:1062C0000121084320F00040C0F17F6000F1E04070
:1062D000C00F04BF012000F02FFCB0EE480A03B04D
:1062E000F0EE680ABDEC048B00BD00000000000069
:1062F0002DE9F14F04462DED020B2DED088B8AB0F0
:106300009FEDE70B80ED020B139EE74826F000455A
:1063100085420ADC9DED120B002084ED000B0AB0D3
:10632000BDEC088B03B0BDE8F08FE0489FEDE0AB1B
:106330009FEDE1BBA84247DDE14F9FEDE39B9FED61
:10634000E48B9DED120B53EC1A2B51EC100B002E2D
:106350001CDDFBF709F941EC100BBD4208D053ECF2
:106360001B2B51EC100BFBF7FFF8C4E900010BE00D
:1063700053EC192B51EC100BFBF7F6F853EC182BE0
:10638000FBF7F2F8C4E900010120C8E7FBF74BF87E
:1063900041EC100BBD4208D053EC1B2B51EC100B01
:1063A000FBF741F8C4E900010BE053EC192B51EC69
:1063B000100BFBF738F853EC182BFBF734F8C4E953
:1063C00000014FF0FF30AAE7C348A84279DB9DEDFA
:1063D000120B51EC100B01F057F841EC180B9FED2C
:1063E000C00B53EC102BFBF7C5F89FEDBF1B53EC14
:1063F000112BFBF718F8FBF7ABF90746FBF77CFB13
:1064000041EC190B53EC1A2BFBF7B4F853EC182B97
:10641000FBF7ADF841EC180B53EC1B2B51EC190BAF
:10642000FBF7A8F8DFF8C8A241EC100B4FEA1558AB
:106430000125FA4453EC102B51EC180BFBF794F8A0
:10644000032DC4E900013DD0C1F30A5005EB45110D
:10645000A8EB00001139814234DA0AEB051BB0EEDB
:1064600048AA9BED000BF0EE68AA53EC102B51EC00
:10647000190BFBF77FF841EC1B0B51EC1A0B53EC9B
:106480001B2BFBF771F841EC180B51EC1A0B53EC7A
:10649000182BFBF769F853EC1B2BFBF765F89BED0A
:1064A000020B41EC1A0B53EC102B51EC190BFBF7C0
:1064B00061F853EC1A2BFBF757F841EC100B6D1CED
:1064C000B8E70EE0002EA8BF3846BFF628AF94ED1F
:1064D000000B51EC100B81F00041C4E9000178423F
:1064E0001DE7C6F3130040F4801EC6F30A50A0F265
:1064F000F530471100F01F05C5F12000DDF848B068
:1065000008900020069007900520EC467949002D60
:1065100007EB0002794408BF51F8221009D051F866
:10652000223001EB8201AB404A68089922FA01F15E
:106530001943A1FB0E26A1FB0B131A449A4234BF48
:106540000123002303EB06080CEB8003D3E901A62B
:106550000E448E4234BF0121002192448A4411B17D
:10656000924502D903E0924501D2012100E00021C9
:10657000C3E901A641444CF82010011EA0F101001E
:10658000C4DC029800F10050850F0298DDE9036732
:106590008000DDF81480FBF7AFFA41EC1A0B3046AF
:1065A000FBF7C9F89FED541B53EC112BFAF7E2FFF0
:1065B00041EC1B0B3846FBF7BEF89FED511B53EC2B
:1065C000112BFAF7D7FF41EC180B4046FBF7B3F855
:1065D0009FED4D1B53EC112BFAF7CCFF41EC190B3F
:1065E00051EC180B53EC192BFAF71DFF53EC1B2B36
:1065F000FAF719FF53EC1A2BFAF715FFCDE908014A
:10660000002008909DED080B53EC1A2B51EC100B59
:10661000FAF7AAFF53EC1B2BFAF7A6FF53EC182B43
:10662000FAF7A2FF53EC192BFAF7A1FF9FED381BE5
:1066300053EC112BFAF79EFF9FED370B41EC180B33
:1066400053EC102B9DED080B51EC100BFAF792FF59
:1066500053EC182BFAF7E7FE9FED310B41EC180BCA
:1066600053EC102B9DED080B51EC100BFAF782FF49
:1066700053EC182BFAF7D7FE41EC100B139810F0DF
:10668000004F06D06D4251EC100B81F0004141ECFF
:10669000100B284684ED000B41E6000000000000CE
:1066A0000000000000000000FB21E93F7CD902400F
:1066B00000004054FB21F93F3163621A61B4D03DC0
:1066C000FB21F93F000000000000601A61B4D03DDA
:1066D0007370032E8A19A33BFB213941000000008F
:1066E00083C8C96D305FE43F000000000000E03F58
:1066F000025A000050590000000000000000103E47
:10670000000000000000103C000000000000103AF3
:10671000182D4454FB21F93D3326A611460B113C9C
:1067200000000054FB21F93D10B52DED040B2DEDBB
:10673000088B82B0B0EE419AF0EE619A0B9820F08F
:1067400000449FED4BABB4F1795F11DA9DED0A0B7C
:1067500051EC100BFAF7FCFF002801BFB0EE4A0A1B
:10676000F0EE6A0A02B0BDEC088B04BF04B010BDA5
:106770009DED0A0B53EC102B51EC100BFAF7FAFEBF
:1067800041EC180B3C480621B0EE480AF0EE680ACE
:10679000784400F081F853EC182B51EC100BFAF709
:1067A000E9FE9DED0A0B41EC1B0B53EC192B51EC50
:1067B000100BFAF7DFFE41EC190B53EC1B2B51ECDD
:1067C000180BFAF7D7FE53EC192BFAF7CDFE9FED15
:1067D0002C0B41EC190B53EC102B51EC180BFAF766
:1067E000C9FE41EC100B2848844210DA53EC192BF7
:1067F00051EC100BFAF7B8FE53EC1A2BFAF7B7FE70
:1068000041EC100B02B0BDEC088B04B010BD1F486A
:10681000A042BCBF9FED1E1B8DED001B06DBA4F547
:1068200000100190002000909DED001B51EC100B1A
:1068300053EC112BFAF798FE9DED000B41EC180B71
:1068400053EC102B51EC1A0BFAF78EFE41EC1A0B9D
:1068500053EC192B51EC180BFAF786FE53EC1A2B5C
:10686000FAF785FE41EC100BCCE7000000000000B9
:10687000000000000000F03F74560000000000001F
:10688000000000000000E03F3333D33F0000E93F49
:10689000000000000000D23F70B504462DED028BD1
:1068A0004D1E00EBC500B0EE408AF0EE608A90ED20
:1068B000000B35F0060017D053EC182B51EC100BE1
:1068C000FAF758FE41EC100B6D1E04EBC50090ED7D
:1068D000001B51EC100B53EC112BFAF7A4FD41EC0B
:1068E000100B35F00600E7D1022D36D0042D1CD058
:1068F000062D1CBFBDEC028B70BD53EC182B51EC68
:10690000100BFAF737FE94ED0A1B53EC112BFAF734
:106910008AFD53EC182BFAF72DFE94ED081B53EC6F
:10692000112BFAF780FD41EC100B53EC182B51ECB6
:10693000100BFAF71FFE94ED061B53EC112BFAF720
:1069400072FD53EC182BFAF715FE94ED040B53EC83
:10695000102BFAF768FD41EC100B53EC182B51EC9F
:10696000100BFAF707FE94ED021B53EC112BFAF70C
:106970005AFD53EC182BFAF7FDFD94ED001B53EC78
:10698000112BFAF750FDBDEC028B41EC100B70BDE2
:1069900031B504462DED040B2DED0A8BB0EE41BA56
:1069A000F0EE61BA0B989DED0A0B20F00040B0F1BB
:1069B000795F0DDA51EC100BFFF7CEFB042808BF0E
:1069C00000F09AF89DED0A0BBDEC0A8B05B030BDC6
:1069D00053EC102B51EC100BFAF7CCFD41EC180BDB
:1069E0009DED0A0B53EC182B51EC100BFAF7C2FD7E
:1069F00041EC190B2C48B0EE480AF0EE680A05216C
:106A00007844FFF749FF9FED2ACBB0EE40AAF0EEA5
:106A100060AA9CB353EC1C2B51EC190BFAF7AAFD9E
:106A200041EC1C0B53EC1A2B51EC190BFAF7A2FD9D
:106A30009FED210B41EC190B53EC102B51EC1B0B70
:106A4000FAF798FD53EC192BFAF78EFD53EC182B3F
:106A5000FAF790FD53EC1B2BFAF786FD53EC1C2B39
:106A6000FAF782FD9DED0A1B53EC112BFAF77FFD1F
:106A7000BDEC0A8B05B041EC100B30BDFFE753ECC9
:106A80001A2B51EC180BFAF775FD53EC1C2BFAF787
:106A9000CAFC53EC192BFAF76DFD9DED0A1B53EC64
:106AA000112BFAF7C0FCE3E7FC54000000000000E3
:106AB000495555555555C5BF000000000000E03F41
:106AC00010B553EC102B51EC100BFAF7ACFC41EC69
:106AD000100B10BD000000009FED050B10B553EC2E
:106AE000102B51EC100BFAF7B7FD41EC100B10BD59
:106AF00000000000000000009FED050B10B553ECF6
:106B0000102B51EC100BFAF735FD41EC100B10BDBA
:106B1000000000000000001002E008C8121F08C1B9
:106B2000002AFAD170477047002001E001C1121F0E
:106B3000002AFBD17047000001490860704700003F
:106B4000580000202DE9FF5F82B00021DDE904300C
:106B5000020DDDF840B0034318D044F61050A2F205
:106B6000FF3242431514119801281FD0A5EB0B00EA
:106B7000401C5FEA000A4FF000064E4FDFF83891E4
:106B8000B046504615D5CAF1000413E0119801240F
:106B90004AA3012801D16FEA0B010298119AC0E9BA
:106BA0000031C0E9024206B0BDE8F09FCBF1000021
:106BB000DFE704460021404A491842EB0450CDE982
:106BC000001012E0E00707D032463B4640464946F7
:106BD000FAF7D0FC8046894632463B4610461946B5
:106BE000FAF7C8FC06460F466410002CEAD1DDE92E
:106BF0000401DDE90023BAF1000F06DAFAF7BAFC66
:106C000042464B46FAF7B6FC05E0FAF725FD424648
:106C10004B46FAF721FD04460E460022284BFAF7B0
:106C200041FF03D84FF0FF30014607E00022254B1B
:106C300020463146FAF7F7FBFAF71CFF102409E06B
:106C4000002C0ADB0A220023FAF7AAFB039B30324E
:106C50001A55641E50EA0102F2D1641C039AC4F171
:106C600011031444119A012A03D0012208430DD1C3
:106C70000AE0084304D000204FF0110B119072E796
:106C8000A3EB0B056D1E0DE05B4504DD4FF000022C
:106C900005F1010504E003DA4FF00002A5F101055A
:106CA000002AECD002981199C0E90231C0E90045F0
:106CB00079E70000000014400000F03F30000000C1
:106CC0000000F0430000E03F2DE9FF4F95B09B46E8
:106CD0008946064600250FE2252877D1002427465D
:106CE000F84A0121059400E0044316F8013F203BD7
:106CF00001FA03F01042F7D130782A2811D06FF052
:106D00002F033078A0F13002092A16D8059A44F0F2
:106D1000020402EB820203EB42021044761C05904F
:106D2000EFE759F8042B0592002A03DA504244F4A5
:106D30000054059044F00204761C30782E2816D1B9
:106D400016F8010F44F004042A280DD06FF02F022A
:106D50003078A0F13003092B09D807EB870302EB49
:106D60004303C718761CF3E759F8047B761C307888
:106D70006C280FD006DC4C2817D068280DD06A2864
:106D800014D104E0742810D07A280FD10DE044F417
:106D900000140AE044F4801401E044F440147278D2
:106DA000824202D104F58014761C761C3078662865
:106DB0000BD013DC582877D009DC002875D0452883
:106DC000F6D04628F4D047281AD19DE118E0632870
:106DD00035D0642879D0652812D195E1702873D018
:106DE00008DC6728F1D069286FD06E280DD06F2895
:106DF00006D1B5E073282CD0752875D0782874D0CA
:106E00005A46179990476D1C75E1C4F30250022849
:106E100009D003280DD0D9F8001004280DD00D603A
:106E200009F1040967E1D9F80010EA17C1E9005235
:106E3000F6E7D9F800100D80F2E70D70F0E719F8C9
:106E4000041B8DF8001000208DF80100EA46012097
:106E500003E059F804AB4FF0FF3061074FF0000139
:106E600002D40DE008F101018846B9420FDA8045ED
:106E7000F8DB1AF808100029F4D108E008F1010144
:106E800088468142FADB1AF808100029F6D10598E5
:106E90005B46A0EB080721463846179A00F094FAA3
:106EA000284400EB080507E04DE029E10DE01AF861
:106EB000010B5A4617999047B8F10108F7D25B4683
:106EC00021463846179A13E142E00A220092C4F3A1
:106ED00002524FF0000A022A08D059F804CB032AC4
:106EE0004FEAEC710AD00DE029E02AE009F1070130
:106EF00021F00702F2E802C1914609E00FFA8CFC8A
:106F00004FEAEC71042A03D14FFA8CFC4FEAEC7182
:106F1000002907DA0A460021DCF1000C61EB0201CE
:106F20002D2202E0220504D52B228DF80420012217
:106F300003E0E20701D02022F7E7904659E00A215A
:106F400002E010220DE010214FF0000A00910BE04A
:106F500010224FF0000A44F004040827009203E0D6
:106F600008224FF0000A0092C4F30252022A05D010
:106F700059F804CB0021032A08D009E009F10701E0
:106F800021F00702F2E802C1914605E01FFA8CFCED
:106F9000042A01D10CF0FF0C4FF00008220728D57D
:106FA000702806D0009B83F0100353EA0A0305D033
:106FB0000EE040228DF80420012208E05CEA010284
:106FC00006D030228DF804208DF80500022290466C
:106FD000009B83F0080353EA0A030AD15CEA01022A
:106FE00001D1620705D530228DF804204FF0010849
:106FF0007F1E582804D034A003900EA802900DE004
:1070000036A0F9E753466046009AFAF7C9F9844674
:107010000398825C0298401E029002705CEA0100B4
:10702000F0D1029806A9081A00F1200A600702D5DB
:1070300024F4803400E00127574502DDA7EB0A0065
:1070400000E0002000EB0A01009005984144401A3E
:107050000590E00306D45B462146179A059800F098
:10706000B3F90544002706E001A85A46C05D179908
:1070700090476D1C7F1C4745F6DBE0030CD55B4653
:107080002146179A059800F09FF9054404E0302046
:107090005A46179990476D1C0099481E0090002988
:1070A000F5DC08E0029802995A460078491C0291E2
:1070B000179990476D1CBAF10001AAF1010AF1DCA1
:1070C00065E10000092801003031323334353637AC
:1070D0003839616263646566000000003031323324
:1070E00034353637383941424344454600000000C4
:1070F00000F058F90544761C307800287FF4ECAD98
:1071000019B02846BDE8F08F620700D4062709F1C0
:10711000070222F0070CFCE80223E14603F00048D6
:107120005FEA080C02D00FF2702C0DE05FEA045CFD
:1071300002D50FF2682C07E05FEAC47C02D00FF2A0
:10714000602C01E0AFF2700C4FF0FF3823F00043E9
:10715000CDF850C065280CD006DC452809D046285B
:107160001DD047283DD13DE0662818D067287ED144
:1071700038E00021112F01DB112000E0781CCDE95F
:10718000000106A90EA8FFF7DDFCDDE90F010E9A4C
:1071900003910021009207F1010A04914DE04FF0A4
:1071A00000400097CDE9011006A90EA8FFF7CAFC20
:1071B000DDE90F0203920E9B11990022DDF80CA06D
:1071C0000093049211B9791C00EB010AB7EB0A0095
:1071D00004D4C0F1FF3007F1010A0490AAEB0700C4
:1071E000019044E0012F00DA01270021112F01DD79
:1071F000112000E03846CDE9000106A90EA8FFF7EE
:10720000A1FCDDE90F010E9A039100210491009287
:10721000BA4621070CD40399514500DA8A46BAF1DF
:10722000010F05DD009AAAF10101515C302908D057
:10723000B84202DA10F1040F06DA0121CDE901109B
:1072400015E0AAF10101E9E7002805DC04990144F1
:107250000491AAEB000102E0411C514500DD8A4681
:107260000499401A401C01904FF000400290200702
:1072700004D40198504501DBCDF8048000208DF83E
:107280004F0002980DF14F07B0F1004F25D02B2091
:107290000E9002984FF0020800280CDA404202904B
:1072A0002D200E9007E00A210298FAF7B7FA303144
:1072B000029007F8011DB8F10001A8F10108F2DC05
:1072C00002980028EFD1791E0E980870307800F0EF
:1072D000200040F0450007F8020D12A8C01B00F185
:1072E00007081498007800B1012000EB0A0101980A
:1072F00001EBE07105984144401A401E0590E003FF
:1073000006D45B462146179A059800F05DF80544BF
:107310001498007818B15A46179990476D1CE003ED
:1073200024D55B462146179A059800F04DF8054490
:107330001CE00498002807DBDDE90301884203DD37
:107340000098405C179901E0179930205A46904701
:10735000049805F10105401C04900198401E01901D
:1073600004D12E205A46179990476D1CBAF100019E
:10737000AAF1010ADDDC05E017F8010B5A4617995E
:1073800090476D1CB8F10001A8F10108F4DC5B46E0
:107390002146179A0598ABE62D0000002B0000004F
:1073A000200000002DE9F041044600251E46174646
:1073B000880404D405E039462020B0476D1C641EC3
:1073C000F9D52846BDE8F0812DE9F04104460025B5
:1073D0001E469046C80301D5302700E020278804C8
:1073E00004D505E041463846B0476D1C641EF9D50A
:1073F0002846BDE8F08100001A4810B50068C16851
:1074000041F00101C1601748FCF732FD1648FCF756
:107410002FFD04211548FDF781F814484821026822
:10742000D162C16000680A21816304211048FCF721
:1074300081FE1048FCF7E0FC4FF480620E490F48D3
:10744000FBF79CFB0E4901200A68D062C860FDF77B
:10745000BBFA0C494FF478400860BDE810400020AA
:10746000FDF7DAB9BC1200202C12002054110020C4
:10747000E4110020741200205C0000205C10002049
:107480009C1100202C00002082B0CDE9000121F0E9
:10749000004001909DED000B02B051EC100B7047C5
:1074A00013B54FF47A73012269460248FDF704F9D7
:1074B00000981CBD0413002010B50021114C0A4691
:1074C0002DED028B022000BF54F82030934201D9E9
:1074D0009AB20146401C80B2FF28F5D90A4A481EDC
:1074E0005043C21700EB9250C0F38F2000EE100AF9
:1074F00006A0B8EE408AFEF71FFEB0EE480ABDECCB
:10750000028B10BDC4310020009F2400506F7720F3
:107510003D2025640D0A00002DE9FF4F83B04FF098
:107520000008059A4746161A069ACDE90010551A22
:107530004FF0FF30002E02DD4FF0010102E003D1D9
:107540004FF000018B4602E08346C6F10006002D95
:1075500002DD4FF0010002E003D14FF0000082464F
:1075600002E08246C5F10005AE4201DD344600E08E
:107570002C46601C4FF00009029023E00599019809
:10758000884208DC06990098884204DC81B20198A0
:1075900080B2FDF7E3F9B0442F44A04506DD109911
:1075A000019859440844A8EB04080190A74205DD5E
:1075B00010990098514408443F1B009009F10100C4
:1075C0001FFA80F902998945D8DD07B0BDE8F08F30
:1075D0000024FBF793FFFEF77BF9FDF76BFEFDF749
:1075E0000FFEFDF7DDFDFDF759FFFEF743F8FDF750
:1075F00007FFFDF7D3FFFDF785FFFDF7DBFEFDF786
:1076000015FEFEF701F8FFF7F7FE1A4E4FF48065FE
:1076100019A056F82410FEF78FFD641CA4B2AC42EA
:10762000F6D32C464FF4C875FEF7A4F953EC102B93
:1076300013A0FEF781FDFAF739FFFFF73DFF10EECB
:10764000100AFAF7A4F841EC100B11A053EC102B20
:10765000FEF772FDFAF7AEFCFAF73EFC224605494A
:107660001048FBF78BFA2846FBF722FDFEF71EFDBC
:10767000DAE700005C00002025640D0A000000002D
:10768000544844203D20252E366C660D0A0000002B
:107690002D2D2D2D2D2DC6B5C2CA203D20252E32D3
:1076A000660D0A005C100020000610160006101679
:1076B00000000000000000000102030406070809A2
:1076C00000000000010203040000000000000000B0
:1076D00000000000000000003F400000000000002B
:1076E00000003000400030004000000009000BC0E6
:1076F0003D000BC03D00090018C024407FE022403F
:1077000031800000180024C01B000D803240018031
:1077100003801C4027401C80074000401000600090
:1077200000000000000000000000000000001F80BA
:10773000204040200000402020401F80000000002A
:10774000090006001F800600090000000400040074
:107750003F800400040000000010006000000000F2
:107760000000000004000400040004000400000005
:10777000000000400000000000000000002001C0E8
:1077800006003800400000001F80204020402040BC
:107790001F800000000010403FC0004000000000BB
:1077A00018C0214022402440184000001080204092
:1077B000244024401B80000002000D0011003FC047
:1077C000014000003C8024402440244023800000ED
:1077D0001F802440244034400380000030002000FB
:1077E00027C03800200000001B8024402440244093
:1077F0001B8000001C0022C0224022401F8000008D
:107800000000000008400000000000000000000030
:107810000460000000000000000004000A001100E5
:10782000208040400900090009000900090000000B
:1078300000004040208011000A00040018002000D1
:1078400023402400180000001F80204027402940CA
:107850001F400000004007C039000F0001C0004079
:1078600020403FC0244024401B8000001F80204057
:10787000204020403080000020403FC02040204079
:107880001F80000020403FC024402E4030C0000038
:1078900020403FC024402E00300000000F00108028
:1078A000204022403380020020403FC004000400FA
:1078B0003FC02040204020403FC0204020400000EA
:1078C0000060202020203FC02000200020403FC03A
:1078D00024400B0030C0204020403FC020400040EA
:1078E000004000C03FC03C0003C03C003FC000005F
:1078F00020403FC00C4023003FC020001F8020409C
:10790000204020401F80000020403FC02440240031
:10791000180000001F802140214020E01FA000002F
:1079200020403FC02440260019C0004018C0244019
:107930002440224031800000300020403FC02040E1
:107940003000000020003F80004000403F802000C9
:1079500020003E0001C0070038002000380007C0AA
:107960003C0007C038000000204039C0060039C084
:10797000204000002000384007C0384020000000B0
:10798000304021C02640384020C0000000000000E8
:107990007FE0402040200000000070000C000380C9
:1079A000004000000000402040207FE00000000078
:1079B0000000200040002000000000000010001027
:1079C0000010001000100010000000004000000037
:1079D00000000000000002800540054003C0004098
:1079E00020003FC0044004400380000000000380EA
:1079F000044004400640000000000380044024408E
:107A00003FC00040000003800540054003400000E7
:107A1000000004401FC0244024402000000002E079
:107A2000055005500650042020403FC0044004008B
:107A300003C000400000044027C0004000000000D8
:107A400000100010041027E00000000020403FC09C
:107A50000140070004C00440204020403FC00040D7
:107A60000040000007C0040007C0040003C000007D
:107A7000044007C00440040003C00040000003802D
:107A80000440044003800000041007F00450044048
:107A900003800000000003800440045007F0001041
:107AA000044007C00240040004000000000006403B
:107AB0000540054004C00000000004001F80044091
:107AC00000400000040007800040044007C0004060
:107AD0000400070004C0018006000400060001C085
:107AE000070001C006000000044006C0010006C0F7
:107AF000044000000410071004E0018006000400A8
:107B00000000044005C006400440000000000000E2
:107B100004007BE040200000000000000000FFF0B7
:107B200000000000000040207BE004000000000096
:107B300040008000400020002000400000000000C5
:107B40000000000000000000000000000000000035
:107B500000001FCC000C0000000000000000080026
:107B6000300060000800300060000000022003FCCC
:107B70001E20022003FC1E200220000000000E1820
:107B800011043FFF10840C78000000000F001084E7
:107B90000F3800C0077818840078000000780F8440
:107BA00010C411240E9800E4008400080800680046
:107BB0007000000000000000000000000000000055
:107BC000000007E0181820044002000000004002F6
:107BD0002004181807E000000000000002400240E6
:107BE00001800FF001800240024000000080008010
:107BF00000800FF800800080008000000001000D70
:107C0000000E0000000000000000000000000080E6
:107C10000080008000800080008000800000000C58
:107C2000000C000000000000000000000000000642
:107C3000001800600180060018002000000007F016
:107C4000080810041004080807F0000000000804E9
:107C500008041FFC000400040000000000000E0CDB
:107C600010141024104411840E0C000000000C1895
:107C700010041104110412880C700000000000E0D0
:107C80000320042408241FFC0024000000001F9887
:107C9000108411041104108810700000000007F017
:107CA00008881104110418880070000000001C00EE
:107CB000100010FC13001C001000000000000E3823
:107CC00011441084108411440E3800000000070095
:107CD000088C10441044088807F0000000000000E1
:107CE0000000030C030C0000000000000000000076
:107CF00000010106000000000000000000000080FC
:107D00000140022004100808100400000220022094
:107D100002200220022002200220000000001004A5
:107D200008080410022001400080000000000E003E
:107D30001200100C106C10800F00000003E00C18F3
:107D400013E4142417C4082807D000000004003CE2
:107D500003C41C40074000E4001C000410041FFC86
:107D60001104110411040E880070000003E00C18C7
:107D700010041004100410081C10000010041FFC54
:107D8000100410041004080807F0000010041FFC81
:107D90001104110417C410040818000010041FFC7B
:107DA0001104110017C010000800000003E00C18B7
:107DB0001004100410441C780040000010041FFC44
:107DC00010840080008010841FFC10040000100448
:107DD00010041FFC10041004000000000003000148
:107DE000100110011FFE10001000000010041FFC05
:107DF000110403801464181C1004000010041FFCFC
:107E00001004000400040004000C000010041FFC17
:107E10001F0000FC1F001FFC1004000010041FFCCA
:107E20000C04030000E010181FFC100007F0080805
:107E3000100410041004080807F0000010041FFCD0
:107E400010841080108010800F00000007F00818C8
:107E500010241024101C080A07F2000010041FFC54
:107E60001104110011C011300E0C000400000E1C92
:107E700011041084108410441C38000018001000F5
:107E800010041FFC100410001800000010001FF860
:107E900010040004000410041FF8100010001E005D
:107EA00011E0001C007013801C0010001FC0103C6B
:107EB00000E01F0000E0103C1FC000001004180C80
:107EC000163401C001C01634180C100410001C0038
:107ED000130400FC13041C00100000000804101C14
:107EE0001064108413041C0410180000000000002B
:107EF00000007FFE4002400240020000000030000F
:107F00000C0003800060001C000300000000400221
:107F1000400240027FFE0000000000000000000060
:107F2000200040004000400020000000000100014F
:107F300000010001000100010001000100004000FB
:107F40004000200000000000000000000000009839
:107F5000012401440144014400FC000410001FFC02
:107F60000088010401040088007000000000007017
:107F70000088010401040104008800000000007072
:107F800000880104010411081FFC0004000000F82F
:107F9000014401440144014400C800000000010400
:107FA00001040FFC1104110411001800000000D698
:107FB00001290129012901C90106000010041FFC43
:107FC000008401000100010400FC00040000010421
:107FD000190419FC00040004000000000000000364
:107FE00000010101190119FE0000000010041FFC2E
:107FF0000024004001B4010C010400000000100442
:1080000010041FFC0004000400000000010401FC37
:108010000104010001FC0104010000FC010401FC59
:10802000008401000100010400FC0004000000F8CD
:10803000010401040104010400F80000010101FF32
:108040000085010401040088007000000000007039
:10805000008801040104010501FF0001010401047D
:1080600001FC00840104010001800000000000CC3C
:1080700001240124012401240198000000000100D2
:10808000010007F80104010400000000010001F8EC
:10809000000400040004010801FC00040100018048
:1080A0000170000C001001600180010001F0010C62
:1080B000003001C00030010C01F00100000001049B
:1080C000018C00740170018C010400000101018128
:1080D0000171000E001801600180010000000184A0
:1080E000010C013401440184010C00000000000077
:1080F0000000000001003EFC4002400200000000C1
:1081000000000000FFFF000000000000000040022F
:1081100040023EFC01000000000000000000600082
:10812000800080004000400020002000000000008F
:10813000000000000000000000000000000000003F
:10814000000000000000000000000000000000002F
:108150000000000000000000000000000000000F10
:1081600080380FFE380F803800000000000000004B
:1081700000000000000000000000010000060000F8
:108180000C00003800003100000600000C00003830
:108190000000300000000000000000006180006767
:1081A000F807F980006180006180006180006180D3
:1081B0000067F807F98000618000000000000000FF
:1081C000000001C0E003E0F00630080418081FFFBB
:1081D000FE040E080787F00381E0000000000000A5
:1081E00001F000060C00040408060C7001F9C00040
:1081F0000E00003BE000EC18070808040C18000310
:10820000E00000000001E00007F003F818041C087B
:1082100004170807E1D003C0E00023B0003C0800C9
:1082200020080000100000000000000100003100E4
:10823000003200001C0000000000000000000000F0
:10824000000000000000000000000000000000002E
:108250000000000000000000000000007F0001FF9F
:10826000C00780F00C00181000042000020000007D
:108270000000002000021000040C00180780F0012C
:10828000FFC0007F000000000000000000000000B0
:1082900000000000000000004200006600006600D0
:1082A000003C0000180003FFC0001800003C000064
:1082B00066000066000042000000000008000008A0
:1082C0000000080000080000080001FFC0000800CE
:1082D000000800000800000800000800000000007E
:1082E000000100003100003200001C00000000000E
:1082F000000000000000000000000000000000007E
:10830000000000000800000800000800000800004D
:10831000080000080000080000080000080000082D
:1083200000000000000000000000000038000038DD
:108330000000380000000000000000000000000005
:108340000000000000000000000000000006000027
:108350001C000070000180000E0000380000C0000A
:108360000700001C000030000000000000000000BA
:108370007F8001FFE00380700600180400080400FD
:108380000806001803807001FFE0007F80000000F5
:1083900000000000000001000801000801000803BF
:1083A000FFF807FFF80000080000080000080000C0
:1083B0000000000000000001C03802C0580400980E
:1083C000040118040218040418061C1803F8180104
:1083D000E0F800000000000000000001C0E003C061
:1083E000F004000804080804080806180803F41834
:1083F00001E7F00001E000000000000000000000C4
:108400000300000D0000110000610000810803015D
:108410000807FFF80FFFF80001080001080000003E
:108420000000000000E007FCD0060808061008065F
:108430001008061008061838060FF00607C00000DE
:1084400000000000000000003F8001FFE0038430D6
:108450000208180410080410080410080718100374
:108460000FF00007C000000000000000000003C083
:10847000000700000600000600F80607F8061800CE
:1084800006E00007000006000000000000000001F8
:10849000E1E003F7F0063410041808041808040C8F
:1084A00008040C0806161803F3F001C1E0000000F0
:1084B00000000000F80003FC300306380402080442
:1084C00002080402080404100308F001FFC0007F42
:1084D000000000000000000000000000000000009C
:1084E0000000000070380070380070380000000094
:1084F000000000000000000000000000000000007C
:108500000000000000000000301A00301C000000D5
:10851000000000000000000000000000000000005B
:10852000000000080000140000220000410000804C
:108530008001004002002004001008000800000034
:1085400000000000210000210000210000210000A7
:108550002100002100002100002100002100002155
:1085600000000000000000000000080008040010E7
:108570000200200100400080800041000022000035
:10858000140000080000000000000003C00004C048
:1085900000040000080038080F38080838081000E8
:1085A0000C300007E00003C00000000000000000E5
:1085B0003F8000FFE0038070020F1006708804C047
:1085C00088048308047F8802C09003012000FE40D5
:1085D0000000080000180001F8003E0801C2000772
:1085E000020007E20000FE00001FC80001F80000C2
:1085F0003800000804000807FFF807FFF80408081F
:1086000004080804080804080806180803F41801F8
:10861000E7F00001E0000000000000003F8001FFE3
:10862000E003807002001804000804000804000839
:108630000400100600200780C000000004000807A6
:10864000FFF807FFF804000804000804000804000D
:108650001802001003807001FFE0007F800000001E
:1086600004000807FFF807FFF804080804080804D6
:108670000808040808043E08040008060018010061
:108680006000000004000807FFF807FFF80408086E
:10869000040800040800040800043E000600000668
:1086A0000000018000000000000000003F8001FF8A
:1086B000E0038070060018040008040208040208A1
:1086C0000203F00783F00002000002000400080724
:1086D000FFF807FFF8040808000800000800000879
:1086E0000000080004080807FFF807FFF804000866
:1086F000000000000000040008040008040008074F
:10870000FFF807FFF8040008040008040008000050
:10871000000000000000000000060000070000014B
:1087200004000104000104000307FFFE07FFFC042E
:10873000000004000004000004000807FFF807FF21
:10874000F8040C08001800003E0004C7800503C8A8
:108750000600F804003804001800000804000807A8
:10876000FFF807FFF80400080000080000080000F8
:108770000800000800000800001800006000000069
:1087800004000807FFF807800807FC00007FC0000E
:1087900003F80007C000780007800807FFF807FF0C
:1087A000F804000804000807FFF807000803C000E9
:1087B00000E000003800001E000007000001C004B7
:1087C00000F007FFF8040000000000007F8001FFB8
:1087D000E003807006001804000804000806001872
:1087E00003003001FFE0007F800000000400080764
:1087F000FFF807FFF804040804040004040004045C
:1088000000040400060C0003F80001F00000000062
:10881000000000007F8001FFE003807006008804F4
:1088200000880400C806003C03003E01FFE6007F0C
:108830008400000004000807FFF807FFF804080898
:10884000040800040C00040F00040BC00610F00321
:10885000F03801E00800000800000001E0F803F033
:1088600030063010041808041808040C08040C081A
:108870000206180207F00781E000000001800006F0
:10888000000004000004000004000807FFF807FFD0
:10889000F804000804000004000006000001800045
:1088A00004000007FFE007FFF004001800000800C4
:1088B000000800000800000800000804001007FF7E
:1088C000E004000004000006000007E00007FE00CE
:1088D000041FE00001F80000380001E0043E00073A
:1088E000C00006000004000004000007E00007FFCD
:1088F000C0041FF80007C007F80007FF80043FF816
:108900000007C004F8000700000400000000000495
:10891000000806001807C07805F1C8003E00001FD7
:10892000800463E80780F8060018040008000000CF
:1089300004000006000007800007E008047C08002F
:108940001FF80007F800180804E0080700000600F8
:10895000000400000000000100080600380400F8D0
:108960000403E8040F08047C0805F00807C00807A2
:10897000001804006000000000000000000000007B
:10898000000000000000003FFFFE20000220000267
:108990002000022000022000020000000000000071
:1089A000000008000007000000C0000038000006BA
:1089B000000001C000003000000E000001000000B7
:1089C0000000000000002000022000022000022021
:1089D00000022000023FFFFE000000000000000037
:1089E000000000000000000000000000000800007F
:1089F00010000030000020000030000010000008CF
:108A00000000000000000000000001000001000064
:108A10000100000100000100000100000100000150
:108A20000000010000010000010000010000000042
:108A300000000000002000002000001000001000D6
:108A40000000000000000000000000000000000026
:108A50000000000000F00019F8001B1800220800B8
:108A60002608002408002410003FF8001FF800002A
:108A70000800001800000004000007FFF80FFFF0D6
:108A80000018180010080020080020080030180006
:108A90001FF0000FC00000000000000007C0001F12
:108AA000F0001830002008002008002008003C08D2
:108AB000001C10000060000000000000000000002A
:108AC00007C0001FF0003818002008002008002010
:108AD0000804101007FFF80FFFF00000100000005E
:108AE0000000000000000007C0001FF0001230006E
:108AF0002218002208002208003208001E10000E72
:108B000020000000000000002000002008002008D5
:108B100001FFF803FFF806200804200804200807D6
:108B2000200003000000000000000000000E000E06
:108B30006E001FF30031B10020B10020B10031916F
:108B4000001F13002E1E00200E0030000000000445
:108B5000000807FFF80FFFF80010080020000020B1
:108B600000002008003FF8001FF800000800000087
:108B70000000000000000020080020080020080677
:108B80003FF8063FF8000008000008000008000059
:108B900000000000000000000000000003000003CF
:108BA000002001002001002003063FFE063FFC00DC
:108BB000000000000000000000000004000807FFA3
:108BC000F80FFFF8000188000300002FC00038F8FC
:108BD000002038002008000008000000000000000D
:108BE000000004000804000804000807FFF80FFF55
:108BF000F800000800000800000800000000000065
:108C0000002008003FF8003FF80010080020000096
:108C10003FF8003FF8001008002000003FF8003F38
:108C2000F8000008000000002008003FF8003FF8AE
:108C3000001008001000002000002008003FF8008D
:108C40001FF80000080000000000000007C0000F2F
:108C5000F00018300030080020080020080030081C
:108C6000001830000FF00007C000000000000000F6
:108C70002001003FFF003FFF0010110020090020ED
:108C800008002008003038001FF0000FC00000006E
:108C90000000000007C0001FF00038180020080086
:108CA0002008002009001011001FFF003FFF0000F6
:108CB00001000000002008002008002008003FF804
:108CC000003FF800080800100800200800200000FD
:108CD0003000003000000000000000000000000C28
:108CE00078001E180033080023080021080021889E
:108CF0000021980030F00038600000000000000003
:108D0000200000200000200000FFF003FFF80020FA
:108D100008002008002008000030000000000000CB
:108D2000000000002000003FF0007FF80000180065
:108D30000008000008002010003FF8007FF000004D
:108D400010000000000000002000003000003C0087
:108D5000003F800023F000007800007000238000B6
:108D60003C00003000002000002000003C00003FDC
:108D7000E00023F80000E0002700003E00003FE094
:108D80000021F80001E0003E00002000000000008B
:108D90002008002008003838003E680027800003C3
:108DA000C8002CF800383800201800200800000007
:108DB000000000002000003003003C01003F830061
:108DC00023EC000070002380003C00002000002005
:108DD00000000000000000000000003808002038FB
:108DE0000020F80023E8002F88003E080038080023
:108DF00020180000700000000000000000000000CB
:108E0000000000000000000008000014001FF7FC34
:108E100030000620000200000000000000000000FA
:108E20000000000000000000000000000000FFFF44
:108E3000FF00000000000000000000000000000033
:108E40000000000000002000023000061FF7FC00B8
:108E500014000008000000000000000000000000F6
:108E6000000000000000001800006000004000004A
:108E70004000002000001000000800000400000472
:108E800000000C00001000000000000000000000C6
:108E900000000000000000000000000000000000D2
:108EA00000000000000000000000000000000000C2
:108EB00000000000000000000000000000000000B2
:108EC00000000000000000000000000000000000A2
:108ED0000000000000000000000000000000000092
:108EE0000000000000000000000000000000000082
:108EF0000000000000000000000000000000000072
:108F00000000000000000000000000000000000061
:108F10000000000000000000000000000000000051
:108F200007F000C007FFE1E007F001E0000000C02B
:108F30000000000000000000000000000000000031
:108F40000000000000000000000000000000000021
:108F50000000000000000000000000000000000011
:108F60000000000000000000000000000000000001
:108F700000000000000000000000000000000000F1
:108F800000000000000000000000000000000000E1
:108F90000020000001C00000078000001F0000004A
:108FA0001E0000001C20000001C00000078000001F
:108FB0001F0000001E0000001C0000000000000058
:108FC00000000000000000000000000000000000A1
:108FD0000000000000000000000000000000000091
:108FE0000000000000000000000000000000000081
:108FF0000000000000000000000000000000000071
:1090000000000000000000000000000000180C003C
:1090100000180C0000180FE0001FFC0003F80C0003
:1090200000180C0000180C0000180C0000180C00B0
:1090300000180FE0001FFC0003F80C0000180C00E3
:1090400000180C00000000000000000000000000FC
:109050000000000000000000000000000000000010
:109060000000000000000000000000000000000000
:1090700000000000000000000000000000000000F0
:1090800000000000000000000000000000000000E0
:1090900000000780007807C000FC0640010E002099
:1090A00003070020020380200FFFFFFC0201C02005
:1090B0000200E0600130704001F03F8000F01F00CE
:1090C00000000000000000000000000000000000A0
:1090D0000000000000000000000000000000000090
:1090E0000000000000000000000000000000000080
:1090F0000000000000000000000000000000000070
:10910000000000000000000000FE000001FF000061
:109110000301800002008060030181C001FF07009D
:1091200000FE18000000E0000003BF00000CFFC0BC
:109130000071806001C10020030180600000FFC059
:1091400000003F00000000000000000000000000E0
:10915000000000000000000000000000000000000F
:1091600000000000000000000000000000000000FF
:1091700000000000000000000000000000000000EF
:10918000000000000000000000001F0000007FC081
:1091900000FCC0C001FF80600303E02002027820D1
:1091A00002061E2003FC074001F00380000103C0FB
:1091B00000011C600001E0200001002000010040CF
:1091C000000001800000000000000000000000001E
:1091D000000000000000000000000000000000008F
:1091E000000000000000000000000000000000007F
:1091F000000000000000000000000000000000006F
:10920000000000000000000000000000002000003E
:109210001C6000001C4000001F8000000F000000C8
:10922000000000000000000000000000000000003E
:10923000000000000000000000000000000000002E
:10924000000000000000000000000000000000001E
:10925000000000000000000000000000000000000E
:1092600000000000000000000000000000000000FE
:1092700000000000000000000000000000000000EE
:1092800000000000000000000000000000000000DE
:1092900000000000000000000000000000000000CE
:1092A000000000000007F800003FFF00007807C042
:1092B00001C000E0030000300400000808000004C2
:1092C000100000020000000000000000000000008C
:1092D000000000000000000000000000000000008E
:1092E000000000000000000000000000000000007E
:1092F000000000000000000000000000000000006E
:10930000000000000000000000000000100000024B
:1093100008000004040000080300003001C000E061
:10932000007807C0003FFF000007F80000000000C1
:10933000000000000000000000000000000000002D
:10934000000000000000000000000000000000001D
:10935000000000000000000000000000000000000D
:1093600000000000000000000000000000000000FD
:1093700000000000000000000000000000000000ED
:1093800000000000000000000000000000000000DD
:10939000000C1800000E3800000E380000063000E7
:1093A000000360000061438000FFFF800061430014
:1093B0000003600000063000000E3800000E380088
:1093C000000C180000000000000000000000000079
:1093D000000000000000000000000000000000008D
:1093E000000000000000000000000000000000007D
:1093F000000000000000000000000000000000006D
:10940000000000000000000000000000000000005C
:10941000000080000000800000008000000080004C
:109420000000800000008000007FFF00000080003E
:10943000000080000000800000008000000080002C
:10944000000080000000000000000000000000009C
:10945000000000000000000000000000000000000C
:1094600000000000000000000000000000000000FC
:1094700000000000000000000000000000000000EC
:1094800000000000000000000000000000000001DB
:10949000000000E3000000E2000000FC0000007893
:1094A00000000000000000000000000000000000BC
:1094B00000000000000000000000000000000000AC
:1094C000000000000000000000000000000000009C
:1094D000000000000000000000000000000000008C
:1094E000000000000000000000000000000000007C
:1094F000000000000000000000000000000000006C
:1095000000000000000000000000000000008000DB
:10951000000080000000800000008000000080004B
:10952000000080000000800000008000000080003B
:10953000000080000000800000008000000080002B
:10954000000080000000000000000000000000009B
:10955000000000000000000000000000000000000B
:1095600000000000000000000000000000000000FB
:1095700000000000000000000000000000000000EB
:1095800000000000000000000000000000000000DB
:10959000000000C0000001E0000001E0000000C089
:1095A00000000000000000000000000000000000BB
:1095B00000000000000000000000000000000000AB
:1095C000000000000000000000000000000000009B
:1095D000000000000000000000000000000000008B
:1095E000000000000000000000000000000000007B
:1095F000000000000000000000000000000000006B
:109600000000000000000000000000000000000C4E
:1096100000000038000000E00000038000000E00A1
:10962000000038000000E00000038000000E000091
:109630000038000000E00000038000000E00000081
:109640001800000000000000000000000000000002
:10965000000000000000000000000000000000000A
:1096600000000000000000000000000000000000FA
:1096700000000000000000000000000000000000EA
:1096800000000000000000000000000000000000DA
:10969000000FF800007FFF0000F00780018000C08D
:1096A00003000060020000200200002002000020F1
:1096B00003000060018000C000E00380007FFF0025
:1096C000000FF80000000000000000000000000093
:1096D000000000000000000000000000000000008A
:1096E000000000000000000000000000000000007A
:1096F000000000000000000000000000000000006A
:109700000000000000000000000000000000000059
:109710000000000000800020008000200080002069
:109720000080006001FFFFE003FFFFE00000006039
:1097300000000020000000200000002000000000C9
:109740000000000000000000000000000000000019
:109750000000000000000000000000000000000009
:1097600000000000000000000000000000000000F9
:1097700000000000000000000000000000000000E9
:1097800000000000000000000000000000000000D9
:10979000007800E0009801600100026002000460AF
:1097A00002000860020010600200206002004060B9
:1097B000030080600183006001FE00E0007C078000
:1097C0000000000000000000000000000000000099
:1097D0000000000000000000000000000000000089
:1097E0000000000000000000000000000000000079
:1097F0000000000000000000000000000000000069
:109800000000000000000000000000000000000058
:1098100000F0078001F007C00100004002000020B6
:109820000201002002010020020100200303802029
:109830000186804001FCC0C000787F8000001E00CF
:109840000000000000000000000000000000000018
:109850000000000000000000000000000000000008
:1098600000000000000000000000000000000000F8
:1098700000000000000000000000000000000000E8
:1098800000000000000000000000000000000800D0
:1098900000003800000048000001880000060800B1
:1098A000000C0810003008100040081001FFFFF005
:1098B00003FFFFF003FFFFF0000008100000081096
:1098C0000000081000000000000000000000000080
:1098D0000000000000000000000000000000000088
:1098E0000000000000000000000000000000000078
:1098F0000000000000000000000000000000000068
:109900000000000000000000000000000000000057
:1099100000000780001F864003E1002003020020B2
:10992000030400200304002003040020030400209B
:1099300003060040030301C00301FF8003007E0013
:109940000000000000000000000000000000000017
:109950000000000000000000000000000000000007
:1099600000000000000000000000000000000000F7
:1099700000000000000000000000000000000000E7
:1099800000000000000000000000000000000000D7
:109990000007FC00003FFF000070C380008180C012
:1099A00001010060030200200202002002020020E8
:1099B000020200200203004001C180C000C0FF80FD
:1099C00000007E0000000000000000000000000019
:1099D0000000000000000000000000000000000087
:1099E0000000000000000000000000000000000077
:1099F0000000000000000000000000000000000067
:109A00000000000000000000000000000000000056
:109A100000F0000003C0000003800000030000000D
:109A2000030007E003003FE00301C000030600005D
:109A30000318000003600000038000000300000022
:109A40000000000000000000000000000000000016
:109A50000000000000000000000000000000000006
:109A600000000000000000000000000000000000F6
:109A700000000000000000000000000000000000E6
:109A800000000000000000000000000000001F00B7
:109A900000783F8000FC60C0018EC040030780203A
:109AA0000203002002018020020180200201C02068
:109AB0000301E040018670C000FC3F8000781F0079
:109AC0000000000000000000000000000000000096
:109AD0000000000000000000000000000000000086
:109AE0000000000000000000000000000000000076
:109AF0000000000000000000000000000000000066
:109B0000000000000000000000000000003F000016
:109B100000FF81C001C0C1C0010060200200202000
:109B2000020020200200202002002060020040C02D
:109B30000100C18000C18F00007FFE00001FF00007
:109B40000000000000000000000000000000000015
:109B50000000000000000000000000000000000005
:109B600000000000000000000000000000000000F5
:109B700000000000000000000000000000000000E5
:109B800000000000000000000000000000000000D5
:109B900000000000000000000000000000000000C5
:109BA000000300C0000781E0000781E0000300C05F
:109BB00000000000000000000000000000000000A5
:109BC0000000000000000000000000000000000095
:109BD0000000000000000000000000000000000085
:109BE0000000000000000000000000000000000075
:109BF0000000000000000000000000000000000065
:109C00000000000000000000000000000000000054
:109C10000000000000000000000000000000000044
:109C2000000600660006007800000000000000004A
:109C30000000000000000000000000000000000024
:109C40000000000000000000000000000000000014
:109C50000000000000000000000000000000000004
:109C600000000000000000000000000000000000F4
:109C700000000000000000000000000000000000E4
:109C800000000000000000000000000000000000D4
:109C9000000080000001C0000003600000063000EA
:109CA000000C180000180C000030060000600300D3
:109CB00000C00180010000400200002004000010EC
:109CC0000000000000000000000000000000000094
:109CD0000000000000000000000000000000000084
:109CE0000000000000000000000000000000000074
:109CF0000000000000000000000000000000000064
:109D0000000000000000000000000000000410003F
:109D100000041000000410000004100000041000F3
:109D200000041000000410000004100000041000E3
:109D300000041000000410000004100000041000D3
:109D400000041000000000000000000000000000FF
:109D50000000000000000000000000000000000003
:109D600000000000000000000000000000000000F3
:109D700000000000000000000000000000000000E3
:109D800000000000000000000000000000000000D3
:109D900004000010020000200100004000C001800B
:109DA000006003000030060000180C00000C1800D2
:109DB00000063000000360000001C00000008000C9
:109DC0000000000000000000000000000000000093
:109DD0000000000000000000000000000000000083
:109DE0000000000000000000000000000000000073
:109DF0000000000000000000000000000000000063
:109E00000000000000000000000000000000000052
:109E10000078000001F80000023800000200000095
:109E2000040000C0040079E0040081E0040100C0E7
:109E300004030000020200000306000001FC000011
:109E400000F800000000000000000000000000001A
:109E50000000000000000000000000000000000002
:109E600000000000000000000000000000000000F2
:109E700000000000000000000000000000000000E2
:109E8000000000000000000000000000000FF800CB
:109E9000003FFE000070078000C000C00101F840D4
:109EA0000307FC20021E042002300820022030207C
:109EB000023FFC20013F044001800CC000E03180E3
:109EC000001FC200000000000000000000000000B1
:109ED0000000000000000000000000000000000082
:109EE0000000000000000000000000000000000072
:109EF0000000000000000000000000000000000062
:109F000000000000000000000000002000000060D1
:109F1000000003E000003E200003E020003E20009F
:109F200003E020000380200007FC2000003FE00049
:109F30000003FE2000003FE0000001E000000020E0
:109F400000000020000000000000000000000000F1
:109F50000000000000000000000000000000000001
:109F600000000000000000000000000000000000F1
:109F700000000000000000000000000000000000E1
:109F800000000000000000000000000002000020AF
:109F90000200002003FFFFE003FFFFE002010020BA
:109FA0000201002002010020020100200201002025
:109FB000030300200186806001FCC0C000F87F80A0
:109FC00000001F0000000000000000000000000072
:109FD0000000000000000000000000000000000081
:109FE0000000000000000000000000000000000071
:109FF0000000000000000000000000000000000061
:10A000000000000000000000000000000007F80051
:10A01000003FFF000070078000C000C0010000404A
:10A0200003000020020000200200002002000020A7
:10A030000200002001000040018000C003C0018038
:10A0400000300600000000000000000000000000DA
:10A050000000000000000000000000000000000000
:10A0600000000000000000000000000000000000F0
:10A0700000000000000000000000000000000000E0
:10A0800000000000000000000000000002000020AE
:10A090000200002003FFFFE003FFFFE002000020BA
:10A0A00002000020020000200200002003000060E7
:10A0B00001000040018000C000F00780007FFE002A
:10A0C000000FF80000000000000000000000000089
:10A0D0000000000000000000000000000000000080
:10A0E0000000000000000000000000000000000070
:10A0F0000000000000000000000000000000000060
:10A10000000000000000000000000000020000202D
:10A110000200002003FFFFE003FFFFE00201002038
:10A1200002010020020100200201002002010020A3
:10A1300002038020020FE0200300006003C000E063
:10A1400000600300000000000000000000000000AC
:10A1500000000000000000000000000000000000FF
:10A1600000000000000000000000000000000000EF
:10A1700000000000000000000000000000000000DF
:10A1800000000000000000000000000002000020AD
:10A190000200002003FFFFE003FFFFE002010020B8
:10A1A0000201002002010000020100000201000083
:10A1B0000201000002038000030FE0000300000022
:10A1C00003C000000060000000000000000000006C
:10A1D000000000000000000000000000000000007F
:10A1E000000000000000000000000000000000006F
:10A1F000000000000000000000000000000000005F
:10A200000000000000000000000000000007F8004F
:10A21000003FFE000070078001C001C00100004047
:10A2200003000020020000200200002002000020A5
:10A23000010020200100204003C03F8000303F800B
:10A2400000002000000020000000000000000000CE
:10A2500000000000000000000000000000000000FE
:10A2600000000000000000000000000000000000EE
:10A2700000000000000000000000000000000000DE
:10A28000000000000000000002000020020000208A
:10A2900003FFFFE003FFFFE00200802002008020B8
:10A2A000000080000000800000008000020080208C
:10A2B0000200802003FFFFE003FFFFE00200002018
:10A2C000020000200000000000000000000000006C
:10A2D000000000000000000000000000000000007E
:10A2E000000000000000000000000000000000006E
:10A2F000000000000000000000000000000000005E
:10A30000000000000000000000000000000000004D
:10A3100000000000020000200200002002000020D7
:10A320000200002003FFFFE003FFFFE00200002027
:10A3300002000020020000200200002000000000B7
:10A34000000000000000000000000000000000000D
:10A3500000000000000000000000000000000000FD
:10A3600000000000000000000000000000000000ED
:10A3700000000000000000000000000000000000DD
:10A380000000000000000000000000000000000EBF
:10A390000000000F0000000F00000001020000019B
:10A3A00002000001020000030200000603FFFFFCA0
:10A3B00003FFFFF80200000002000000020000009E
:10A3C000020000000000000000000000000000008B
:10A3D000000000000000000000000000000000007D
:10A3E000000000000000000000000000000000006D
:10A3F000000000000000000000000000000000005D
:10A40000000000000000000000000000020000202A
:10A410000200002003FFFFE003FFFFE00200C02076
:10A420000201002000078000000FE0000030F8006B
:10A4300002603E2003800F20030003E0020000E0E2
:10A4400002000020000000200000000000000000CA
:10A4500000000000000000000000000000000000FC
:10A4600000000000000000000000000000000000EC
:10A4700000000000000000000000000000000000DC
:10A4800000000000000000000000000002000020AA
:10A490000200002003FFFFE003FFFFE002000020B6
:10A4A000020000200000002000000020000000202A
:10A4B000000000200000002000000060000000E01C
:10A4C0000000030000000000000000000000000089
:10A4D000000000000000000000000000000000007C
:10A4E000000000000000000000000000000000006C
:10A4F000000000000000000000000000000000005C
:10A500000000000000000000020000200200002007
:10A5100003FFFFE003E0002003FF0020001FF00026
:10A520000001FF8000000FE000001E000003E000BB
:10A53000003E002003E0002003FFFFE003FFFFE0F8
:10A5400002000020020000200000000000000000C7
:10A5500000000000000000000000000000000000FB
:10A5600000000000000000000000000000000000EB
:10A5700000000000000000000000000000000000DB
:10A580000000000000000000020000200200002087
:10A5900003FFFFE00380002003F0002000FC000028
:10A5A000001F00000007C0000001F00000007C0058
:10A5B00002001F80020007E003FFFFE0020000002E
:10A5C0000200000000000000000000000000000089
:10A5D000000000000000000000000000000000007B
:10A5E000000000000000000000000000000000006B
:10A5F000000000000000000000000000000000005B
:10A60000000000000000000000000000000FF80043
:10A61000003FFE0000F00780018000C00100004004
:10A6200002000020020000200200002002000020A2
:10A6300001000040018000C000F00380003FFE00E8
:10A64000000FF80000000000000000000000000003
:10A6500000000000000000000000000000000000FA
:10A6600000000000000000000000000000000000EA
:10A6700000000000000000000000000000000000DA
:10A6800000000000000000000000000002000020A8
:10A690000200002003FFFFE003FFFFE00200802034
:10A6A0000200802002008000020080000200800082
:10A6B00002008000030180000183000000FE000012
:10A6C000007C00000000000000000000000000000E
:10A6D000000000000000000000000000000000007A
:10A6E000000000000000000000000000000000006A
:10A6F000000000000000000000000000000000005A
:10A70000000000000000000000000000000FF80042
:10A71000007FFF0000F00380018001C001000640BF
:10A72000020004200200042002000620020003E0D0
:10A73000010000F80180005C00E0038C003FFF0C8A
:10A74000000FFC18000000000000000000000000E6
:10A7500000000000000000000000000000000000F9
:10A7600000000000000000000000000000000000E9
:10A7700000000000000000000000000000000000D9
:10A7800000000000000000000000000002000020A7
:10A790000200002003FFFFE003FFFFE002010020B2
:10A7A00002010020020180000201E0000201FC0021
:10A7B00003033F80018607E001FC00E000F8002071
:10A7C0000000002000000000000000000000000069
:10A7D0000000000000000000000000000000000079
:10A7E0000000000000000000000000000000000069
:10A7F0000000000000000000000000000000000059
:10A800000000000000000000000000000000000048
:10A810000078060000FE01E0018600C0030300404E
:10A820000203002002018020020180200201C020DA
:10A830000200C0200100E060018070C003E03F80A2
:10A8400000001F00000000000000000000000000E9
:10A8500000000000000000000000000000000000F8
:10A8600000000000000000000000000000000000E8
:10A8700000000000000000000000000000000000D8
:10A880000000000000000000000000000060000068
:10A89000038000000300000002000000020000200E
:10A8A0000200002003FFFFE003FFFFE002000020A2
:10A8B00002000020020000000200000003800000EF
:10A8C00000E00000000000000000000000000000A8
:10A8D0000000000000000000000000000000000078
:10A8E0000000000000000000000000000000000068
:10A8F0000000000000000000000000000000000058
:10A900000000000000000000020000000200000043
:10A9100003FFFF0003FFFFC00200004002000060D1
:10A9200000000020000000200000002000000020A7
:10A93000020000400200008003FFFF000200000050
:10A940000200000000000000000000000000000005
:10A9500000000000000000000000000000000000F7
:10A9600000000000000000000000000000000000E7
:10A9700000000000000000000000000000000000D7
:10A9800000000000000000000000000002000000C5
:10A990000200000003C0000003FC0000023FC000F2
:10A9A0000003F80000007F80000007E0000007803F
:10A9B000000078000203C000023C000003C0000059
:10A9C0000200000002000000000000000000000083
:10A9D0000000000000000000000000000000000077
:10A9E0000000000000000000000000000000000067
:10A9F0000000000000000000000000000000000057
:10AA000000000000000000000200000003C0000081
:10AA100003FF8000023FFE0002007FE000000F0005
:10AA20000200F00003EF000003FF8000020FFE00B1
:10AA300000003FE000001F000207E00003F80000F4
:10AA40000300000002000000000000000000000001
:10AA500000000000000000000000000000000000F6
:10AA600000000000000000000000000000000000E6
:10AA700000000000000000000000000000000000D6
:10AA800000000000000000000000000002000020A4
:10AA900002000020038000E003F0032002FC0C20F1
:10AAA000021F30000007C0000007F00002187C0001
:10AAB00002601F20038003E0020000E0020000208B
:10AAC0000000002000000000000000000000000066
:10AAD0000000000000000000000000000000000076
:10AAE0000000000000000000000000000000000066
:10AAF0000000000000000000000000000000000056
:10AB00000000000000000000000000000200000043
:10AB10000300000003C0000003F80000023E002014
:10AB2000020FC0200001FFE000007FE00003802052
:10AB3000021C0020027000000380000002000000E0
:10AB40000200000000000000000000000000000003
:10AB500000000000000000000000000000000000F5
:10AB600000000000000000000000000000000000E5
:10AB700000000000000000000000000000000000D5
:10AB800000000000000000000000000000000020A5
:10AB9000006000E0038003E003000FA002003E20FD
:10ABA0000200F8200203E020020F8020023E002075
:10ABB0000278002003E00060038000E00200030050
:10ABC0000000000000000000000000000000000085
:10ABD0000000000000000000000000000000000075
:10ABE0000000000000000000000000000000000065
:10ABF0000000000000000000000000000000000055
:10AC00000000000000000000000000000000000044
:10AC10000000000000000000000000000000000034
:10AC20001FFFFFFC100000041000000410000004CF
:10AC300010000004100000041000000410000004C4
:10AC40000000000000000000000000000000000004
:10AC500000000000000000000000000000000000F4
:10AC600000000000000000000000000000000000E4
:10AC700000000000000000000000000000000000D4
:10AC800000000000000000000000000000000000C4
:10AC9000000000000700000003C000000078000072
:10ACA000001E00000003C0000000F00000001E00B5
:10ACB00000000780000000F00000003C00000006DB
:10ACC0000000000000000000000000000000000084
:10ACD0000000000000000000000000000000000074
:10ACE0000000000000000000000000000000000064
:10ACF0000000000000000000000000000000000054
:10AD00000000000000000000000000000000000043
:10AD100010000004100000041000000410000004E3
:10AD20001000000410000004100000041FFFFFFCCE
:10AD30000000000000000000000000000000000013
:10AD40000000000000000000000000000000000003
:10AD500000000000000000000000000000000000F3
:10AD600000000000000000000000000000000000E3
:10AD700000000000000000000000000000000000D3
:10AD800000000000000000000000000000000000C3
:10AD900000000000000000000200000004000000AD
:10ADA000080000001800000010000000180000005B
:10ADB0001800000004000000020000000000000075
:10ADC0000000000000000000000000000000000083
:10ADD0000000000000000000000000000000000073
:10ADE0000000000000000000000000000000000063
:10ADF0000000000000000000000000000000000053
:10AE00000000000000000000000000010000000140
:10AE1000000000010000000100000001000000012E
:10AE2000000000010000000100000001000000011E
:10AE3000000000010000000100000001000000010E
:10AE40000000000100000001000000000000000000
:10AE500000000000000000000000000000000000F2
:10AE600000000000000000000000000000000000E2
:10AE700000000000000000000000000000000000D2
:10AE800000000000000000000000000000000000C2
:10AE90000000000010000000100000001000000082
:10AEA000180000000800000004000000000000007E
:10AEB0000000000000000000000000000000000092
:10AEC0000000000000000000000000000000000082
:10AED0000000000000000000000000000000000072
:10AEE0000000000000000000000000000000000062
:10AEF0000000000000000000000000000000000052
:10AF000000000000000000000000000000000380BE
:10AF100000018FC000038C60000618200004102080
:10AF200000041020000420200004204000062040DF
:10AF30000003FFC00001FFE000000020000000202F
:10AF4000000000C000000000000000000000000041
:10AF500000000000000000000000000000000000F1
:10AF600000000000000000000000000000000000E1
:10AF700000000000000000000000000000000000D1
:10AF800000000000000000000000000002000000BF
:10AF90000200000003FFFFE007FFFFC0000180C0C8
:10AFA00000020060000200200004002000040020D5
:10AFB0000004002000060040000300C00001FF80E4
:10AFC0000000FE0000000000000000000000000083
:10AFD0000000000000000000000000000000000071
:10AFE0000000000000000000000000000000000061
:10AFF0000000000000000000000000000000000051
:10B000000000000000000000000000000000000040
:10B0100000007E000001FF80000381C000020040AC
:10B02000000600200004002000040020000400208E
:10B03000000600200003C0400001C08000000300A3
:10B040000000000000000000000000000000000000
:10B0500000000000000000000000000000000000F0
:10B0600000000000000000000000000000000000E0
:10B0700000000000000000000000000000000000D0
:10B0800000000000000000000000000000000000C0
:10B0900000007E000001FF80000380C00006006009
:10B0A00000040020000400200004002002040040EE
:10B0B0000202008003FFFFE007FFFFC00000004026
:10B0C0000000004000000000000000000000000040
:10B0D0000000000000000000000000000000000070
:10B0E0000000000000000000000000000000000060
:10B0F0000000000000000000000000000000000050
:10B10000000000000000000000000000000000003F
:10B1100000007E000001FF80000311C0000210400B
:10B12000000410600004102000041020000410200F
:10B1300000061020000310400001F0C00000710064
:10B1400000000000000000000000000000000000FF
:10B1500000000000000000000000000000000000EF
:10B1600000000000000000000000000000000000DF
:10B1700000000000000000000000000000000000CF
:10B1800000000000000000000000000000000000BF
:10B19000000400000004002000040020000400203F
:10B1A000007FFFE001FFFFE0010400200304002016
:10B1B000020400200204002002040000020000003B
:10B1C00001C0000001C000000000000000000000FD
:10B1D000000000000000000000000000000000006F
:10B1E000000000000000000000000000000000005F
:10B1F000000000000000000000000000000000004F
:10B20000000000000000000000000000000000003E
:10B210000000001C0000E33E0003FFC200020CC35C
:10B22000000404C1000404C1000404C1000404C1FA
:10B2300000060CC10003F8C30005F0620006007EA2
:10B240000006003C000000000000000000000000BC
:10B2500000000000000000000000000000000000EE
:10B2600000000000000000000000000000000000DE
:10B2700000000000000000000000000000000000CE
:10B28000000000000000000000000000020000209C
:10B290000200002003FFFFE007FFFFE000010020A5
:10B2A000000200200006000000040000000400006E
:10B2B00000040020000600200003FFE00001FFE082
:10B2C000000000200000002000000000000000003E
:10B2D000000000000000000000000000000000006E
:10B2E000000000000000000000000000000000005E
:10B2F000000000000000000000000000000000004E
:10B30000000000000000000000000000000000003D
:10B3100000000000000400200004002000040020C1
:10B32000000400200387FFE0038FFFE0038000207C
:10B3300000000020000000200000002000000000AD
:10B3400000000000000000000000000000000000FD
:10B3500000000000000000000000000000000000ED
:10B3600000000000000000000000000000000000DD
:10B3700000000000000000000000000000000000CD
:10B3800000000000000000000000000000000000BD
:10B39000000000000000000600000007000000019F
:10B3A000000000010004000100040001000400038B
:10B3B000000400060387FFFC038FFFF803800000F2
:10B3C000000000000000000000000000000000007D
:10B3D000000000000000000000000000000000006D
:10B3E000000000000000000000000000000000005D
:10B3F000000000000000000000000000000000004D
:10B40000000000000000000000000000020000201A
:10B410000200002003FFFFE007FFFFE0000008201C
:10B4200000001020000030000000FC0000058E002D
:10B43000000707A0000601E0000400E0000400206F
:10B4400000000020000000000000000000000000DC
:10B4500000000000000000000000000000000000EC
:10B4600000000000000000000000000000000000DC
:10B4700000000000000000000000000000000000CC
:10B4800000000000000000000000000000000000BC
:10B490000000000002000020020000200200002046
:10B4A0000200002003FFFFE007FFFFE00000002094
:10B4B000000000200000002000000020000000002C
:10B4C000000000000000000000000000000000007C
:10B4D000000000000000000000000000000000006C
:10B4E000000000000000000000000000000000005C
:10B4F000000000000000000000000000000000004C
:10B500000000000000000000000000000004002017
:10B510000007FFE0000FFFE0000200200004000031
:10B52000000400200007FFE00003FFE0000200200D
:10B5300000040000000400200007FFE00003FFE01B
:10B5400000000020000000000000000000000000DB
:10B5500000000000000000000000000000000000EB
:10B5600000000000000000000000000000000000DB
:10B5700000000000000000000000000000000000CB
:10B580000000000000000000000000000004002097
:10B59000000400200007FFE0000FFFE00001002092
:10B5A000000200200002000000040000000400006F
:10B5B00000040020000600200003FFE00001FFE07F
:10B5C000000000200000002000000000000000003B
:10B5D000000000000000000000000000000000006B
:10B5E000000000000000000000000000000000005B
:10B5F000000000000000000000000000000000004B
:10B60000000000000000000000000000000000003A
:10B6100000007E000000FF80000381C000020040A7
:10B620000006002000040020000400200004002088
:10B630000006002000020040000381C00001FF80DE
:10B6400000007E000000000000000000000000007C
:10B6500000000000000000000000000000000000EA
:10B6600000000000000000000000000000000000DA
:10B6700000000000000000000000000000000000CA
:10B6800000000000000000000000000000040001B5
:10B69000000400010007FFFF000FFFFF000100C1D1
:10B6A00000020041000400200004002000040020EB
:10B6B0000004002000060040000301C00001FF80DC
:10B6C00000007E00000000000000000000000000FC
:10B6D000000000000000000000000000000000006A
:10B6E000000000000000000000000000000000005A
:10B6F000000000000000000000000000000000004A
:10B700000000000000000000000000000000000039
:10B7100000007E000001FF80000380C00002006086
:10B720000004002000040020000400200004002089
:10B7300000020041000300C10003FFFF0007FFFFFC
:10B7400000000001000000010000000000000000F7
:10B7500000000000000000000000000000000000E9
:10B7600000000000000000000000000000000000D9
:10B7700000000000000000000000000000000000C9
:10B780000000000000000000000000000004002095
:10B79000000400200004002000040020000FFFE04F
:10B7A000000FFFE00000C020000100200002002088
:10B7B0000006002000040000000400000007000054
:10B7C0000003000000000000000000000000000076
:10B7D0000000000000000000000000000000000069
:10B7E0000000000000000000000000000000000059
:10B7F0000000000000000000000000000000000049
:10B800000000000000000000000000000000000038
:10B81000000003E00001C0E00003E040000630202B
:10B820000004302000041820000418200004182010
:10B8300000040C2000020C60000307C00007838096
:10B8400000000000000000000000000000000000F8
:10B8500000000000000000000000000000000000E8
:10B8600000000000000000000000000000000000D8
:10B8700000000000000000000000000000000000C8
:10B8800000000000000000000000000000000000B8
:10B89000000400000004000000040000000C000090
:10B8A000001FFF8000FFFFC00004006000040020B4
:10B8B000000400200004002000040040000001807B
:10B8C0000000000000000000000000000000000078
:10B8D0000000000000000000000000000000000068
:10B8E0000000000000000000000000000000000058
:10B8F0000000000000000000000000000000000048
:10B900000000000000000000000000000004000033
:10B91000000400000007FF80000FFFC0000000606F
:10B920000000002000000020000000200000002097
:10B9300000040040000400800007FFE0000FFFC08B
:10B940000000004000000040000000000000000077
:10B9500000000000000000000000000000000000E7
:10B9600000000000000000000000000000000000D7
:10B9700000000000000000000000000000000000C7
:10B9800000000000000000000000000000040000B3
:10B9900000040000000780000007F0000004FE0023
:10B9A00000041FC0000003E00000038000001C0032
:10B9B0000004600000078000000600000004000092
:10B9C0000000000000000000000000000000000077
:10B9D0000000000000000000000000000000000067
:10B9E0000000000000000000000000000000000057
:10B9F0000000000000000000000000000000000047
:10BA0000000000000000000000040000000600002C
:10BA10000007C0000007FC0000043F80000003E0B6
:10BA200000040F800006F0000007F0000007FF8010
:10BA300000040FE00000038000043C000007C00089
:10BA400000060000000400000000000000000000EC
:10BA500000000000000000000000000000000000E6
:10BA600000000000000000000000000000000000D6
:10BA700000000000000000000000000000000000C6
:10BA80000000000000000000000000000000002096
:10BA90000004002000040060000700E0000783208D
:10BAA0000007E6000004F80000003C0000045E20EF
:10BAB000000587A0000601E00004006000040020EB
:10BAC0000000002000000000000000000000000056
:10BAD0000000000000000000000000000000000066
:10BAE0000000000000000000000000000000000056
:10BAF0000000000000000000000000000000000046
:10BB00000000000000000000000000000004000031
:10BB100000040003000700030007E0010004F8012F
:10BB200000041F02000007FC000000E00000070006
:10BB3000000438000007C0000006000000040000F8
:10BB400000040000000000000000000000000000F1
:10BB500000000000000000000000000000000000E5
:10BB600000000000000000000000000000000000D5
:10BB700000000000000000000000000000000000C5
:10BB800000000000000000000000000000000000B5
:10BB900000078060000600E0000403E0000407A046
:10BBA00000040E2000043C20000470200005E0206A
:10BBB0000007802000070060000400E00000038010
:10BBC0000000000000000000000000000000000075
:10BBD0000000000000000000000000000000000065
:10BBE0000000000000000000000000000000000055
:10BBF0000000000000000000000000000000000045
:10BC00000000000000000000000000000000000034
:10BC10000000000000000000000000000000000024
:10BC200000000000000080000000800000014000D3
:10BC300007FE3FF808000004100000021000000298
:10BC400000000000000000000000000000000000F4
:10BC500000000000000000000000000000000000E4
:10BC600000000000000000000000000000000000D4
:10BC700000000000000000000000000000000000C4
:10BC800000000000000000000000000000000000B4
:10BC900000000000000000000000000000000000A4
:10BCA0000000000000000000FFFFFFFF0000000098
:10BCB0000000000000000000000000000000000084
:10BCC0000000000000000000000000000000000074
:10BCD0000000000000000000000000000000000064
:10BCE0000000000000000000000000000000000054
:10BCF0000000000000000000000000000000000044
:10BD00000000000000000000000000000000000033
:10BD100010000002100000020800000407FE3FF8B7
:10BD200000014000000080000000800000000000D2
:10BD30000000000000000000000000000000000003
:10BD400000000000000000000000000000000000F3
:10BD500000000000000000000000000000000000E3
:10BD600000000000000000000000000000000000D3
:10BD700000000000000000000000000000000000C3
:10BD8000000000000000000000000000180000009B
:10BD900030000000400000004000000040000000B3
:10BDA0002000000030000000080000000400000037
:10BDB0000200000002000000020000000C00000071
:10BDC000180000000000000000000000000000005B
:10BDD0000000000000000000000000000000000063
:10BDE0000000000000000000000000000000000053
:10BDF0000000000000000000000000000000000043
:10BE000000000000000000004C5555555555A53F59
:10BE10007751C1166CC156BF9015CB19A001FA3EDF
:10BE2000AD529C804F7E92BEC4B1B4BD9EEE213E09
:10BE3000D43888BEE9FAA8BD00004054FB21F93F80
:10BE40003163621A61B4D03D0000601A61B4D03D24
:10BE50007370032E8A19A33B0000002E8A19A33B9E
:10BE6000C14920259A837B390000000000000000B2
:10BE70006E83F9A22915444ED15727FCC0DD34F555
:10BE8000999562DB4190433CAB6351FE61C5BBDEDB
:10BE90003A6E24B7E0D24D42EA2E49061C92D109EF
:10BEA0001CEB1DFE3EA729B1F53582E88444BB2E6C
:10BEB00026709CE9417E5FB439D69139F4395383B9
:10BEC0008B5F849C3B28F9BDFF97F81F0F9805DE18
:10BED0008B112FEF1F6D0A5ACF7E366DB709CB2716
:10BEE000663F464F2DEA5F9EC7BA27757BF1E5EBAB
:10BEF000F739073DEA92528AB15FFB6B085D8D1FEF
:10BF0000A6F810111111813FD561C119A0012ABFF6
:10BF10007DFEB157E31DC73EEB9C2B8AE6E55ABE7A
:10BF20007CD5CF5A3AD9E53D48BF00080000002033
:10BF30005C000000186B0008A4BF00085C00002033
:10BF40006C3D0000286B000800409C45000000008C
:10BF500000000000000001000000000000000000E0
:10BF60000100000010000000000000000024F400A8
:10BF700001000000000000FFFFFFFFFF00000000C5
:10BF800000000000000000000000000000000000B1
:10BF900000000000000000000000000000000000A1
:04BFA000000000009D
:040000050800018965
:00000001FF
